{
  "_format": "hh-sol-artifact-1",
  "contractName": "Lending",
  "sourceName": "contracts/Lending.sol",
  "abi": [
    {
      "inputs": [
        {
          "internalType": "address",
          "name": "_usdcToken",
          "type": "address"
        },
        {
          "internalType": "address",
          "name": "_wethToken",
          "type": "address"
        },
        {
          "internalType": "address",
          "name": "_sValueFeed",
          "type": "address"
        },
        {
          "internalType": "uint256",
          "name": "_interestRate",
          "type": "uint256"
        },
        {
          "internalType": "bool",
          "name": "isTesting",
          "type": "bool"
        }
      ],
      "stateMutability": "nonpayable",
      "type": "constructor"
    },
    {
      "inputs": [
        {
          "internalType": "address",
          "name": "target",
          "type": "address"
        }
      ],
      "name": "AddressEmptyCode",
      "type": "error"
    },
    {
      "inputs": [
        {
          "internalType": "address",
          "name": "account",
          "type": "address"
        }
      ],
      "name": "AddressInsufficientBalance",
      "type": "error"
    },
    {
      "inputs": [],
      "name": "FailedInnerCall",
      "type": "error"
    },
    {
      "inputs": [
        {
          "internalType": "address",
          "name": "owner",
          "type": "address"
        }
      ],
      "name": "OwnableInvalidOwner",
      "type": "error"
    },
    {
      "inputs": [
        {
          "internalType": "address",
          "name": "account",
          "type": "address"
        }
      ],
      "name": "OwnableUnauthorizedAccount",
      "type": "error"
    },
    {
      "inputs": [],
      "name": "ReentrancyGuardReentrantCall",
      "type": "error"
    },
    {
      "inputs": [
        {
          "internalType": "address",
          "name": "token",
          "type": "address"
        }
      ],
      "name": "SafeERC20FailedOperation",
      "type": "error"
    },
    {
      "anonymous": false,
      "inputs": [
        {
          "indexed": true,
          "internalType": "address",
          "name": "user",
          "type": "address"
        },
        {
          "indexed": false,
          "internalType": "uint256",
          "name": "amount",
          "type": "uint256"
        }
      ],
      "name": "CollateralDeposited",
      "type": "event"
    },
    {
      "anonymous": false,
      "inputs": [
        {
          "indexed": true,
          "internalType": "address",
          "name": "user",
          "type": "address"
        }
      ],
      "name": "CollateralDisabled",
      "type": "event"
    },
    {
      "anonymous": false,
      "inputs": [
        {
          "indexed": true,
          "internalType": "address",
          "name": "user",
          "type": "address"
        }
      ],
      "name": "CollateralEnabled",
      "type": "event"
    },
    {
      "anonymous": false,
      "inputs": [
        {
          "indexed": true,
          "internalType": "address",
          "name": "user",
          "type": "address"
        },
        {
          "indexed": false,
          "internalType": "uint256",
          "name": "amount",
          "type": "uint256"
        }
      ],
      "name": "CollateralWithdrawn",
      "type": "event"
    },
    {
      "anonymous": false,
      "inputs": [
        {
          "indexed": true,
          "internalType": "address",
          "name": "previousOwner",
          "type": "address"
        },
        {
          "indexed": true,
          "internalType": "address",
          "name": "newOwner",
          "type": "address"
        }
      ],
      "name": "OwnershipTransferred",
      "type": "event"
    },
    {
      "anonymous": false,
      "inputs": [
        {
          "indexed": true,
          "internalType": "address",
          "name": "admin",
          "type": "address"
        }
      ],
      "name": "Paused",
      "type": "event"
    },
    {
      "anonymous": false,
      "inputs": [
        {
          "indexed": true,
          "internalType": "address",
          "name": "user",
          "type": "address"
        },
        {
          "indexed": false,
          "internalType": "uint256",
          "name": "amount",
          "type": "uint256"
        }
      ],
      "name": "USDCBorrowed",
      "type": "event"
    },
    {
      "anonymous": false,
      "inputs": [
        {
          "indexed": true,
          "internalType": "address",
          "name": "user",
          "type": "address"
        },
        {
          "indexed": false,
          "internalType": "uint256",
          "name": "amount",
          "type": "uint256"
        }
      ],
      "name": "USDCRepaid",
      "type": "event"
    },
    {
      "anonymous": false,
      "inputs": [
        {
          "indexed": true,
          "internalType": "address",
          "name": "admin",
          "type": "address"
        }
      ],
      "name": "Unpaused",
      "type": "event"
    },
    {
      "inputs": [],
      "name": "SECONDS_IN_YEAR",
      "outputs": [
        {
          "internalType": "uint256",
          "name": "",
          "type": "uint256"
        }
      ],
      "stateMutability": "view",
      "type": "function"
    },
    {
      "inputs": [
        {
          "internalType": "address",
          "name": "",
          "type": "address"
        }
      ],
      "name": "accounts",
      "outputs": [
        {
          "internalType": "uint256",
          "name": "collateralAmount",
          "type": "uint256"
        },
        {
          "internalType": "uint256",
          "name": "debtAmount",
          "type": "uint256"
        },
        {
          "internalType": "uint256",
          "name": "ethPrice",
          "type": "uint256"
        },
        {
          "internalType": "bool",
          "name": "isCollateralEnabled",
          "type": "bool"
        },
        {
          "internalType": "uint256",
          "name": "maxBorrow",
          "type": "uint256"
        }
      ],
      "stateMutability": "view",
      "type": "function"
    },
    {
      "inputs": [
        {
          "internalType": "uint256",
          "name": "amount",
          "type": "uint256"
        }
      ],
      "name": "borrow",
      "outputs": [],
      "stateMutability": "nonpayable",
      "type": "function"
    },
    {
      "inputs": [
        {
          "internalType": "address",
          "name": "",
          "type": "address"
        }
      ],
      "name": "borrowings",
      "outputs": [
        {
          "internalType": "uint256",
          "name": "principal",
          "type": "uint256"
        },
        {
          "internalType": "uint256",
          "name": "lastBorrowTime",
          "type": "uint256"
        },
        {
          "internalType": "uint256",
          "name": "accruedInterest",
          "type": "uint256"
        }
      ],
      "stateMutability": "view",
      "type": "function"
    },
    {
      "inputs": [
        {
          "internalType": "address",
          "name": "user",
          "type": "address"
        }
      ],
      "name": "calculateHealthFactor",
      "outputs": [
        {
          "internalType": "uint256",
          "name": "",
          "type": "uint256"
        }
      ],
      "stateMutability": "view",
      "type": "function"
    },
    {
      "inputs": [
        {
          "internalType": "address",
          "name": "user",
          "type": "address"
        }
      ],
      "name": "calculateMaxBorrow",
      "outputs": [
        {
          "internalType": "uint256",
          "name": "",
          "type": "uint256"
        }
      ],
      "stateMutability": "nonpayable",
      "type": "function"
    },
    {
      "inputs": [
        {
          "internalType": "uint256",
          "name": "_amount",
          "type": "uint256"
        }
      ],
      "name": "deposit",
      "outputs": [],
      "stateMutability": "nonpayable",
      "type": "function"
    },
    {
      "inputs": [],
      "name": "disableCollateral",
      "outputs": [],
      "stateMutability": "nonpayable",
      "type": "function"
    },
    {
      "inputs": [],
      "name": "enableCollateral",
      "outputs": [],
      "stateMutability": "nonpayable",
      "type": "function"
    },
    {
      "inputs": [
        {
          "internalType": "address",
          "name": "user",
          "type": "address"
        }
      ],
      "name": "getAccountInfo",
      "outputs": [
        {
          "internalType": "uint256",
          "name": "collateralAmount",
          "type": "uint256"
        },
        {
          "internalType": "uint256",
          "name": "debtAmount",
          "type": "uint256"
        },
        {
          "internalType": "bool",
          "name": "isCollateralEnabled",
          "type": "bool"
        },
        {
          "internalType": "uint256",
          "name": "ethPrice",
          "type": "uint256"
        },
        {
          "internalType": "uint256",
          "name": "collateralValue",
          "type": "uint256"
        },
        {
          "internalType": "uint256",
          "name": "healthFactor",
          "type": "uint256"
        },
        {
          "internalType": "uint256",
          "name": "maxBorrow",
          "type": "uint256"
        },
        {
          "internalType": "uint256",
          "name": "interRate",
          "type": "uint256"
        }
      ],
      "stateMutability": "view",
      "type": "function"
    },
    {
      "inputs": [
        {
          "internalType": "uint256",
          "name": "collateralAmount",
          "type": "uint256"
        }
      ],
      "name": "getCollateralValue",
      "outputs": [
        {
          "internalType": "uint256",
          "name": "",
          "type": "uint256"
        }
      ],
      "stateMutability": "view",
      "type": "function"
    },
    {
      "inputs": [
        {
          "internalType": "address",
          "name": "borrower",
          "type": "address"
        }
      ],
      "name": "getDebtInfo",
      "outputs": [
        {
          "internalType": "uint256",
          "name": "lastBorrowTime",
          "type": "uint256"
        },
        {
          "internalType": "uint256",
          "name": "principal",
          "type": "uint256"
        },
        {
          "internalType": "uint256",
          "name": "accruedInterest",
          "type": "uint256"
        }
      ],
      "stateMutability": "view",
      "type": "function"
    },
    {
      "inputs": [],
      "name": "getEthPrice",
      "outputs": [
        {
          "internalType": "uint256",
          "name": "",
          "type": "uint256"
        }
      ],
      "stateMutability": "view",
      "type": "function"
    },
    {
      "inputs": [
        {
          "internalType": "address",
          "name": "user",
          "type": "address"
        },
        {
          "internalType": "uint256",
          "name": "amountToBorrow",
          "type": "uint256"
        }
      ],
      "name": "getHealthFactor",
      "outputs": [
        {
          "internalType": "uint256",
          "name": "",
          "type": "uint256"
        }
      ],
      "stateMutability": "view",
      "type": "function"
    },
    {
      "inputs": [
        {
          "internalType": "uint256",
          "name": "_priceIndex",
          "type": "uint256"
        }
      ],
      "name": "getPrice",
      "outputs": [
        {
          "components": [
            {
              "internalType": "uint256",
              "name": "round",
              "type": "uint256"
            },
            {
              "internalType": "uint256",
              "name": "decimals",
              "type": "uint256"
            },
            {
              "internalType": "uint256",
              "name": "time",
              "type": "uint256"
            },
            {
              "internalType": "uint256",
              "name": "price",
              "type": "uint256"
            }
          ],
          "internalType": "struct ISupraSValueFeed.priceFeed",
          "name": "",
          "type": "tuple"
        }
      ],
      "stateMutability": "view",
      "type": "function"
    },
    {
      "inputs": [],
      "name": "getUsdcUsdPrice",
      "outputs": [
        {
          "internalType": "uint256",
          "name": "",
          "type": "uint256"
        }
      ],
      "stateMutability": "view",
      "type": "function"
    },
    {
      "inputs": [],
      "name": "interestRate",
      "outputs": [
        {
          "internalType": "uint256",
          "name": "",
          "type": "uint256"
        }
      ],
      "stateMutability": "view",
      "type": "function"
    },
    {
      "inputs": [],
      "name": "owner",
      "outputs": [
        {
          "internalType": "address",
          "name": "",
          "type": "address"
        }
      ],
      "stateMutability": "view",
      "type": "function"
    },
    {
      "inputs": [],
      "name": "pause",
      "outputs": [],
      "stateMutability": "nonpayable",
      "type": "function"
    },
    {
      "inputs": [],
      "name": "paused",
      "outputs": [
        {
          "internalType": "bool",
          "name": "",
          "type": "bool"
        }
      ],
      "stateMutability": "view",
      "type": "function"
    },
    {
      "inputs": [],
      "name": "renounceOwnership",
      "outputs": [],
      "stateMutability": "nonpayable",
      "type": "function"
    },
    {
      "inputs": [
        {
          "internalType": "uint256",
          "name": "amount",
          "type": "uint256"
        }
      ],
      "name": "repay",
      "outputs": [],
      "stateMutability": "nonpayable",
      "type": "function"
    },
    {
      "inputs": [
        {
          "internalType": "address",
          "name": "newOwner",
          "type": "address"
        }
      ],
      "name": "transferOwnership",
      "outputs": [],
      "stateMutability": "nonpayable",
      "type": "function"
    },
    {
      "inputs": [],
      "name": "unpause",
      "outputs": [],
      "stateMutability": "nonpayable",
      "type": "function"
    },
    {
      "inputs": [],
      "name": "usdcToken",
      "outputs": [
        {
          "internalType": "contract IERC20",
          "name": "",
          "type": "address"
        }
      ],
      "stateMutability": "view",
      "type": "function"
    },
    {
      "inputs": [],
      "name": "wethToken",
      "outputs": [
        {
          "internalType": "contract IERC20",
          "name": "",
          "type": "address"
        }
      ],
      "stateMutability": "view",
      "type": "function"
    },
    {
      "inputs": [
        {
          "internalType": "uint256",
          "name": "amount",
          "type": "uint256"
        }
      ],
      "name": "withdraw",
      "outputs": [],
      "stateMutability": "nonpayable",
      "type": "function"
    },
    {
      "inputs": [
        {
          "internalType": "uint256",
          "name": "amount",
          "type": "uint256"
        }
      ],
      "name": "withdrawUSDC",
      "outputs": [],
      "stateMutability": "nonpayable",
      "type": "function"
    },
    {
      "stateMutability": "payable",
      "type": "receive"
    }
  ],
  "bytecode": "0x60806040523480156200001157600080fd5b5060405162003b7838038062003b788339818101604052810190620000379190620003c8565b336001600081905550600073ffffffffffffffffffffffffffffffffffffffff168173ffffffffffffffffffffffffffffffffffffffff1603620000b55760006040517f1e4fbdf7000000000000000000000000000000000000000000000000000000008152600401620000ac919062000461565b60405180910390fd5b620000c6816200022060201b60201c565b5084600260006101000a81548173ffffffffffffffffffffffffffffffffffffffff021916908373ffffffffffffffffffffffffffffffffffffffff16021790555083600360006101000a81548173ffffffffffffffffffffffffffffffffffffffff021916908373ffffffffffffffffffffffffffffffffffffffff160217905550816004819055506301e13380670de0b6b3a76400006004546200016d9190620004ad565b62000179919062000527565b6005819055506001151581151503620001d35782600760006101000a81548173ffffffffffffffffffffffffffffffffffffffff021916908373ffffffffffffffffffffffffffffffffffffffff16021790555062000215565b82600760006101000a81548173ffffffffffffffffffffffffffffffffffffffff021916908373ffffffffffffffffffffffffffffffffffffffff1602179055505b50505050506200055f565b6000600160009054906101000a900473ffffffffffffffffffffffffffffffffffffffff16905081600160006101000a81548173ffffffffffffffffffffffffffffffffffffffff021916908373ffffffffffffffffffffffffffffffffffffffff1602179055508173ffffffffffffffffffffffffffffffffffffffff168173ffffffffffffffffffffffffffffffffffffffff167f8be0079c531659141344cd1fd0a4f28419497f9722a3daafe3b4186f6b6457e060405160405180910390a35050565b600080fd5b600073ffffffffffffffffffffffffffffffffffffffff82169050919050565b60006200031882620002eb565b9050919050565b6200032a816200030b565b81146200033657600080fd5b50565b6000815190506200034a816200031f565b92915050565b6000819050919050565b620003658162000350565b81146200037157600080fd5b50565b60008151905062000385816200035a565b92915050565b60008115159050919050565b620003a2816200038b565b8114620003ae57600080fd5b50565b600081519050620003c28162000397565b92915050565b600080600080600060a08688031215620003e757620003e6620002e6565b5b6000620003f78882890162000339565b95505060206200040a8882890162000339565b94505060406200041d8882890162000339565b9350506060620004308882890162000374565b92505060806200044388828901620003b1565b9150509295509295909350565b6200045b816200030b565b82525050565b600060208201905062000478600083018462000450565b92915050565b7f4e487b7100000000000000000000000000000000000000000000000000000000600052601160045260246000fd5b6000620004ba8262000350565b9150620004c78362000350565b9250828202620004d78162000350565b91508282048414831517620004f157620004f06200047e565b5b5092915050565b7f4e487b7100000000000000000000000000000000000000000000000000000000600052601260045260246000fd5b6000620005348262000350565b9150620005418362000350565b925082620005545762000553620004f8565b5b828204905092915050565b613609806200056f6000396000f3fe6080604052600436106101bb5760003560e01c80637b510fe8116100ec5780639ce625f71161008a578063cdb4aef011610064578063cdb4aef01461063b578063db81f99b14610666578063e75722301461068f578063f2fde38b146106cc576101fb565b80639ce625f7146105ac578063b6b55f25146105e9578063c5ebeaec14610612576101fb565b80638456cb59116100c65780638456cb59146105145780638da5cb5b1461052b57806396f159ba146105565780639b09dd6214610595576101fb565b80637b510fe8146104685780637c3a00fd146104ac57806382fee08f146104d7576101fb565b806355c81369116101595780635e5c06e2116101335780635e5c06e2146103a8578063631fa8a4146103e957806367c9b01714610426578063715018a614610451576101fb565b806355c81369146103155780635c975abb146103525780635dcc93911461037d576101fb565b8063371fd8e611610195578063371fd8e6146102935780633a2c08a7146102bc5780633f4ba83a146102d35780634b57b0be146102ea576101fb565b806311eac855146102005780632aa5270e1461022b5780632e1a7d4d1461026a576101fb565b366101fb576040517f08c379a00000000000000000000000000000000000000000000000000000000081526004016101f29061256d565b60405180910390fd5b600080fd5b34801561020c57600080fd5b506102156106f5565b604051610222919061260c565b60405180910390f35b34801561023757600080fd5b50610252600480360381019061024d9190612674565b61071b565b604051610261939291906126ba565b60405180910390f35b34801561027657600080fd5b50610291600480360381019061028c919061271d565b6107fd565b005b34801561029f57600080fd5b506102ba60048036038101906102b5919061271d565b6109f2565b005b3480156102c857600080fd5b506102d1610cdb565b005b3480156102df57600080fd5b506102e8610e50565b005b3480156102f657600080fd5b506102ff610f07565b60405161030c919061260c565b60405180910390f35b34801561032157600080fd5b5061033c60048036038101906103379190612674565b610f2d565b604051610349919061274a565b60405180910390f35b34801561035e57600080fd5b50610367610ffc565b6040516103749190612780565b60405180910390f35b34801561038957600080fd5b50610392611013565b60405161039f919061274a565b60405180910390f35b3480156103b457600080fd5b506103cf60048036038101906103ca9190612674565b61101b565b6040516103e095949392919061279b565b60405180910390f35b3480156103f557600080fd5b50610410600480360381019061040b91906127ee565b61105e565b60405161041d919061274a565b60405180910390f35b34801561043257600080fd5b5061043b611112565b604051610448919061274a565b60405180910390f35b34801561045d57600080fd5b5061046661112c565b005b34801561047457600080fd5b5061048f600480360381019061048a9190612674565b611140565b6040516104a398979695949392919061282e565b60405180910390f35b3480156104b857600080fd5b506104c161120a565b6040516104ce919061274a565b60405180910390f35b3480156104e357600080fd5b506104fe60048036038101906104f9919061271d565b611210565b60405161050b919061274a565b60405180910390f35b34801561052057600080fd5b5061052961125d565b005b34801561053757600080fd5b50610540611315565b60405161054d91906128bb565b60405180910390f35b34801561056257600080fd5b5061057d60048036038101906105789190612674565b61133f565b60405161058c939291906126ba565b60405180910390f35b3480156105a157600080fd5b506105aa611369565b005b3480156105b857600080fd5b506105d360048036038101906105ce9190612674565b6114de565b6040516105e0919061274a565b60405180910390f35b3480156105f557600080fd5b50610610600480360381019061060b919061271d565b61157e565b005b34801561061e57600080fd5b506106396004803603810190610634919061271d565b611724565b005b34801561064757600080fd5b50610650611bd0565b60405161065d919061274a565b60405180910390f35b34801561067257600080fd5b5061068d6004803603810190610688919061271d565b611bea565b005b34801561069b57600080fd5b506106b660048036038101906106b1919061271d565b611dd4565b6040516106c3919061293a565b60405180910390f35b3480156106d857600080fd5b506106f360048036038101906106ee9190612674565b611e7f565b005b600260009054906101000a900473ffffffffffffffffffffffffffffffffffffffff1681565b600080600080600660008673ffffffffffffffffffffffffffffffffffffffff1673ffffffffffffffffffffffffffffffffffffffff16815260200190815260200160002060405180606001604052908160008201548152602001600182015481526020016002820154815250509050600081602001514261079d9190612984565b90506000670de0b6b3a76400008260055485600001516107bd91906129b8565b6107c791906129b8565b6107d19190612a29565b9050826020015183600001518285604001516107ed9190612a5a565b9550955095505050509193909250565b600a60009054906101000a900460ff161561084d576040517f08c379a000000000000000000000000000000000000000000000000000000000815260040161084490612ada565b60405180910390fd5b610855611f05565b6000600960003373ffffffffffffffffffffffffffffffffffffffff1673ffffffffffffffffffffffffffffffffffffffff168152602001908152602001600020905060008160010154146108df576040517f08c379a00000000000000000000000000000000000000000000000000000000081526004016108d690612b6c565b60405180910390fd5b8181600001541015610926576040517f08c379a000000000000000000000000000000000000000000000000000000000815260040161091d90612bd8565b60405180910390fd5b8181600001600082825461093a9190612984565b9250508190555061098e3383600360009054906101000a900473ffffffffffffffffffffffffffffffffffffffff1673ffffffffffffffffffffffffffffffffffffffff16611f4b9092919063ffffffff16565b61099733610f2d565b503373ffffffffffffffffffffffffffffffffffffffff167fc30fcfbcaac9e0deffa719714eaa82396ff506a0d0d0eebe170830177288715d836040516109de919061274a565b60405180910390a2506109ef611fca565b50565b600a60009054906101000a900460ff1615610a42576040517f08c379a0000000000000000000000000000000000000000000000000000000008152600401610a3990612ada565b60405180910390fd5b610a4a611f05565b6000600960003373ffffffffffffffffffffffffffffffffffffffff1673ffffffffffffffffffffffffffffffffffffffff16815260200190815260200160002090506000600660003373ffffffffffffffffffffffffffffffffffffffff1673ffffffffffffffffffffffffffffffffffffffff168152602001908152602001600020905060008311610b13576040517f08c379a0000000000000000000000000000000000000000000000000000000008152600401610b0a90612c6a565b60405180910390fd5b8282600101541015610b5a576040517f08c379a0000000000000000000000000000000000000000000000000000000008152600401610b5190612cd6565b60405180910390fd5b6000610b67846006611fd4565b9050610bb8333086600260009054906101000a900473ffffffffffffffffffffffffffffffffffffffff1673ffffffffffffffffffffffffffffffffffffffff16612002909392919063ffffffff16565b83836001016000828254610bcc9190612984565b925050819055506000610bde83612084565b905080836002016000828254610bf49190612a5a565b9250508190555082600201548210610c4f576000836002015483610c189190612984565b9050610c258160066120f1565b846000016000828254610c389190612984565b925050819055506000846002018190555050610c6b565b81836002016000828254610c639190612984565b925050819055505b428360010181905550610c7d33610f2d565b503373ffffffffffffffffffffffffffffffffffffffff167f8b40a19342574242efcf69e217bf200f74bbce53a499c9498b1d8414779360d286604051610cc4919061274a565b60405180910390a250505050610cd8611fca565b50565b600a60009054906101000a900460ff1615610d2b576040517f08c379a0000000000000000000000000000000000000000000000000000000008152600401610d2290612ada565b60405180910390fd5b6000600960003373ffffffffffffffffffffffffffffffffffffffff1673ffffffffffffffffffffffffffffffffffffffff1681526020019081526020016000206001015414610db0576040517f08c379a0000000000000000000000000000000000000000000000000000000008152600401610da790612d68565b60405180910390fd5b6000600960003373ffffffffffffffffffffffffffffffffffffffff1673ffffffffffffffffffffffffffffffffffffffff16815260200190815260200160002060030160006101000a81548160ff0219169083151502179055503373ffffffffffffffffffffffffffffffffffffffff167f192895f9a14975ce177e9612fd4f4459e31169d79cb650596bcce0622bd70a9260405160405180910390a2565b610e5861211f565b600a60009054906101000a900460ff16610ea7576040517f08c379a0000000000000000000000000000000000000000000000000000000008152600401610e9e90612dd4565b60405180910390fd5b6000600a60006101000a81548160ff0219169083151502179055503373ffffffffffffffffffffffffffffffffffffffff167f5db9ee0a495bf2e6ff9c91a7834c1ba4fdd244a5e8aa4e537bd38aeae4b073aa60405160405180910390a2565b600360009054906101000a900473ffffffffffffffffffffffffffffffffffffffff1681565b600080600960008473ffffffffffffffffffffffffffffffffffffffff1673ffffffffffffffffffffffffffffffffffffffff16815260200190815260200160002090506000670de0b6b3a7640000610f84611112565b8360000154610f9391906129b8565b610f9d9190612a29565b90506000600282610fae9190612a29565b90506000610fc184600101546006611fd4565b9050808211610fd7576000945050505050610ff7565b8082610fe39190612984565b846004018190555083600401549450505050505b919050565b6000600a60009054906101000a900460ff16905090565b6301e1338081565b60096020528060005260406000206000915090508060000154908060010154908060020154908060030160009054906101000a900460ff16908060040154905085565b600080600960008573ffffffffffffffffffffffffffffffffffffffff1673ffffffffffffffffffffffffffffffffffffffff168152602001908152602001600020905060006110b18260000154611210565b905060008483600101546110c59190612a5a565b9050600081036110fa577fffffffffffffffffffffffffffffffffffffffffffffffffffffffffffffffff935050505061110c565b80826111069190612a29565b93505050505b92915050565b60008061111f602e611dd4565b6060015190508091505090565b61113461211f565b61113e60006121a6565b565b6000806000806000806000806000600960008b73ffffffffffffffffffffffffffffffffffffffff1673ffffffffffffffffffffffffffffffffffffffff168152602001908152602001600020905080600001549850806001015497508060030160009054906101000a900460ff1696506111b9611112565b95506111c4336114de565b9350670de0b6b3a76400006111d7611112565b82600001546111e691906129b8565b6111f09190612a29565b945080600401549250600454915050919395975091939597565b60045481565b60008061121b611112565b90506000670de0b6b3a7640000826112339190612a29565b670de0b6b3a7640000856112479190612a29565b61125191906129b8565b90508092505050919050565b61126561211f565b600a60009054906101000a900460ff16156112b5576040517f08c379a00000000000000000000000000000000000000000000000000000000081526004016112ac90612ada565b60405180910390fd5b6001600a60006101000a81548160ff0219169083151502179055503373ffffffffffffffffffffffffffffffffffffffff167f62e78cea01bee320cd4e420270b5ea74000d11b0c9f74754ebdbfc544b05a25860405160405180910390a2565b6000600160009054906101000a900473ffffffffffffffffffffffffffffffffffffffff16905090565b60066020528060005260406000206000915090508060000154908060010154908060020154905083565b600a60009054906101000a900460ff16156113b9576040517f08c379a00000000000000000000000000000000000000000000000000000000081526004016113b090612ada565b60405180910390fd5b6000600960003373ffffffffffffffffffffffffffffffffffffffff1673ffffffffffffffffffffffffffffffffffffffff168152602001908152602001600020600001541161143e576040517f08c379a000000000000000000000000000000000000000000000000000000000815260040161143590612e40565b60405180910390fd5b6001600960003373ffffffffffffffffffffffffffffffffffffffff1673ffffffffffffffffffffffffffffffffffffffff16815260200190815260200160002060030160006101000a81548160ff0219169083151502179055503373ffffffffffffffffffffffffffffffffffffffff167f689fa3f4fd14b3753d33c934f2648d75824d79933d875ed4ae8feb3e8622aea060405160405180910390a2565b600080600960008473ffffffffffffffffffffffffffffffffffffffff1673ffffffffffffffffffffffffffffffffffffffff16815260200190815260200160002090506000816001015403611557577fffffffffffffffffffffffffffffffffffffffffffffffffffffffffffffffff915050611579565b61156681600101546006611fd4565b81600401546115759190612a29565b9150505b919050565b600a60009054906101000a900460ff16156115ce576040517f08c379a00000000000000000000000000000000000000000000000000000000081526004016115c590612ada565b60405180910390fd5b6115d6611f05565b60008111611619576040517f08c379a000000000000000000000000000000000000000000000000000000000815260040161161090612ed2565b60405180910390fd5b611668333083600360009054906101000a900473ffffffffffffffffffffffffffffffffffffffff1673ffffffffffffffffffffffffffffffffffffffff16612002909392919063ffffffff16565b80600960003373ffffffffffffffffffffffffffffffffffffffff1673ffffffffffffffffffffffffffffffffffffffff16815260200190815260200160002060000160008282546116ba9190612a5a565b925050819055506116ca33610f2d565b503373ffffffffffffffffffffffffffffffffffffffff167fd7243f6f8212d5188fd054141cf6ea89cfc0d91facb8c3afe2f88a135848014282604051611711919061274a565b60405180910390a2611721611fca565b50565b600a60009054906101000a900460ff1615611774576040517f08c379a000000000000000000000000000000000000000000000000000000000815260040161176b90612ada565b60405180910390fd5b61177c611f05565b6000600960003373ffffffffffffffffffffffffffffffffffffffff1673ffffffffffffffffffffffffffffffffffffffff16815260200190815260200160002090506000600660003373ffffffffffffffffffffffffffffffffffffffff1673ffffffffffffffffffffffffffffffffffffffff16815260200190815260200160002090508160030160009054906101000a900460ff16611853576040517f08c379a000000000000000000000000000000000000000000000000000000000815260040161184a90612f3e565b60405180910390fd5b600082600001541161189a576040517f08c379a000000000000000000000000000000000000000000000000000000000815260040161189190612bd8565b60405180910390fd5b60006118a533610f2d565b905060006118b4856006611fd4565b9050818111156118f9576040517f08c379a00000000000000000000000000000000000000000000000000000000081526004016118f090612fd0565b60405180910390fd5b84600260009054906101000a900473ffffffffffffffffffffffffffffffffffffffff1673ffffffffffffffffffffffffffffffffffffffff166370a08231306040518263ffffffff1660e01b815260040161195591906128bb565b602060405180830381865afa158015611972573d6000803e3d6000fd5b505050506040513d601f19601f820116820180604052508101906119969190613005565b10156119d7576040517f08c379a00000000000000000000000000000000000000000000000000000000081526004016119ce9061307e565b60405180910390fd5b600260009054906101000a900473ffffffffffffffffffffffffffffffffffffffff1673ffffffffffffffffffffffffffffffffffffffff1663a9059cbb33876040518363ffffffff1660e01b8152600401611a3492919061309e565b6020604051808303816000875af1158015611a53573d6000803e3d6000fd5b505050506040513d601f19601f82011682018060405250810190611a7791906130f3565b611ab6576040517f08c379a0000000000000000000000000000000000000000000000000000000008152600401611aad9061316c565b60405180910390fd5b84846001016000828254611aca9190612a5a565b92505081905550600083600001541115611b3e576000836001015442611af09190612984565b9050670de0b6b3a7640000816005548660000154611b0e91906129b8565b611b1891906129b8565b611b229190612a29565b846002016000828254611b359190612a5a565b92505081905550505b84836000016000828254611b529190612a5a565b92505081905550428360010181905550611b6b33610f2d565b84600401819055503373ffffffffffffffffffffffffffffffffffffffff167f21c99c97ffd3b7e5f4ad64eaa03c732751ac124471129a7aa5ee0295afe9b46186604051611bb9919061274a565b60405180910390a250505050611bcd611fca565b50565b600080611bdd6059611dd4565b6060015190508091505090565b611bf261211f565b600a60009054906101000a900460ff1615611c42576040517f08c379a0000000000000000000000000000000000000000000000000000000008152600401611c3990612ada565b60405180910390fd5b611c4a611f05565b80600260009054906101000a900473ffffffffffffffffffffffffffffffffffffffff1673ffffffffffffffffffffffffffffffffffffffff166370a08231306040518263ffffffff1660e01b8152600401611ca691906128bb565b602060405180830381865afa158015611cc3573d6000803e3d6000fd5b505050506040513d601f19601f82011682018060405250810190611ce79190613005565b1015611d28576040517f08c379a0000000000000000000000000000000000000000000000000000000008152600401611d1f906131fe565b60405180910390fd5b600260009054906101000a900473ffffffffffffffffffffffffffffffffffffffff1673ffffffffffffffffffffffffffffffffffffffff1663a9059cbb33836040518363ffffffff1660e01b8152600401611d8592919061309e565b6020604051808303816000875af1158015611da4573d6000803e3d6000fd5b505050506040513d601f19601f82011682018060405250810190611dc891906130f3565b50611dd1611fca565b50565b611ddc6124c2565b600760009054906101000a900473ffffffffffffffffffffffffffffffffffffffff1673ffffffffffffffffffffffffffffffffffffffff166389b94ea2836040518263ffffffff1660e01b8152600401611e37919061274a565b608060405180830381865afa158015611e54573d6000803e3d6000fd5b505050506040513d601f19601f82011682018060405250810190611e789190613327565b9050919050565b611e8761211f565b600073ffffffffffffffffffffffffffffffffffffffff168173ffffffffffffffffffffffffffffffffffffffff1603611ef95760006040517f1e4fbdf7000000000000000000000000000000000000000000000000000000008152600401611ef091906128bb565b60405180910390fd5b611f02816121a6565b50565b600260005403611f41576040517f3ee5aeb500000000000000000000000000000000000000000000000000000000815260040160405180910390fd5b6002600081905550565b611fc5838473ffffffffffffffffffffffffffffffffffffffff1663a9059cbb8585604051602401611f7e92919061309e565b604051602081830303815290604052915060e01b6020820180517bffffffffffffffffffffffffffffffffffffffffffffffffffffffff838183161783525050505061226c565b505050565b6001600081905550565b6000816012611fe39190613361565b600a611fef91906134c9565b83611ffa91906129b8565b905092915050565b61207e848573ffffffffffffffffffffffffffffffffffffffff166323b872dd86868660405160240161203793929190613514565b604051602081830303815290604052915060e01b6020820180517bffffffffffffffffffffffffffffffffffffffffffffffffffffffff838183161783525050505061226c565b50505050565b60008061209683600001546006611fd4565b905060008360010154426120aa9190612984565b90506000670de0b6b3a764000082600554856120c691906129b8565b6120d091906129b8565b6120da9190612a29565b90506120e78160066120f1565b9350505050919050565b60008160126121009190613361565b600a61210c91906134c9565b836121179190612a29565b905092915050565b612127612303565b73ffffffffffffffffffffffffffffffffffffffff16612145611315565b73ffffffffffffffffffffffffffffffffffffffff16146121a457612168612303565b6040517f118cdaa700000000000000000000000000000000000000000000000000000000815260040161219b91906128bb565b60405180910390fd5b565b6000600160009054906101000a900473ffffffffffffffffffffffffffffffffffffffff16905081600160006101000a81548173ffffffffffffffffffffffffffffffffffffffff021916908373ffffffffffffffffffffffffffffffffffffffff1602179055508173ffffffffffffffffffffffffffffffffffffffff168173ffffffffffffffffffffffffffffffffffffffff167f8be0079c531659141344cd1fd0a4f28419497f9722a3daafe3b4186f6b6457e060405160405180910390a35050565b6000612297828473ffffffffffffffffffffffffffffffffffffffff1661230b90919063ffffffff16565b905060008151141580156122bc5750808060200190518101906122ba91906130f3565b155b156122fe57826040517f5274afe70000000000000000000000000000000000000000000000000000000081526004016122f591906128bb565b60405180910390fd5b505050565b600033905090565b606061231983836000612321565b905092915050565b60608147101561236857306040517fcd78605900000000000000000000000000000000000000000000000000000000815260040161235f91906128bb565b60405180910390fd5b6000808573ffffffffffffffffffffffffffffffffffffffff16848660405161239191906135bc565b60006040518083038185875af1925050503d80600081146123ce576040519150601f19603f3d011682016040523d82523d6000602084013e6123d3565b606091505b50915091506123e38683836123ee565b925050509392505050565b606082612403576123fe8261247d565b612475565b6000825114801561242b575060008473ffffffffffffffffffffffffffffffffffffffff163b145b1561246d57836040517f9996b31500000000000000000000000000000000000000000000000000000000815260040161246491906128bb565b60405180910390fd5b819050612476565b5b9392505050565b6000815111156124905780518082602001fd5b6040517f1425ea4200000000000000000000000000000000000000000000000000000000815260040160405180910390fd5b6040518060800160405280600081526020016000815260200160008152602001600081525090565b600082825260208201905092915050565b7f44697265637420455448206465706f73697473206e6f7420616c6c6f7765642e60008201527f20557365206465706f7369742066756e6374696f6e2e00000000000000000000602082015250565b60006125576036836124ea565b9150612562826124fb565b604082019050919050565b600060208201905081810360008301526125868161254a565b9050919050565b600073ffffffffffffffffffffffffffffffffffffffff82169050919050565b6000819050919050565b60006125d26125cd6125c88461258d565b6125ad565b61258d565b9050919050565b60006125e4826125b7565b9050919050565b60006125f6826125d9565b9050919050565b612606816125eb565b82525050565b600060208201905061262160008301846125fd565b92915050565b6000604051905090565b600080fd5b60006126418261258d565b9050919050565b61265181612636565b811461265c57600080fd5b50565b60008135905061266e81612648565b92915050565b60006020828403121561268a57612689612631565b5b60006126988482850161265f565b91505092915050565b6000819050919050565b6126b4816126a1565b82525050565b60006060820190506126cf60008301866126ab565b6126dc60208301856126ab565b6126e960408301846126ab565b949350505050565b6126fa816126a1565b811461270557600080fd5b50565b600081359050612717816126f1565b92915050565b60006020828403121561273357612732612631565b5b600061274184828501612708565b91505092915050565b600060208201905061275f60008301846126ab565b92915050565b60008115159050919050565b61277a81612765565b82525050565b60006020820190506127956000830184612771565b92915050565b600060a0820190506127b060008301886126ab565b6127bd60208301876126ab565b6127ca60408301866126ab565b6127d76060830185612771565b6127e460808301846126ab565b9695505050505050565b6000806040838503121561280557612804612631565b5b60006128138582860161265f565b925050602061282485828601612708565b9150509250929050565b600061010082019050612844600083018b6126ab565b612851602083018a6126ab565b61285e6040830189612771565b61286b60608301886126ab565b61287860808301876126ab565b61288560a08301866126ab565b61289260c08301856126ab565b61289f60e08301846126ab565b9998505050505050505050565b6128b581612636565b82525050565b60006020820190506128d060008301846128ac565b92915050565b6128df816126a1565b82525050565b6080820160008201516128fb60008501826128d6565b50602082015161290e60208501826128d6565b50604082015161292160408501826128d6565b50606082015161293460608501826128d6565b50505050565b600060808201905061294f60008301846128e5565b92915050565b7f4e487b7100000000000000000000000000000000000000000000000000000000600052601160045260246000fd5b600061298f826126a1565b915061299a836126a1565b92508282039050818111156129b2576129b1612955565b5b92915050565b60006129c3826126a1565b91506129ce836126a1565b92508282026129dc816126a1565b915082820484148315176129f3576129f2612955565b5b5092915050565b7f4e487b7100000000000000000000000000000000000000000000000000000000600052601260045260246000fd5b6000612a34826126a1565b9150612a3f836126a1565b925082612a4f57612a4e6129fa565b5b828204905092915050565b6000612a65826126a1565b9150612a70836126a1565b9250828201905080821115612a8857612a87612955565b5b92915050565b7f436f6e7472616374206973207061757365640000000000000000000000000000600082015250565b6000612ac46012836124ea565b9150612acf82612a8e565b602082019050919050565b60006020820190508181036000830152612af381612ab7565b9050919050565b7f43616e6e6f742077697468647261772077697468206f75747374616e64696e6760008201527f2064656274000000000000000000000000000000000000000000000000000000602082015250565b6000612b566025836124ea565b9150612b6182612afa565b604082019050919050565b60006020820190508181036000830152612b8581612b49565b9050919050565b7f496e73756666696369656e7420636f6c6c61746572616c000000000000000000600082015250565b6000612bc26017836124ea565b9150612bcd82612b8c565b602082019050919050565b60006020820190508181036000830152612bf181612bb5565b9050919050565b7f526570617920616d6f756e74206d75737420626520677265617465722074686160008201527f6e20300000000000000000000000000000000000000000000000000000000000602082015250565b6000612c546023836124ea565b9150612c5f82612bf8565b604082019050919050565b60006020820190508181036000830152612c8381612c47565b9050919050565b7f526570617920616d6f756e742065786365656473206465627400000000000000600082015250565b6000612cc06019836124ea565b9150612ccb82612c8a565b602082019050919050565b60006020820190508181036000830152612cef81612cb3565b9050919050565b7f43616e6e6f742064697361626c6520436f6c6c61746572616c2077697468206f60008201527f75747374616e64696e6720646562740000000000000000000000000000000000602082015250565b6000612d52602f836124ea565b9150612d5d82612cf6565b604082019050919050565b60006020820190508181036000830152612d8181612d45565b9050919050565b7f436f6e7472616374206973206e6f742070617573656400000000000000000000600082015250565b6000612dbe6016836124ea565b9150612dc982612d88565b602082019050919050565b60006020820190508181036000830152612ded81612db1565b9050919050565b7f4e6f20636f6c6c61746572616c206465706f7369746564000000000000000000600082015250565b6000612e2a6017836124ea565b9150612e3582612df4565b602082019050919050565b60006020820190508181036000830152612e5981612e1d565b9050919050565b7f54686520436f6c6c61746572616c20616d6f756e74206d75737420626520677260008201527f6561746572207468616e20302e00000000000000000000000000000000000000602082015250565b6000612ebc602d836124ea565b9150612ec782612e60565b604082019050919050565b60006020820190508181036000830152612eeb81612eaf565b9050919050565b7f436f6c6c61746572616c206973206e6f742020656e61626c6564000000000000600082015250565b6000612f28601a836124ea565b9150612f3382612ef2565b602082019050919050565b60006020820190508181036000830152612f5781612f1b565b9050919050565b7f426f72726f7720616d6f756e742065786365656473206d6178696d756d20616c60008201527f6c6f776564000000000000000000000000000000000000000000000000000000602082015250565b6000612fba6025836124ea565b9150612fc582612f5e565b604082019050919050565b60006020820190508181036000830152612fe981612fad565b9050919050565b600081519050612fff816126f1565b92915050565b60006020828403121561301b5761301a612631565b5b600061302984828501612ff0565b91505092915050565b7f496e73756666696369656e742055534443206c69717569646974790000000000600082015250565b6000613068601b836124ea565b915061307382613032565b602082019050919050565b600060208201905081810360008301526130978161305b565b9050919050565b60006040820190506130b360008301856128ac565b6130c060208301846126ab565b9392505050565b6130d081612765565b81146130db57600080fd5b50565b6000815190506130ed816130c7565b92915050565b60006020828403121561310957613108612631565b5b6000613117848285016130de565b91505092915050565b7f55534443207472616e73666572206661696c6564000000000000000000000000600082015250565b60006131566014836124ea565b915061316182613120565b602082019050919050565b6000602082019050818103600083015261318581613149565b9050919050565b7f496e73756666696369656e7420555344432062616c616e636520696e20636f6e60008201527f7472616374000000000000000000000000000000000000000000000000000000602082015250565b60006131e86025836124ea565b91506131f38261318c565b604082019050919050565b60006020820190508181036000830152613217816131db565b9050919050565b600080fd5b6000601f19601f8301169050919050565b7f4e487b7100000000000000000000000000000000000000000000000000000000600052604160045260246000fd5b61326c82613223565b810181811067ffffffffffffffff8211171561328b5761328a613234565b5b80604052505050565b600061329e612627565b90506132aa8282613263565b919050565b6000608082840312156132c5576132c461321e565b5b6132cf6080613294565b905060006132df84828501612ff0565b60008301525060206132f384828501612ff0565b602083015250604061330784828501612ff0565b604083015250606061331b84828501612ff0565b60608301525092915050565b60006080828403121561333d5761333c612631565b5b600061334b848285016132af565b91505092915050565b600060ff82169050919050565b600061336c82613354565b915061337783613354565b9250828203905060ff8111156133905761338f612955565b5b92915050565b60008160011c9050919050565b6000808291508390505b60018511156133ed578086048111156133c9576133c8612955565b5b60018516156133d85780820291505b80810290506133e685613396565b94506133ad565b94509492505050565b60008261340657600190506134c2565b8161341457600090506134c2565b816001811461342a576002811461343457613463565b60019150506134c2565b60ff84111561344657613445612955565b5b8360020a91508482111561345d5761345c612955565b5b506134c2565b5060208310610133831016604e8410600b84101617156134985782820a90508381111561349357613492612955565b5b6134c2565b6134a584848460016133a3565b925090508184048111156134bc576134bb612955565b5b81810290505b9392505050565b60006134d4826126a1565b91506134df83613354565b925061350c7fffffffffffffffffffffffffffffffffffffffffffffffffffffffffffffffff84846133f6565b905092915050565b600060608201905061352960008301866128ac565b61353660208301856128ac565b61354360408301846126ab565b949350505050565b600081519050919050565b600081905092915050565b60005b8381101561357f578082015181840152602081019050613564565b60008484015250505050565b60006135968261354b565b6135a08185613556565b93506135b0818560208601613561565b80840191505092915050565b60006135c8828461358b565b91508190509291505056fea264697066735822122009ce51202edec4d46622f07417b48adbe016aff4d4c45c656448d59fb11757bd64736f6c63430008180033",
  "linkReferences": {},
  "deployedLinkReferences": {}
}