{
  "_format": "hh-sol-artifact-1",
  "contractName": "PriceFeedMock",
  "sourceName": "contracts/PriceFeedMock.sol",
  "abi": [
    {
      "inputs": [
        {
          "internalType": "uint256",
          "name": "pair_id_1",
          "type": "uint256"
        },
        {
          "internalType": "uint256",
          "name": "pair_id_2",
          "type": "uint256"
        },
        {
          "internalType": "uint256",
          "name": "operation",
          "type": "uint256"
        }
      ],
      "name": "getDerivedSvalue",
      "outputs": [
        {
          "components": [
            {
              "internalType": "int256",
              "name": "roundDifference",
              "type": "int256"
            },
            {
              "internalType": "uint256",
              "name": "derivedPrice",
              "type": "uint256"
            },
            {
              "internalType": "uint256",
              "name": "decimals",
              "type": "uint256"
            }
          ],
          "internalType": "struct ISupraSValueFeed.derivedData",
          "name": "",
          "type": "tuple"
        }
      ],
      "stateMutability": "view",
      "type": "function"
    },
    {
      "inputs": [
        {
          "internalType": "uint256",
          "name": "_pairIndex",
          "type": "uint256"
        }
      ],
      "name": "getSvalue",
      "outputs": [
        {
          "components": [
            {
              "internalType": "uint256",
              "name": "round",
              "type": "uint256"
            },
            {
              "internalType": "uint256",
              "name": "decimals",
              "type": "uint256"
            },
            {
              "internalType": "uint256",
              "name": "time",
              "type": "uint256"
            },
            {
              "internalType": "uint256",
              "name": "price",
              "type": "uint256"
            }
          ],
          "internalType": "struct ISupraSValueFeed.priceFeed",
          "name": "",
          "type": "tuple"
        }
      ],
      "stateMutability": "view",
      "type": "function"
    },
    {
      "inputs": [
        {
          "internalType": "uint256[]",
          "name": "_pairIndexes",
          "type": "uint256[]"
        }
      ],
      "name": "getSvalues",
      "outputs": [
        {
          "components": [
            {
              "internalType": "uint256",
              "name": "round",
              "type": "uint256"
            },
            {
              "internalType": "uint256",
              "name": "decimals",
              "type": "uint256"
            },
            {
              "internalType": "uint256",
              "name": "time",
              "type": "uint256"
            },
            {
              "internalType": "uint256",
              "name": "price",
              "type": "uint256"
            }
          ],
          "internalType": "struct ISupraSValueFeed.priceFeed[]",
          "name": "",
          "type": "tuple[]"
        }
      ],
      "stateMutability": "view",
      "type": "function"
    },
    {
      "inputs": [
        {
          "internalType": "uint256",
          "name": "_tradingPair",
          "type": "uint256"
        }
      ],
      "name": "getTimestamp",
      "outputs": [
        {
          "internalType": "uint256",
          "name": "",
          "type": "uint256"
        }
      ],
      "stateMutability": "view",
      "type": "function"
    }
  ],
  "bytecode": "0x608060405234801561001057600080fd5b506107ff806100206000396000f3fe608060405234801561001057600080fd5b506004361061004c5760003560e01c806389b94ea214610051578063a767041c14610081578063b633620c146100b1578063f48bf177146100e1575b600080fd5b61006b60048036038101906100669190610333565b610111565b60405161007891906103c4565b60405180910390f35b61009b600480360381019061009691906103df565b61015f565b6040516100a8919061048d565b60405180910390f35b6100cb60048036038101906100c69190610333565b6101af565b6040516100d891906104b7565b60405180910390f35b6100fb60048036038101906100f6919061062b565b6101b9565b6040516101089190610778565b60405180910390f35b6101196102a0565b6101216102a0565b602e831461013757670de0b6b3a7640000610142565b688fa8233fb2c12800005b68ffffffffffffffffff1681606001818152505080915050919050565b6101676102c8565b61016f6102c8565b602e851461018557670de0b6b3a7640000610190565b688fa8233fb2c12800005b68ffffffffffffffffff16816020018181525050809150509392505050565b6000429050919050565b60606000825167ffffffffffffffff8111156101d8576101d76104e8565b5b60405190808252806020026020018201604052801561021157816020015b6101fe6102a0565b8152602001906001900390816101f65790505b50905060005b835181101561029657602e8482815181106102355761023461079a565b5b60200260200101511461025057670de0b6b3a764000061025b565b688fa8233fb2c12800005b68ffffffffffffffffff168282815181106102795761027861079a565b5b602002602001015160600181815250508080600101915050610217565b5080915050919050565b6040518060800160405280600081526020016000815260200160008152602001600081525090565b60405180606001604052806000815260200160008152602001600081525090565b6000604051905090565b600080fd5b600080fd5b6000819050919050565b610310816102fd565b811461031b57600080fd5b50565b60008135905061032d81610307565b92915050565b600060208284031215610349576103486102f3565b5b60006103578482850161031e565b91505092915050565b610369816102fd565b82525050565b6080820160008201516103856000850182610360565b5060208201516103986020850182610360565b5060408201516103ab6040850182610360565b5060608201516103be6060850182610360565b50505050565b60006080820190506103d9600083018461036f565b92915050565b6000806000606084860312156103f8576103f76102f3565b5b60006104068682870161031e565b93505060206104178682870161031e565b92505060406104288682870161031e565b9150509250925092565b6000819050919050565b61044581610432565b82525050565b606082016000820151610461600085018261043c565b5060208201516104746020850182610360565b5060408201516104876040850182610360565b50505050565b60006060820190506104a2600083018461044b565b92915050565b6104b1816102fd565b82525050565b60006020820190506104cc60008301846104a8565b92915050565b600080fd5b6000601f19601f8301169050919050565b7f4e487b7100000000000000000000000000000000000000000000000000000000600052604160045260246000fd5b610520826104d7565b810181811067ffffffffffffffff8211171561053f5761053e6104e8565b5b80604052505050565b60006105526102e9565b905061055e8282610517565b919050565b600067ffffffffffffffff82111561057e5761057d6104e8565b5b602082029050602081019050919050565b600080fd5b60006105a76105a284610563565b610548565b905080838252602082019050602084028301858111156105ca576105c961058f565b5b835b818110156105f357806105df888261031e565b8452602084019350506020810190506105cc565b5050509392505050565b600082601f830112610612576106116104d2565b5b8135610622848260208601610594565b91505092915050565b600060208284031215610641576106406102f3565b5b600082013567ffffffffffffffff81111561065f5761065e6102f8565b5b61066b848285016105fd565b91505092915050565b600081519050919050565b600082825260208201905092915050565b6000819050602082019050919050565b6080820160008201516106b66000850182610360565b5060208201516106c96020850182610360565b5060408201516106dc6040850182610360565b5060608201516106ef6060850182610360565b50505050565b600061070183836106a0565b60808301905092915050565b6000602082019050919050565b600061072582610674565b61072f818561067f565b935061073a83610690565b8060005b8381101561076b57815161075288826106f5565b975061075d8361070d565b92505060018101905061073e565b5085935050505092915050565b60006020820190508181036000830152610792818461071a565b905092915050565b7f4e487b7100000000000000000000000000000000000000000000000000000000600052603260045260246000fdfea2646970667358221220cf276b5f7590c2677ef86f9f95f1ec20c39e82ee7648a31cb02b0c1f2d90c76664736f6c63430008180033",
  "linkReferences": {},
  "deployedLinkReferences": {}
}