{"contracts/Lending.sol":{"Lending":{"abi":[{"inputs":[{"internalType":"address","name":"_usdcToken","type":"address"},{"internalType":"address","name":"_wethToken","type":"address"},{"internalType":"address","name":"_sValueFeed","type":"address"},{"internalType":"uint256","name":"_interestRate","type":"uint256"},{"internalType":"bool","name":"isTesting","type":"bool"}],"stateMutability":"nonpayable","type":"constructor"},{"inputs":[{"internalType":"address","name":"target","type":"address"}],"name":"AddressEmptyCode","type":"error"},{"inputs":[{"internalType":"address","name":"account","type":"address"}],"name":"AddressInsufficientBalance","type":"error"},{"inputs":[],"name":"FailedInnerCall","type":"error"},{"inputs":[{"internalType":"address","name":"owner","type":"address"}],"name":"OwnableInvalidOwner","type":"error"},{"inputs":[{"internalType":"address","name":"account","type":"address"}],"name":"OwnableUnauthorizedAccount","type":"error"},{"inputs":[],"name":"ReentrancyGuardReentrantCall","type":"error"},{"inputs":[{"internalType":"address","name":"token","type":"address"}],"name":"SafeERC20FailedOperation","type":"error"},{"anonymous":false,"inputs":[{"indexed":true,"internalType":"address","name":"user","type":"address"},{"indexed":false,"internalType":"uint256","name":"amount","type":"uint256"}],"name":"CollateralDeposited","type":"event"},{"anonymous":false,"inputs":[{"indexed":true,"internalType":"address","name":"user","type":"address"}],"name":"CollateralDisabled","type":"event"},{"anonymous":false,"inputs":[{"indexed":true,"internalType":"address","name":"user","type":"address"}],"name":"CollateralEnabled","type":"event"},{"anonymous":false,"inputs":[{"indexed":true,"internalType":"address","name":"user","type":"address"},{"indexed":false,"internalType":"uint256","name":"amount","type":"uint256"}],"name":"CollateralWithdrawn","type":"event"},{"anonymous":false,"inputs":[{"indexed":true,"internalType":"address","name":"previousOwner","type":"address"},{"indexed":true,"internalType":"address","name":"newOwner","type":"address"}],"name":"OwnershipTransferred","type":"event"},{"anonymous":false,"inputs":[{"indexed":true,"internalType":"address","name":"admin","type":"address"}],"name":"Paused","type":"event"},{"anonymous":false,"inputs":[{"indexed":true,"internalType":"address","name":"user","type":"address"},{"indexed":false,"internalType":"uint256","name":"amount","type":"uint256"}],"name":"USDCBorrowed","type":"event"},{"anonymous":false,"inputs":[{"indexed":true,"internalType":"address","name":"user","type":"address"},{"indexed":false,"internalType":"uint256","name":"amount","type":"uint256"}],"name":"USDCRepaid","type":"event"},{"anonymous":false,"inputs":[{"indexed":true,"internalType":"address","name":"admin","type":"address"}],"name":"Unpaused","type":"event"},{"inputs":[],"name":"SECONDS_IN_YEAR","outputs":[{"internalType":"uint256","name":"","type":"uint256"}],"stateMutability":"view","type":"function"},{"inputs":[{"internalType":"address","name":"","type":"address"}],"name":"accounts","outputs":[{"internalType":"uint256","name":"collateralAmount","type":"uint256"},{"internalType":"uint256","name":"debtAmount","type":"uint256"},{"internalType":"uint256","name":"ethPrice","type":"uint256"},{"internalType":"bool","name":"isCollateralEnabled","type":"bool"},{"internalType":"uint256","name":"maxBorrow","type":"uint256"}],"stateMutability":"view","type":"function"},{"inputs":[{"internalType":"uint256","name":"amount","type":"uint256"}],"name":"borrow","outputs":[],"stateMutability":"nonpayable","type":"function"},{"inputs":[{"internalType":"address","name":"","type":"address"}],"name":"borrowings","outputs":[{"internalType":"uint256","name":"principal","type":"uint256"},{"internalType":"uint256","name":"lastBorrowTime","type":"uint256"},{"internalType":"uint256","name":"accruedInterest","type":"uint256"}],"stateMutability":"view","type":"function"},{"inputs":[{"internalType":"address","name":"user","type":"address"}],"name":"calculateHealthFactor","outputs":[{"internalType":"uint256","name":"","type":"uint256"}],"stateMutability":"view","type":"function"},{"inputs":[{"internalType":"address","name":"user","type":"address"}],"name":"calculateMaxBorrow","outputs":[{"internalType":"uint256","name":"","type":"uint256"}],"stateMutability":"nonpayable","type":"function"},{"inputs":[{"internalType":"uint256","name":"_amount","type":"uint256"}],"name":"deposit","outputs":[],"stateMutability":"nonpayable","type":"function"},{"inputs":[],"name":"disableCollateral","outputs":[],"stateMutability":"nonpayable","type":"function"},{"inputs":[],"name":"enableCollateral","outputs":[],"stateMutability":"nonpayable","type":"function"},{"inputs":[{"internalType":"address","name":"user","type":"address"}],"name":"getAccountInfo","outputs":[{"internalType":"uint256","name":"collateralAmount","type":"uint256"},{"internalType":"uint256","name":"debtAmount","type":"uint256"},{"internalType":"bool","name":"isCollateralEnabled","type":"bool"},{"internalType":"uint256","name":"ethPrice","type":"uint256"},{"internalType":"uint256","name":"collateralValue","type":"uint256"},{"internalType":"uint256","name":"healthFactor","type":"uint256"},{"internalType":"uint256","name":"maxBorrow","type":"uint256"},{"internalType":"uint256","name":"interRate","type":"uint256"}],"stateMutability":"view","type":"function"},{"inputs":[{"internalType":"uint256","name":"collateralAmount","type":"uint256"}],"name":"getCollateralValue","outputs":[{"internalType":"uint256","name":"","type":"uint256"}],"stateMutability":"view","type":"function"},{"inputs":[{"internalType":"address","name":"borrower","type":"address"}],"name":"getDebtInfo","outputs":[{"internalType":"uint256","name":"lastBorrowTime","type":"uint256"},{"internalType":"uint256","name":"principal","type":"uint256"},{"internalType":"uint256","name":"accruedInterest","type":"uint256"}],"stateMutability":"view","type":"function"},{"inputs":[],"name":"getEthPrice","outputs":[{"internalType":"uint256","name":"","type":"uint256"}],"stateMutability":"view","type":"function"},{"inputs":[{"internalType":"address","name":"user","type":"address"},{"internalType":"uint256","name":"amountToBorrow","type":"uint256"}],"name":"getHealthFactor","outputs":[{"internalType":"uint256","name":"","type":"uint256"}],"stateMutability":"view","type":"function"},{"inputs":[{"internalType":"uint256","name":"_priceIndex","type":"uint256"}],"name":"getPrice","outputs":[{"components":[{"internalType":"uint256","name":"round","type":"uint256"},{"internalType":"uint256","name":"decimals","type":"uint256"},{"internalType":"uint256","name":"time","type":"uint256"},{"internalType":"uint256","name":"price","type":"uint256"}],"internalType":"struct ISupraSValueFeed.priceFeed","name":"","type":"tuple"}],"stateMutability":"view","type":"function"},{"inputs":[],"name":"getUsdcUsdPrice","outputs":[{"internalType":"uint256","name":"","type":"uint256"}],"stateMutability":"view","type":"function"},{"inputs":[],"name":"interestRate","outputs":[{"internalType":"uint256","name":"","type":"uint256"}],"stateMutability":"view","type":"function"},{"inputs":[],"name":"owner","outputs":[{"internalType":"address","name":"","type":"address"}],"stateMutability":"view","type":"function"},{"inputs":[],"name":"pause","outputs":[],"stateMutability":"nonpayable","type":"function"},{"inputs":[],"name":"paused","outputs":[{"internalType":"bool","name":"","type":"bool"}],"stateMutability":"view","type":"function"},{"inputs":[],"name":"renounceOwnership","outputs":[],"stateMutability":"nonpayable","type":"function"},{"inputs":[{"internalType":"uint256","name":"amount","type":"uint256"}],"name":"repay","outputs":[],"stateMutability":"nonpayable","type":"function"},{"inputs":[{"internalType":"address","name":"newOwner","type":"address"}],"name":"transferOwnership","outputs":[],"stateMutability":"nonpayable","type":"function"},{"inputs":[],"name":"unpause","outputs":[],"stateMutability":"nonpayable","type":"function"},{"inputs":[],"name":"usdcToken","outputs":[{"internalType":"contract IERC20","name":"","type":"address"}],"stateMutability":"view","type":"function"},{"inputs":[],"name":"wethToken","outputs":[{"internalType":"contract IERC20","name":"","type":"address"}],"stateMutability":"view","type":"function"},{"inputs":[{"internalType":"uint256","name":"amount","type":"uint256"}],"name":"withdraw","outputs":[],"stateMutability":"nonpayable","type":"function"},{"inputs":[{"internalType":"uint256","name":"amount","type":"uint256"}],"name":"withdrawUSDC","outputs":[],"stateMutability":"nonpayable","type":"function"},{"stateMutability":"payable","type":"receive"}],"evm":{"bytecode":{"linkReferences":{},"object":"60806040523480156200001157600080fd5b506040516200469c3803806200469c83398181016040528101906200003791906200056a565b336001600081905550600073ffffffffffffffffffffffffffffffffffffffff168173ffffffffffffffffffffffffffffffffffffffff1603620000b55760006040517f1e4fbdf7000000000000000000000000000000000000000000000000000000008152600401620000ac919062000603565b60405180910390fd5b620000c681620002b260201b60201c565b5084600260006101000a81548173ffffffffffffffffffffffffffffffffffffffff021916908373ffffffffffffffffffffffffffffffffffffffff16021790555083600360006101000a81548173ffffffffffffffffffffffffffffffffffffffff021916908373ffffffffffffffffffffffffffffffffffffffff160217905550816004819055506301e13380670de0b6b3a76400006004546200016d91906200064f565b620001799190620006c9565b600581905550620001c86040518060400160405280600d81526020017f7065725365636f6e6452617465000000000000000000000000000000000000008152506005546200037860201b60201c565b620002116040518060400160405280600c81526020017f696e7465726573745261746500000000000000000000000000000000000000008152506004546200037860201b60201c565b6001151581151503620002655782600760006101000a81548173ffffffffffffffffffffffffffffffffffffffff021916908373ffffffffffffffffffffffffffffffffffffffff160217905550620002a7565b82600760006101000a81548173ffffffffffffffffffffffffffffffffffffffff021916908373ffffffffffffffffffffffffffffffffffffffff1602179055505b50505050506200080f565b6000600160009054906101000a900473ffffffffffffffffffffffffffffffffffffffff16905081600160006101000a81548173ffffffffffffffffffffffffffffffffffffffff021916908373ffffffffffffffffffffffffffffffffffffffff1602179055508173ffffffffffffffffffffffffffffffffffffffff168173ffffffffffffffffffffffffffffffffffffffff167f8be0079c531659141344cd1fd0a4f28419497f9722a3daafe3b4186f6b6457e060405160405180910390a35050565b6200041a828260405160240162000391929190620007ac565b6040516020818303038152906040527fb60e72cc000000000000000000000000000000000000000000000000000000007bffffffffffffffffffffffffffffffffffffffffffffffffffffffff19166020820180517bffffffffffffffffffffffffffffffffffffffffffffffffffffffff83818316178352505050506200041e60201b60201c565b5050565b62000444816200043f6200044760201b6200234f176200046860201b60201c565b60201c565b50565b60006a636f6e736f6c652e6c6f679050600080835160208501845afa505050565b6200047c60201b62002bc817819050919050565b62000486620007e0565b565b600080fd5b600073ffffffffffffffffffffffffffffffffffffffff82169050919050565b6000620004ba826200048d565b9050919050565b620004cc81620004ad565b8114620004d857600080fd5b50565b600081519050620004ec81620004c1565b92915050565b6000819050919050565b6200050781620004f2565b81146200051357600080fd5b50565b6000815190506200052781620004fc565b92915050565b60008115159050919050565b62000544816200052d565b81146200055057600080fd5b50565b600081519050620005648162000539565b92915050565b600080600080600060a0868803121562000589576200058862000488565b5b60006200059988828901620004db565b9550506020620005ac88828901620004db565b9450506040620005bf88828901620004db565b9350506060620005d28882890162000516565b9250506080620005e58882890162000553565b9150509295509295909350565b620005fd81620004ad565b82525050565b60006020820190506200061a6000830184620005f2565b92915050565b7f4e487b7100000000000000000000000000000000000000000000000000000000600052601160045260246000fd5b60006200065c82620004f2565b91506200066983620004f2565b92508282026200067981620004f2565b9150828204841483151762000693576200069262000620565b5b5092915050565b7f4e487b7100000000000000000000000000000000000000000000000000000000600052601260045260246000fd5b6000620006d682620004f2565b9150620006e383620004f2565b925082620006f657620006f56200069a565b5b828204905092915050565b600081519050919050565b600082825260208201905092915050565b60005b838110156200073d57808201518184015260208101905062000720565b60008484015250505050565b6000601f19601f8301169050919050565b6000620007678262000701565b6200077381856200070c565b9350620007858185602086016200071d565b620007908162000749565b840191505092915050565b620007a681620004f2565b82525050565b60006040820190508181036000830152620007c881856200075a565b9050620007d960208301846200079b565b9392505050565b7f4e487b7100000000000000000000000000000000000000000000000000000000600052605160045260246000fd5b613e7d806200081f6000396000f3fe6080604052600436106101bb5760003560e01c80637b510fe8116100ec5780639ce625f71161008a578063cdb4aef011610064578063cdb4aef01461063b578063db81f99b14610666578063e75722301461068f578063f2fde38b146106cc576101fb565b80639ce625f7146105ac578063b6b55f25146105e9578063c5ebeaec14610612576101fb565b80638456cb59116100c65780638456cb59146105145780638da5cb5b1461052b57806396f159ba146105565780639b09dd6214610595576101fb565b80637b510fe8146104685780637c3a00fd146104ac57806382fee08f146104d7576101fb565b806355c81369116101595780635e5c06e2116101335780635e5c06e2146103a8578063631fa8a4146103e957806367c9b01714610426578063715018a614610451576101fb565b806355c81369146103155780635c975abb146103525780635dcc93911461037d576101fb565b8063371fd8e611610195578063371fd8e6146102935780633a2c08a7146102bc5780633f4ba83a146102d35780634b57b0be146102ea576101fb565b806311eac855146102005780632aa5270e1461022b5780632e1a7d4d1461026a576101fb565b366101fb576040517f08c379a00000000000000000000000000000000000000000000000000000000081526004016101f290612c7d565b60405180910390fd5b600080fd5b34801561020c57600080fd5b506102156106f5565b6040516102229190612d1c565b60405180910390f35b34801561023757600080fd5b50610252600480360381019061024d9190612d84565b61071b565b60405161026193929190612dca565b60405180910390f35b34801561027657600080fd5b50610291600480360381019061028c9190612e2d565b6107fd565b005b34801561029f57600080fd5b506102ba60048036038101906102b59190612e2d565b6109f2565b005b3480156102c857600080fd5b506102d1610cdb565b005b3480156102df57600080fd5b506102e8610e50565b005b3480156102f657600080fd5b506102ff610f07565b60405161030c9190612d1c565b60405180910390f35b34801561032157600080fd5b5061033c60048036038101906103379190612d84565b610f2d565b6040516103499190612e5a565b60405180910390f35b34801561035e57600080fd5b50610367611181565b6040516103749190612e90565b60405180910390f35b34801561038957600080fd5b50610392611198565b60405161039f9190612e5a565b60405180910390f35b3480156103b457600080fd5b506103cf60048036038101906103ca9190612d84565b6111a0565b6040516103e0959493929190612eab565b60405180910390f35b3480156103f557600080fd5b50610410600480360381019061040b9190612efe565b6111e3565b60405161041d9190612e5a565b60405180910390f35b34801561043257600080fd5b5061043b611297565b6040516104489190612e5a565b60405180910390f35b34801561045d57600080fd5b506104666112b1565b005b34801561047457600080fd5b5061048f600480360381019061048a9190612d84565b6112c5565b6040516104a3989796959493929190612f3e565b60405180910390f35b3480156104b857600080fd5b506104c16113ce565b6040516104ce9190612e5a565b60405180910390f35b3480156104e357600080fd5b506104fe60048036038101906104f99190612e2d565b6113d4565b60405161050b9190612e5a565b60405180910390f35b34801561052057600080fd5b50610529611421565b005b34801561053757600080fd5b506105406114d9565b60405161054d9190612fcb565b60405180910390f35b34801561056257600080fd5b5061057d60048036038101906105789190612d84565b611503565b60405161058c93929190612dca565b60405180910390f35b3480156105a157600080fd5b506105aa61152d565b005b3480156105b857600080fd5b506105d360048036038101906105ce9190612d84565b6116a2565b6040516105e09190612e5a565b60405180910390f35b3480156105f557600080fd5b50610610600480360381019061060b9190612e2d565b61174c565b005b34801561061e57600080fd5b5061063960048036038101906106349190612e2d565b6118f2565b005b34801561064757600080fd5b5061065061201a565b60405161065d9190612e5a565b60405180910390f35b34801561067257600080fd5b5061068d60048036038101906106889190612e2d565b612034565b005b34801561069b57600080fd5b506106b660048036038101906106b19190612e2d565b61221e565b6040516106c3919061304a565b60405180910390f35b3480156106d857600080fd5b506106f360048036038101906106ee9190612d84565b6122c9565b005b600260009054906101000a900473ffffffffffffffffffffffffffffffffffffffff1681565b600080600080600660008673ffffffffffffffffffffffffffffffffffffffff1673ffffffffffffffffffffffffffffffffffffffff16815260200190815260200160002060405180606001604052908160008201548152602001600182015481526020016002820154815250509050600081602001514261079d9190613094565b90506000670de0b6b3a76400008260055485600001516107bd91906130c8565b6107c791906130c8565b6107d19190613139565b9050826020015183600001518285604001516107ed919061316a565b9550955095505050509193909250565b600a60009054906101000a900460ff161561084d576040517f08c379a0000000000000000000000000000000000000000000000000000000008152600401610844906131ea565b60405180910390fd5b610855612370565b6000600960003373ffffffffffffffffffffffffffffffffffffffff1673ffffffffffffffffffffffffffffffffffffffff168152602001908152602001600020905060008160010154146108df576040517f08c379a00000000000000000000000000000000000000000000000000000000081526004016108d69061327c565b60405180910390fd5b8181600001541015610926576040517f08c379a000000000000000000000000000000000000000000000000000000000815260040161091d906132e8565b60405180910390fd5b8181600001600082825461093a9190613094565b9250508190555061098e3383600360009054906101000a900473ffffffffffffffffffffffffffffffffffffffff1673ffffffffffffffffffffffffffffffffffffffff166123b69092919063ffffffff16565b61099733610f2d565b503373ffffffffffffffffffffffffffffffffffffffff167fc30fcfbcaac9e0deffa719714eaa82396ff506a0d0d0eebe170830177288715d836040516109de9190612e5a565b60405180910390a2506109ef612435565b50565b600a60009054906101000a900460ff1615610a42576040517f08c379a0000000000000000000000000000000000000000000000000000000008152600401610a39906131ea565b60405180910390fd5b610a4a612370565b6000600960003373ffffffffffffffffffffffffffffffffffffffff1673ffffffffffffffffffffffffffffffffffffffff16815260200190815260200160002090506000600660003373ffffffffffffffffffffffffffffffffffffffff1673ffffffffffffffffffffffffffffffffffffffff168152602001908152602001600020905060008311610b13576040517f08c379a0000000000000000000000000000000000000000000000000000000008152600401610b0a9061337a565b60405180910390fd5b8282600101541015610b5a576040517f08c379a0000000000000000000000000000000000000000000000000000000008152600401610b51906133e6565b60405180910390fd5b6000610b6784600661243f565b9050610bb8333086600260009054906101000a900473ffffffffffffffffffffffffffffffffffffffff1673ffffffffffffffffffffffffffffffffffffffff1661246d909392919063ffffffff16565b83836001016000828254610bcc9190613094565b925050819055506000610bde836124ef565b905080836002016000828254610bf4919061316a565b9250508190555082600201548210610c4f576000836002015483610c189190613094565b9050610c2581600661255c565b846000016000828254610c389190613094565b925050819055506000846002018190555050610c6b565b81836002016000828254610c639190613094565b925050819055505b428360010181905550610c7d33610f2d565b503373ffffffffffffffffffffffffffffffffffffffff167f8b40a19342574242efcf69e217bf200f74bbce53a499c9498b1d8414779360d286604051610cc49190612e5a565b60405180910390a250505050610cd8612435565b50565b600a60009054906101000a900460ff1615610d2b576040517f08c379a0000000000000000000000000000000000000000000000000000000008152600401610d22906131ea565b60405180910390fd5b6000600960003373ffffffffffffffffffffffffffffffffffffffff1673ffffffffffffffffffffffffffffffffffffffff1681526020019081526020016000206001015414610db0576040517f08c379a0000000000000000000000000000000000000000000000000000000008152600401610da790613478565b60405180910390fd5b6000600960003373ffffffffffffffffffffffffffffffffffffffff1673ffffffffffffffffffffffffffffffffffffffff16815260200190815260200160002060030160006101000a81548160ff0219169083151502179055503373ffffffffffffffffffffffffffffffffffffffff167f192895f9a14975ce177e9612fd4f4459e31169d79cb650596bcce0622bd70a9260405160405180910390a2565b610e5861258a565b600a60009054906101000a900460ff16610ea7576040517f08c379a0000000000000000000000000000000000000000000000000000000008152600401610e9e906134e4565b60405180910390fd5b6000600a60006101000a81548160ff0219169083151502179055503373ffffffffffffffffffffffffffffffffffffffff167f5db9ee0a495bf2e6ff9c91a7834c1ba4fdd244a5e8aa4e537bd38aeae4b073aa60405160405180910390a2565b600360009054906101000a900473ffffffffffffffffffffffffffffffffffffffff1681565b600080600960008473ffffffffffffffffffffffffffffffffffffffff1673ffffffffffffffffffffffffffffffffffffffff16815260200190815260200160002090506000670de0b6b3a7640000610f84611297565b8360000154610f9391906130c8565b610f9d9190613139565b90506000600282610fae9190613139565b90506000610fc18460010154600661243f565b9050808211610fd757600094505050505061117c565b8082610fe39190613094565b84600401819055506110296040518060400160405280601581526020017f496e2063616c63756c6174654d6178426f72726f770000000000000000000000815250612611565b61106c6040518060400160405280601881526020017f6163636f756e742e636f6c6c61746572616c416d6f756e74000000000000000081525085600001546126aa565b6110af6040518060400160405280601281526020017f6163636f756e742e64656274416d6f756e74000000000000000000000000000081525085600101546126aa565b6110ee6040518060400160405280600f81526020017f636f6c6c61746572616c56616c75650000000000000000000000000000000000815250846126aa565b61112d6040518060400160405280600d81526020017f6d6178426f72726f7761626c6500000000000000000000000000000000000000815250836126aa565b6111706040518060400160405280601181526020017f6163636f756e742e6d6178426f72726f7700000000000000000000000000000081525085600401546126aa565b83600401549450505050505b919050565b6000600a60009054906101000a900460ff16905090565b6301e1338081565b60096020528060005260406000206000915090508060000154908060010154908060020154908060030160009054906101000a900460ff16908060040154905085565b600080600960008573ffffffffffffffffffffffffffffffffffffffff1673ffffffffffffffffffffffffffffffffffffffff1681526020019081526020016000209050600061123682600001546113d4565b9050600084836001015461124a919061316a565b90506000810361127f577fffffffffffffffffffffffffffffffffffffffffffffffffffffffffffffffff9350505050611291565b808261128b9190613139565b93505050505b92915050565b6000806112a4602e61221e565b6060015190508091505090565b6112b961258a565b6112c36000612746565b565b6000806000806000806000806000600960008b73ffffffffffffffffffffffffffffffffffffffff1673ffffffffffffffffffffffffffffffffffffffff168152602001908152602001600020905080600001549850806001015497508060030160009054906101000a900460ff16965061133e611297565b9550611349336116a2565b935061138a6040518060400160405280601481526020017f2d2d2d2d2d2d2d206865616c7468466163746f72000000000000000000000000815250856126aa565b670de0b6b3a764000061139b611297565b82600001546113aa91906130c8565b6113b49190613139565b945080600401549250600454915050919395975091939597565b60045481565b6000806113df611297565b90506000670de0b6b3a7640000826113f79190613139565b670de0b6b3a76400008561140b9190613139565b61141591906130c8565b90508092505050919050565b61142961258a565b600a60009054906101000a900460ff1615611479576040517f08c379a0000000000000000000000000000000000000000000000000000000008152600401611470906131ea565b60405180910390fd5b6001600a60006101000a81548160ff0219169083151502179055503373ffffffffffffffffffffffffffffffffffffffff167f62e78cea01bee320cd4e420270b5ea74000d11b0c9f74754ebdbfc544b05a25860405160405180910390a2565b6000600160009054906101000a900473ffffffffffffffffffffffffffffffffffffffff16905090565b60066020528060005260406000206000915090508060000154908060010154908060020154905083565b600a60009054906101000a900460ff161561157d576040517f08c379a0000000000000000000000000000000000000000000000000000000008152600401611574906131ea565b60405180910390fd5b6000600960003373ffffffffffffffffffffffffffffffffffffffff1673ffffffffffffffffffffffffffffffffffffffff1681526020019081526020016000206000015411611602576040517f08c379a00000000000000000000000000000000000000000000000000000000081526004016115f990613550565b60405180910390fd5b6001600960003373ffffffffffffffffffffffffffffffffffffffff1673ffffffffffffffffffffffffffffffffffffffff16815260200190815260200160002060030160006101000a81548160ff0219169083151502179055503373ffffffffffffffffffffffffffffffffffffffff167f689fa3f4fd14b3753d33c934f2648d75824d79933d875ed4ae8feb3e8622aea060405160405180910390a2565b600080600960008473ffffffffffffffffffffffffffffffffffffffff1673ffffffffffffffffffffffffffffffffffffffff1681526020019081526020016000209050600081600101540361171b577fffffffffffffffffffffffffffffffffffffffffffffffffffffffffffffffff915050611747565b6000816004015490506117338260010154600661243f565b82600401546117429190613139565b925050505b919050565b600a60009054906101000a900460ff161561179c576040517f08c379a0000000000000000000000000000000000000000000000000000000008152600401611793906131ea565b60405180910390fd5b6117a4612370565b600081116117e7576040517f08c379a00000000000000000000000000000000000000000000000000000000081526004016117de906135e2565b60405180910390fd5b611836333083600360009054906101000a900473ffffffffffffffffffffffffffffffffffffffff1673ffffffffffffffffffffffffffffffffffffffff1661246d909392919063ffffffff16565b80600960003373ffffffffffffffffffffffffffffffffffffffff1673ffffffffffffffffffffffffffffffffffffffff1681526020019081526020016000206000016000828254611888919061316a565b9250508190555061189833610f2d565b503373ffffffffffffffffffffffffffffffffffffffff167fd7243f6f8212d5188fd054141cf6ea89cfc0d91facb8c3afe2f88a1358480142826040516118df9190612e5a565b60405180910390a26118ef612435565b50565b600a60009054906101000a900460ff1615611942576040517f08c379a0000000000000000000000000000000000000000000000000000000008152600401611939906131ea565b60405180910390fd5b61194a612370565b6000600960003373ffffffffffffffffffffffffffffffffffffffff1673ffffffffffffffffffffffffffffffffffffffff16815260200190815260200160002090506000600660003373ffffffffffffffffffffffffffffffffffffffff1673ffffffffffffffffffffffffffffffffffffffff16815260200190815260200160002090508160030160009054906101000a900460ff16611a21576040517f08c379a0000000000000000000000000000000000000000000000000000000008152600401611a189061364e565b60405180910390fd5b6000826000015411611a68576040517f08c379a0000000000000000000000000000000000000000000000000000000008152600401611a5f906132e8565b60405180910390fd5b6000611a7333610f2d565b90506000611a8285600661243f565b905081811115611ac7576040517f08c379a0000000000000000000000000000000000000000000000000000000008152600401611abe906136e0565b60405180910390fd5b84600260009054906101000a900473ffffffffffffffffffffffffffffffffffffffff1673ffffffffffffffffffffffffffffffffffffffff166370a08231306040518263ffffffff1660e01b8152600401611b239190612fcb565b602060405180830381865afa158015611b40573d6000803e3d6000fd5b505050506040513d601f19601f82011682018060405250810190611b649190613715565b1015611ba5576040517f08c379a0000000000000000000000000000000000000000000000000000000008152600401611b9c9061378e565b60405180910390fd5b600260009054906101000a900473ffffffffffffffffffffffffffffffffffffffff1673ffffffffffffffffffffffffffffffffffffffff1663a9059cbb33876040518363ffffffff1660e01b8152600401611c029291906137ae565b6020604051808303816000875af1158015611c21573d6000803e3d6000fd5b505050506040513d601f19601f82011682018060405250810190611c459190613803565b611c84576040517f08c379a0000000000000000000000000000000000000000000000000000000008152600401611c7b9061387c565b60405180910390fd5b611d2f6040518060400160405280601781526020017f696e204c656e64696e672e736f6c20626f72726f77200a0000000000000000008152506040518060400160405280600681526020017f616d6f756e740000000000000000000000000000000000000000000000000000815250876040518060400160405280600181526020017f0a0000000000000000000000000000000000000000000000000000000000000081525061280c565b611e3f6040518060400160405280601381526020017f75736463546f6b656e2e62616c616e63654f6600000000000000000000000000815250600260009054906101000a900473ffffffffffffffffffffffffffffffffffffffff1673ffffffffffffffffffffffffffffffffffffffff166370a08231306040518263ffffffff1660e01b8152600401611dc39190612fcb565b602060405180830381865afa158015611de0573d6000803e3d6000fd5b505050506040513d601f19601f82011682018060405250810190611e049190613715565b6040518060400160405280600181526020017f0a000000000000000000000000000000000000000000000000000000000000008152506128ae565b611e7e6040518060400160405280600981526020017f6d6178426f72726f770000000000000000000000000000000000000000000000815250836126aa565b611ebd6040518060400160405280601281526020017f616d6f756e74496e3138446563696d616c730000000000000000000000000000815250826126aa565b611f006040518060400160405280601881526020017f6163636f756e742e636f6c6c61746572616c416d6f756e74000000000000000081525085600001546126aa565b84846001016000828254611f14919061316a565b92505081905550600083600001541115611f88576000836001015442611f3a9190613094565b9050670de0b6b3a7640000816005548660000154611f5891906130c8565b611f6291906130c8565b611f6c9190613139565b846002016000828254611f7f919061316a565b92505081905550505b84836000016000828254611f9c919061316a565b92505081905550428360010181905550611fb533610f2d565b84600401819055503373ffffffffffffffffffffffffffffffffffffffff167f21c99c97ffd3b7e5f4ad64eaa03c732751ac124471129a7aa5ee0295afe9b461866040516120039190612e5a565b60405180910390a250505050612017612435565b50565b600080612027605961221e565b6060015190508091505090565b61203c61258a565b600a60009054906101000a900460ff161561208c576040517f08c379a0000000000000000000000000000000000000000000000000000000008152600401612083906131ea565b60405180910390fd5b612094612370565b80600260009054906101000a900473ffffffffffffffffffffffffffffffffffffffff1673ffffffffffffffffffffffffffffffffffffffff166370a08231306040518263ffffffff1660e01b81526004016120f09190612fcb565b602060405180830381865afa15801561210d573d6000803e3d6000fd5b505050506040513d601f19601f820116820180604052508101906121319190613715565b1015612172576040517f08c379a00000000000000000000000000000000000000000000000000000000081526004016121699061390e565b60405180910390fd5b600260009054906101000a900473ffffffffffffffffffffffffffffffffffffffff1673ffffffffffffffffffffffffffffffffffffffff1663a9059cbb33836040518363ffffffff1660e01b81526004016121cf9291906137ae565b6020604051808303816000875af11580156121ee573d6000803e3d6000fd5b505050506040513d601f19601f820116820180604052508101906122129190613803565b5061221b612435565b50565b612226612bd2565b600760009054906101000a900473ffffffffffffffffffffffffffffffffffffffff1673ffffffffffffffffffffffffffffffffffffffff166389b94ea2836040518263ffffffff1660e01b81526004016122819190612e5a565b608060405180830381865afa15801561229e573d6000803e3d6000fd5b505050506040513d601f19601f820116820180604052508101906122c29190613a37565b9050919050565b6122d161258a565b600073ffffffffffffffffffffffffffffffffffffffff168173ffffffffffffffffffffffffffffffffffffffff16036123435760006040517f1e4fbdf700000000000000000000000000000000000000000000000000000000815260040161233a9190612fcb565b60405180910390fd5b61234c81612746565b50565b60006a636f6e736f6c652e6c6f679050600080835160208501845afa505050565b6002600054036123ac576040517f3ee5aeb500000000000000000000000000000000000000000000000000000000815260040160405180910390fd5b6002600081905550565b612430838473ffffffffffffffffffffffffffffffffffffffff1663a9059cbb85856040516024016123e99291906137ae565b604051602081830303815290604052915060e01b6020820180517bffffffffffffffffffffffffffffffffffffffffffffffffffffffff838183161783525050505061294d565b505050565b6001600081905550565b600081601261244e9190613a71565b600a61245a9190613bd9565b8361246591906130c8565b905092915050565b6124e9848573ffffffffffffffffffffffffffffffffffffffff166323b872dd8686866040516024016124a293929190613c24565b604051602081830303815290604052915060e01b6020820180517bffffffffffffffffffffffffffffffffffffffffffffffffffffffff838183161783525050505061294d565b50505050565b6000806125018360000154600661243f565b905060008360010154426125159190613094565b90506000670de0b6b3a7640000826005548561253191906130c8565b61253b91906130c8565b6125459190613139565b905061255281600661255c565b9350505050919050565b600081601261256b9190613a71565b600a6125779190613bd9565b836125829190613139565b905092915050565b6125926129e4565b73ffffffffffffffffffffffffffffffffffffffff166125b06114d9565b73ffffffffffffffffffffffffffffffffffffffff161461260f576125d36129e4565b6040517f118cdaa70000000000000000000000000000000000000000000000000000000081526004016126069190612fcb565b60405180910390fd5b565b6126a7816040516024016126259190613cc9565b6040516020818303038152906040527f41304fac000000000000000000000000000000000000000000000000000000007bffffffffffffffffffffffffffffffffffffffffffffffffffffffff19166020820180517bffffffffffffffffffffffffffffffffffffffffffffffffffffffff83818316178352505050506129ec565b50565b61274282826040516024016126c0929190613ceb565b6040516020818303038152906040527fb60e72cc000000000000000000000000000000000000000000000000000000007bffffffffffffffffffffffffffffffffffffffffffffffffffffffff19166020820180517bffffffffffffffffffffffffffffffffffffffffffffffffffffffff83818316178352505050506129ec565b5050565b6000600160009054906101000a900473ffffffffffffffffffffffffffffffffffffffff16905081600160006101000a81548173ffffffffffffffffffffffffffffffffffffffff021916908373ffffffffffffffffffffffffffffffffffffffff1602179055508173ffffffffffffffffffffffffffffffffffffffff168173ffffffffffffffffffffffffffffffffffffffff167f8be0079c531659141344cd1fd0a4f28419497f9722a3daafe3b4186f6b6457e060405160405180910390a35050565b6128a8848484846040516024016128269493929190613d1b565b6040516020818303038152906040527f5d1a971a000000000000000000000000000000000000000000000000000000007bffffffffffffffffffffffffffffffffffffffffffffffffffffffff19166020820180517bffffffffffffffffffffffffffffffffffffffffffffffffffffffff83818316178352505050506129ec565b50505050565b6129488383836040516024016128c693929190613d75565b6040516020818303038152906040527f5970e089000000000000000000000000000000000000000000000000000000007bffffffffffffffffffffffffffffffffffffffffffffffffffffffff19166020820180517bffffffffffffffffffffffffffffffffffffffffffffffffffffffff83818316178352505050506129ec565b505050565b6000612978828473ffffffffffffffffffffffffffffffffffffffff16612a0690919063ffffffff16565b9050600081511415801561299d57508080602001905181019061299b9190613803565b155b156129df57826040517f5274afe70000000000000000000000000000000000000000000000000000000081526004016129d69190612fcb565b60405180910390fd5b505050565b600033905090565b612a03816129fb61234f612a1c565b63ffffffff16565b50565b6060612a1483836000612a27565b905092915050565b612bc8819050919050565b606081471015612a6e57306040517fcd786059000000000000000000000000000000000000000000000000000000008152600401612a659190612fcb565b60405180910390fd5b6000808573ffffffffffffffffffffffffffffffffffffffff168486604051612a979190613e01565b60006040518083038185875af1925050503d8060008114612ad4576040519150601f19603f3d011682016040523d82523d6000602084013e612ad9565b606091505b5091509150612ae9868383612af4565b925050509392505050565b606082612b0957612b0482612b83565b612b7b565b60008251148015612b31575060008473ffffffffffffffffffffffffffffffffffffffff163b145b15612b7357836040517f9996b315000000000000000000000000000000000000000000000000000000008152600401612b6a9190612fcb565b60405180910390fd5b819050612b7c565b5b9392505050565b600081511115612b965780518082602001fd5b6040517f1425ea4200000000000000000000000000000000000000000000000000000000815260040160405180910390fd5b612bd0613e18565b565b6040518060800160405280600081526020016000815260200160008152602001600081525090565b600082825260208201905092915050565b7f44697265637420455448206465706f73697473206e6f7420616c6c6f7765642e60008201527f20557365206465706f7369742066756e6374696f6e2e00000000000000000000602082015250565b6000612c67603683612bfa565b9150612c7282612c0b565b604082019050919050565b60006020820190508181036000830152612c9681612c5a565b9050919050565b600073ffffffffffffffffffffffffffffffffffffffff82169050919050565b6000819050919050565b6000612ce2612cdd612cd884612c9d565b612cbd565b612c9d565b9050919050565b6000612cf482612cc7565b9050919050565b6000612d0682612ce9565b9050919050565b612d1681612cfb565b82525050565b6000602082019050612d316000830184612d0d565b92915050565b6000604051905090565b600080fd5b6000612d5182612c9d565b9050919050565b612d6181612d46565b8114612d6c57600080fd5b50565b600081359050612d7e81612d58565b92915050565b600060208284031215612d9a57612d99612d41565b5b6000612da884828501612d6f565b91505092915050565b6000819050919050565b612dc481612db1565b82525050565b6000606082019050612ddf6000830186612dbb565b612dec6020830185612dbb565b612df96040830184612dbb565b949350505050565b612e0a81612db1565b8114612e1557600080fd5b50565b600081359050612e2781612e01565b92915050565b600060208284031215612e4357612e42612d41565b5b6000612e5184828501612e18565b91505092915050565b6000602082019050612e6f6000830184612dbb565b92915050565b60008115159050919050565b612e8a81612e75565b82525050565b6000602082019050612ea56000830184612e81565b92915050565b600060a082019050612ec06000830188612dbb565b612ecd6020830187612dbb565b612eda6040830186612dbb565b612ee76060830185612e81565b612ef46080830184612dbb565b9695505050505050565b60008060408385031215612f1557612f14612d41565b5b6000612f2385828601612d6f565b9250506020612f3485828601612e18565b9150509250929050565b600061010082019050612f54600083018b612dbb565b612f61602083018a612dbb565b612f6e6040830189612e81565b612f7b6060830188612dbb565b612f886080830187612dbb565b612f9560a0830186612dbb565b612fa260c0830185612dbb565b612faf60e0830184612dbb565b9998505050505050505050565b612fc581612d46565b82525050565b6000602082019050612fe06000830184612fbc565b92915050565b612fef81612db1565b82525050565b60808201600082015161300b6000850182612fe6565b50602082015161301e6020850182612fe6565b5060408201516130316040850182612fe6565b5060608201516130446060850182612fe6565b50505050565b600060808201905061305f6000830184612ff5565b92915050565b7f4e487b7100000000000000000000000000000000000000000000000000000000600052601160045260246000fd5b600061309f82612db1565b91506130aa83612db1565b92508282039050818111156130c2576130c1613065565b5b92915050565b60006130d382612db1565b91506130de83612db1565b92508282026130ec81612db1565b9150828204841483151761310357613102613065565b5b5092915050565b7f4e487b7100000000000000000000000000000000000000000000000000000000600052601260045260246000fd5b600061314482612db1565b915061314f83612db1565b92508261315f5761315e61310a565b5b828204905092915050565b600061317582612db1565b915061318083612db1565b925082820190508082111561319857613197613065565b5b92915050565b7f436f6e7472616374206973207061757365640000000000000000000000000000600082015250565b60006131d4601283612bfa565b91506131df8261319e565b602082019050919050565b60006020820190508181036000830152613203816131c7565b9050919050565b7f43616e6e6f742077697468647261772077697468206f75747374616e64696e6760008201527f2064656274000000000000000000000000000000000000000000000000000000602082015250565b6000613266602583612bfa565b91506132718261320a565b604082019050919050565b6000602082019050818103600083015261329581613259565b9050919050565b7f496e73756666696369656e7420636f6c6c61746572616c000000000000000000600082015250565b60006132d2601783612bfa565b91506132dd8261329c565b602082019050919050565b60006020820190508181036000830152613301816132c5565b9050919050565b7f526570617920616d6f756e74206d75737420626520677265617465722074686160008201527f6e20300000000000000000000000000000000000000000000000000000000000602082015250565b6000613364602383612bfa565b915061336f82613308565b604082019050919050565b6000602082019050818103600083015261339381613357565b9050919050565b7f526570617920616d6f756e742065786365656473206465627400000000000000600082015250565b60006133d0601983612bfa565b91506133db8261339a565b602082019050919050565b600060208201905081810360008301526133ff816133c3565b9050919050565b7f43616e6e6f742064697361626c6520436f6c6c61746572616c2077697468206f60008201527f75747374616e64696e6720646562740000000000000000000000000000000000602082015250565b6000613462602f83612bfa565b915061346d82613406565b604082019050919050565b6000602082019050818103600083015261349181613455565b9050919050565b7f436f6e7472616374206973206e6f742070617573656400000000000000000000600082015250565b60006134ce601683612bfa565b91506134d982613498565b602082019050919050565b600060208201905081810360008301526134fd816134c1565b9050919050565b7f4e6f20636f6c6c61746572616c206465706f7369746564000000000000000000600082015250565b600061353a601783612bfa565b915061354582613504565b602082019050919050565b600060208201905081810360008301526135698161352d565b9050919050565b7f54686520436f6c6c61746572616c20616d6f756e74206d75737420626520677260008201527f6561746572207468616e20302e00000000000000000000000000000000000000602082015250565b60006135cc602d83612bfa565b91506135d782613570565b604082019050919050565b600060208201905081810360008301526135fb816135bf565b9050919050565b7f436f6c6c61746572616c206973206e6f742020656e61626c6564000000000000600082015250565b6000613638601a83612bfa565b915061364382613602565b602082019050919050565b600060208201905081810360008301526136678161362b565b9050919050565b7f426f72726f7720616d6f756e742065786365656473206d6178696d756d20616c60008201527f6c6f776564000000000000000000000000000000000000000000000000000000602082015250565b60006136ca602583612bfa565b91506136d58261366e565b604082019050919050565b600060208201905081810360008301526136f9816136bd565b9050919050565b60008151905061370f81612e01565b92915050565b60006020828403121561372b5761372a612d41565b5b600061373984828501613700565b91505092915050565b7f496e73756666696369656e742055534443206c69717569646974790000000000600082015250565b6000613778601b83612bfa565b915061378382613742565b602082019050919050565b600060208201905081810360008301526137a78161376b565b9050919050565b60006040820190506137c36000830185612fbc565b6137d06020830184612dbb565b9392505050565b6137e081612e75565b81146137eb57600080fd5b50565b6000815190506137fd816137d7565b92915050565b60006020828403121561381957613818612d41565b5b6000613827848285016137ee565b91505092915050565b7f55534443207472616e73666572206661696c6564000000000000000000000000600082015250565b6000613866601483612bfa565b915061387182613830565b602082019050919050565b6000602082019050818103600083015261389581613859565b9050919050565b7f496e73756666696369656e7420555344432062616c616e636520696e20636f6e60008201527f7472616374000000000000000000000000000000000000000000000000000000602082015250565b60006138f8602583612bfa565b91506139038261389c565b604082019050919050565b60006020820190508181036000830152613927816138eb565b9050919050565b600080fd5b6000601f19601f8301169050919050565b7f4e487b7100000000000000000000000000000000000000000000000000000000600052604160045260246000fd5b61397c82613933565b810181811067ffffffffffffffff8211171561399b5761399a613944565b5b80604052505050565b60006139ae612d37565b90506139ba8282613973565b919050565b6000608082840312156139d5576139d461392e565b5b6139df60806139a4565b905060006139ef84828501613700565b6000830152506020613a0384828501613700565b6020830152506040613a1784828501613700565b6040830152506060613a2b84828501613700565b60608301525092915050565b600060808284031215613a4d57613a4c612d41565b5b6000613a5b848285016139bf565b91505092915050565b600060ff82169050919050565b6000613a7c82613a64565b9150613a8783613a64565b9250828203905060ff811115613aa057613a9f613065565b5b92915050565b60008160011c9050919050565b6000808291508390505b6001851115613afd57808604811115613ad957613ad8613065565b5b6001851615613ae85780820291505b8081029050613af685613aa6565b9450613abd565b94509492505050565b600082613b165760019050613bd2565b81613b245760009050613bd2565b8160018114613b3a5760028114613b4457613b73565b6001915050613bd2565b60ff841115613b5657613b55613065565b5b8360020a915084821115613b6d57613b6c613065565b5b50613bd2565b5060208310610133831016604e8410600b8410161715613ba85782820a905083811115613ba357613ba2613065565b5b613bd2565b613bb58484846001613ab3565b92509050818404811115613bcc57613bcb613065565b5b81810290505b9392505050565b6000613be482612db1565b9150613bef83613a64565b9250613c1c7fffffffffffffffffffffffffffffffffffffffffffffffffffffffffffffffff8484613b06565b905092915050565b6000606082019050613c396000830186612fbc565b613c466020830185612fbc565b613c536040830184612dbb565b949350505050565b600081519050919050565b60005b83811015613c84578082015181840152602081019050613c69565b60008484015250505050565b6000613c9b82613c5b565b613ca58185612bfa565b9350613cb5818560208601613c66565b613cbe81613933565b840191505092915050565b60006020820190508181036000830152613ce38184613c90565b905092915050565b60006040820190508181036000830152613d058185613c90565b9050613d146020830184612dbb565b9392505050565b60006080820190508181036000830152613d358187613c90565b90508181036020830152613d498186613c90565b9050613d586040830185612dbb565b8181036060830152613d6a8184613c90565b905095945050505050565b60006060820190508181036000830152613d8f8186613c90565b9050613d9e6020830185612dbb565b8181036040830152613db08184613c90565b9050949350505050565b600081519050919050565b600081905092915050565b6000613ddb82613dba565b613de58185613dc5565b9350613df5818560208601613c66565b80840191505092915050565b6000613e0d8284613dd0565b915081905092915050565b7f4e487b7100000000000000000000000000000000000000000000000000000000600052605160045260246000fdfea26469706673582212208e8344c3632a7e95ff1bceab4dcaeb510375079e6402c4cc594d412f89b6764b64736f6c63430008180033","opcodes":"PUSH1 0x80 PUSH1 0x40 MSTORE CALLVALUE DUP1 ISZERO PUSH3 0x11 JUMPI PUSH1 0x0 DUP1 REVERT JUMPDEST POP PUSH1 0x40 MLOAD PUSH3 0x469C CODESIZE SUB DUP1 PUSH3 0x469C DUP4 CODECOPY DUP2 DUP2 ADD PUSH1 0x40 MSTORE DUP2 ADD SWAP1 PUSH3 0x37 SWAP2 SWAP1 PUSH3 0x56A JUMP JUMPDEST CALLER PUSH1 0x1 PUSH1 0x0 DUP2 SWAP1 SSTORE POP PUSH1 0x0 PUSH20 0xFFFFFFFFFFFFFFFFFFFFFFFFFFFFFFFFFFFFFFFF AND DUP2 PUSH20 0xFFFFFFFFFFFFFFFFFFFFFFFFFFFFFFFFFFFFFFFF AND SUB PUSH3 0xB5 JUMPI PUSH1 0x0 PUSH1 0x40 MLOAD PUSH32 0x1E4FBDF700000000000000000000000000000000000000000000000000000000 DUP2 MSTORE PUSH1 0x4 ADD PUSH3 0xAC SWAP2 SWAP1 PUSH3 0x603 JUMP JUMPDEST PUSH1 0x40 MLOAD DUP1 SWAP2 SUB SWAP1 REVERT JUMPDEST PUSH3 0xC6 DUP2 PUSH3 0x2B2 PUSH1 0x20 SHL PUSH1 0x20 SHR JUMP JUMPDEST POP DUP5 PUSH1 0x2 PUSH1 0x0 PUSH2 0x100 EXP DUP2 SLOAD DUP2 PUSH20 0xFFFFFFFFFFFFFFFFFFFFFFFFFFFFFFFFFFFFFFFF MUL NOT AND SWAP1 DUP4 PUSH20 0xFFFFFFFFFFFFFFFFFFFFFFFFFFFFFFFFFFFFFFFF AND MUL OR SWAP1 SSTORE POP DUP4 PUSH1 0x3 PUSH1 0x0 PUSH2 0x100 EXP DUP2 SLOAD DUP2 PUSH20 0xFFFFFFFFFFFFFFFFFFFFFFFFFFFFFFFFFFFFFFFF MUL NOT AND SWAP1 DUP4 PUSH20 0xFFFFFFFFFFFFFFFFFFFFFFFFFFFFFFFFFFFFFFFF AND MUL OR SWAP1 SSTORE POP DUP2 PUSH1 0x4 DUP2 SWAP1 SSTORE POP PUSH4 0x1E13380 PUSH8 0xDE0B6B3A7640000 PUSH1 0x4 SLOAD PUSH3 0x16D SWAP2 SWAP1 PUSH3 0x64F JUMP JUMPDEST PUSH3 0x179 SWAP2 SWAP1 PUSH3 0x6C9 JUMP JUMPDEST PUSH1 0x5 DUP2 SWAP1 SSTORE POP PUSH3 0x1C8 PUSH1 0x40 MLOAD DUP1 PUSH1 0x40 ADD PUSH1 0x40 MSTORE DUP1 PUSH1 0xD DUP2 MSTORE PUSH1 0x20 ADD PUSH32 0x7065725365636F6E645261746500000000000000000000000000000000000000 DUP2 MSTORE POP PUSH1 0x5 SLOAD PUSH3 0x378 PUSH1 0x20 SHL PUSH1 0x20 SHR JUMP JUMPDEST PUSH3 0x211 PUSH1 0x40 MLOAD DUP1 PUSH1 0x40 ADD PUSH1 0x40 MSTORE DUP1 PUSH1 0xC DUP2 MSTORE PUSH1 0x20 ADD PUSH32 0x696E746572657374526174650000000000000000000000000000000000000000 DUP2 MSTORE POP PUSH1 0x4 SLOAD PUSH3 0x378 PUSH1 0x20 SHL PUSH1 0x20 SHR JUMP JUMPDEST PUSH1 0x1 ISZERO ISZERO DUP2 ISZERO ISZERO SUB PUSH3 0x265 JUMPI DUP3 PUSH1 0x7 PUSH1 0x0 PUSH2 0x100 EXP DUP2 SLOAD DUP2 PUSH20 0xFFFFFFFFFFFFFFFFFFFFFFFFFFFFFFFFFFFFFFFF MUL NOT AND SWAP1 DUP4 PUSH20 0xFFFFFFFFFFFFFFFFFFFFFFFFFFFFFFFFFFFFFFFF AND MUL OR SWAP1 SSTORE POP PUSH3 0x2A7 JUMP JUMPDEST DUP3 PUSH1 0x7 PUSH1 0x0 PUSH2 0x100 EXP DUP2 SLOAD DUP2 PUSH20 0xFFFFFFFFFFFFFFFFFFFFFFFFFFFFFFFFFFFFFFFF MUL NOT AND SWAP1 DUP4 PUSH20 0xFFFFFFFFFFFFFFFFFFFFFFFFFFFFFFFFFFFFFFFF AND MUL OR SWAP1 SSTORE POP JUMPDEST POP POP POP POP POP PUSH3 0x80F JUMP JUMPDEST PUSH1 0x0 PUSH1 0x1 PUSH1 0x0 SWAP1 SLOAD SWAP1 PUSH2 0x100 EXP SWAP1 DIV PUSH20 0xFFFFFFFFFFFFFFFFFFFFFFFFFFFFFFFFFFFFFFFF AND SWAP1 POP DUP2 PUSH1 0x1 PUSH1 0x0 PUSH2 0x100 EXP DUP2 SLOAD DUP2 PUSH20 0xFFFFFFFFFFFFFFFFFFFFFFFFFFFFFFFFFFFFFFFF MUL NOT AND SWAP1 DUP4 PUSH20 0xFFFFFFFFFFFFFFFFFFFFFFFFFFFFFFFFFFFFFFFF AND MUL OR SWAP1 SSTORE POP DUP2 PUSH20 0xFFFFFFFFFFFFFFFFFFFFFFFFFFFFFFFFFFFFFFFF AND DUP2 PUSH20 0xFFFFFFFFFFFFFFFFFFFFFFFFFFFFFFFFFFFFFFFF AND PUSH32 0x8BE0079C531659141344CD1FD0A4F28419497F9722A3DAAFE3B4186F6B6457E0 PUSH1 0x40 MLOAD PUSH1 0x40 MLOAD DUP1 SWAP2 SUB SWAP1 LOG3 POP POP JUMP JUMPDEST PUSH3 0x41A DUP3 DUP3 PUSH1 0x40 MLOAD PUSH1 0x24 ADD PUSH3 0x391 SWAP3 SWAP2 SWAP1 PUSH3 0x7AC JUMP JUMPDEST PUSH1 0x40 MLOAD PUSH1 0x20 DUP2 DUP4 SUB SUB DUP2 MSTORE SWAP1 PUSH1 0x40 MSTORE PUSH32 0xB60E72CC00000000000000000000000000000000000000000000000000000000 PUSH28 0xFFFFFFFFFFFFFFFFFFFFFFFFFFFFFFFFFFFFFFFFFFFFFFFFFFFFFFFF NOT AND PUSH1 0x20 DUP3 ADD DUP1 MLOAD PUSH28 0xFFFFFFFFFFFFFFFFFFFFFFFFFFFFFFFFFFFFFFFFFFFFFFFFFFFFFFFF DUP4 DUP2 DUP4 AND OR DUP4 MSTORE POP POP POP POP PUSH3 0x41E PUSH1 0x20 SHL PUSH1 0x20 SHR JUMP JUMPDEST POP POP JUMP JUMPDEST PUSH3 0x444 DUP2 PUSH3 0x43F PUSH3 0x447 PUSH1 0x20 SHL PUSH3 0x234F OR PUSH3 0x468 PUSH1 0x20 SHL PUSH1 0x20 SHR JUMP JUMPDEST PUSH1 0x20 SHR JUMP JUMPDEST POP JUMP JUMPDEST PUSH1 0x0 PUSH11 0x636F6E736F6C652E6C6F67 SWAP1 POP PUSH1 0x0 DUP1 DUP4 MLOAD PUSH1 0x20 DUP6 ADD DUP5 GAS STATICCALL POP POP POP JUMP JUMPDEST PUSH3 0x47C PUSH1 0x20 SHL PUSH3 0x2BC8 OR DUP2 SWAP1 POP SWAP2 SWAP1 POP JUMP JUMPDEST PUSH3 0x486 PUSH3 0x7E0 JUMP JUMPDEST JUMP JUMPDEST PUSH1 0x0 DUP1 REVERT JUMPDEST PUSH1 0x0 PUSH20 0xFFFFFFFFFFFFFFFFFFFFFFFFFFFFFFFFFFFFFFFF DUP3 AND SWAP1 POP SWAP2 SWAP1 POP JUMP JUMPDEST PUSH1 0x0 PUSH3 0x4BA DUP3 PUSH3 0x48D JUMP JUMPDEST SWAP1 POP SWAP2 SWAP1 POP JUMP JUMPDEST PUSH3 0x4CC DUP2 PUSH3 0x4AD JUMP JUMPDEST DUP2 EQ PUSH3 0x4D8 JUMPI PUSH1 0x0 DUP1 REVERT JUMPDEST POP JUMP JUMPDEST PUSH1 0x0 DUP2 MLOAD SWAP1 POP PUSH3 0x4EC DUP2 PUSH3 0x4C1 JUMP JUMPDEST SWAP3 SWAP2 POP POP JUMP JUMPDEST PUSH1 0x0 DUP2 SWAP1 POP SWAP2 SWAP1 POP JUMP JUMPDEST PUSH3 0x507 DUP2 PUSH3 0x4F2 JUMP JUMPDEST DUP2 EQ PUSH3 0x513 JUMPI PUSH1 0x0 DUP1 REVERT JUMPDEST POP JUMP JUMPDEST PUSH1 0x0 DUP2 MLOAD SWAP1 POP PUSH3 0x527 DUP2 PUSH3 0x4FC JUMP JUMPDEST SWAP3 SWAP2 POP POP JUMP JUMPDEST PUSH1 0x0 DUP2 ISZERO ISZERO SWAP1 POP SWAP2 SWAP1 POP JUMP JUMPDEST PUSH3 0x544 DUP2 PUSH3 0x52D JUMP JUMPDEST DUP2 EQ PUSH3 0x550 JUMPI PUSH1 0x0 DUP1 REVERT JUMPDEST POP JUMP JUMPDEST PUSH1 0x0 DUP2 MLOAD SWAP1 POP PUSH3 0x564 DUP2 PUSH3 0x539 JUMP JUMPDEST SWAP3 SWAP2 POP POP JUMP JUMPDEST PUSH1 0x0 DUP1 PUSH1 0x0 DUP1 PUSH1 0x0 PUSH1 0xA0 DUP7 DUP9 SUB SLT ISZERO PUSH3 0x589 JUMPI PUSH3 0x588 PUSH3 0x488 JUMP JUMPDEST JUMPDEST PUSH1 0x0 PUSH3 0x599 DUP9 DUP3 DUP10 ADD PUSH3 0x4DB JUMP JUMPDEST SWAP6 POP POP PUSH1 0x20 PUSH3 0x5AC DUP9 DUP3 DUP10 ADD PUSH3 0x4DB JUMP JUMPDEST SWAP5 POP POP PUSH1 0x40 PUSH3 0x5BF DUP9 DUP3 DUP10 ADD PUSH3 0x4DB JUMP JUMPDEST SWAP4 POP POP PUSH1 0x60 PUSH3 0x5D2 DUP9 DUP3 DUP10 ADD PUSH3 0x516 JUMP JUMPDEST SWAP3 POP POP PUSH1 0x80 PUSH3 0x5E5 DUP9 DUP3 DUP10 ADD PUSH3 0x553 JUMP JUMPDEST SWAP2 POP POP SWAP3 SWAP6 POP SWAP3 SWAP6 SWAP1 SWAP4 POP JUMP JUMPDEST PUSH3 0x5FD DUP2 PUSH3 0x4AD JUMP JUMPDEST DUP3 MSTORE POP POP JUMP JUMPDEST PUSH1 0x0 PUSH1 0x20 DUP3 ADD SWAP1 POP PUSH3 0x61A PUSH1 0x0 DUP4 ADD DUP5 PUSH3 0x5F2 JUMP JUMPDEST SWAP3 SWAP2 POP POP JUMP JUMPDEST PUSH32 0x4E487B7100000000000000000000000000000000000000000000000000000000 PUSH1 0x0 MSTORE PUSH1 0x11 PUSH1 0x4 MSTORE PUSH1 0x24 PUSH1 0x0 REVERT JUMPDEST PUSH1 0x0 PUSH3 0x65C DUP3 PUSH3 0x4F2 JUMP JUMPDEST SWAP2 POP PUSH3 0x669 DUP4 PUSH3 0x4F2 JUMP JUMPDEST SWAP3 POP DUP3 DUP3 MUL PUSH3 0x679 DUP2 PUSH3 0x4F2 JUMP JUMPDEST SWAP2 POP DUP3 DUP3 DIV DUP5 EQ DUP4 ISZERO OR PUSH3 0x693 JUMPI PUSH3 0x692 PUSH3 0x620 JUMP JUMPDEST JUMPDEST POP SWAP3 SWAP2 POP POP JUMP JUMPDEST PUSH32 0x4E487B7100000000000000000000000000000000000000000000000000000000 PUSH1 0x0 MSTORE PUSH1 0x12 PUSH1 0x4 MSTORE PUSH1 0x24 PUSH1 0x0 REVERT JUMPDEST PUSH1 0x0 PUSH3 0x6D6 DUP3 PUSH3 0x4F2 JUMP JUMPDEST SWAP2 POP PUSH3 0x6E3 DUP4 PUSH3 0x4F2 JUMP JUMPDEST SWAP3 POP DUP3 PUSH3 0x6F6 JUMPI PUSH3 0x6F5 PUSH3 0x69A JUMP JUMPDEST JUMPDEST DUP3 DUP3 DIV SWAP1 POP SWAP3 SWAP2 POP POP JUMP JUMPDEST PUSH1 0x0 DUP2 MLOAD SWAP1 POP SWAP2 SWAP1 POP JUMP JUMPDEST PUSH1 0x0 DUP3 DUP3 MSTORE PUSH1 0x20 DUP3 ADD SWAP1 POP SWAP3 SWAP2 POP POP JUMP JUMPDEST PUSH1 0x0 JUMPDEST DUP4 DUP2 LT ISZERO PUSH3 0x73D JUMPI DUP1 DUP3 ADD MLOAD DUP2 DUP5 ADD MSTORE PUSH1 0x20 DUP2 ADD SWAP1 POP PUSH3 0x720 JUMP JUMPDEST PUSH1 0x0 DUP5 DUP5 ADD MSTORE POP POP POP POP JUMP JUMPDEST PUSH1 0x0 PUSH1 0x1F NOT PUSH1 0x1F DUP4 ADD AND SWAP1 POP SWAP2 SWAP1 POP JUMP JUMPDEST PUSH1 0x0 PUSH3 0x767 DUP3 PUSH3 0x701 JUMP JUMPDEST PUSH3 0x773 DUP2 DUP6 PUSH3 0x70C JUMP JUMPDEST SWAP4 POP PUSH3 0x785 DUP2 DUP6 PUSH1 0x20 DUP7 ADD PUSH3 0x71D JUMP JUMPDEST PUSH3 0x790 DUP2 PUSH3 0x749 JUMP JUMPDEST DUP5 ADD SWAP2 POP POP SWAP3 SWAP2 POP POP JUMP JUMPDEST PUSH3 0x7A6 DUP2 PUSH3 0x4F2 JUMP JUMPDEST DUP3 MSTORE POP POP JUMP JUMPDEST PUSH1 0x0 PUSH1 0x40 DUP3 ADD SWAP1 POP DUP2 DUP2 SUB PUSH1 0x0 DUP4 ADD MSTORE PUSH3 0x7C8 DUP2 DUP6 PUSH3 0x75A JUMP JUMPDEST SWAP1 POP PUSH3 0x7D9 PUSH1 0x20 DUP4 ADD DUP5 PUSH3 0x79B JUMP JUMPDEST SWAP4 SWAP3 POP POP POP JUMP JUMPDEST PUSH32 0x4E487B7100000000000000000000000000000000000000000000000000000000 PUSH1 0x0 MSTORE PUSH1 0x51 PUSH1 0x4 MSTORE PUSH1 0x24 PUSH1 0x0 REVERT JUMPDEST PUSH2 0x3E7D DUP1 PUSH3 0x81F PUSH1 0x0 CODECOPY PUSH1 0x0 RETURN INVALID PUSH1 0x80 PUSH1 0x40 MSTORE PUSH1 0x4 CALLDATASIZE LT PUSH2 0x1BB JUMPI PUSH1 0x0 CALLDATALOAD PUSH1 0xE0 SHR DUP1 PUSH4 0x7B510FE8 GT PUSH2 0xEC JUMPI DUP1 PUSH4 0x9CE625F7 GT PUSH2 0x8A JUMPI DUP1 PUSH4 0xCDB4AEF0 GT PUSH2 0x64 JUMPI DUP1 PUSH4 0xCDB4AEF0 EQ PUSH2 0x63B JUMPI DUP1 PUSH4 0xDB81F99B EQ PUSH2 0x666 JUMPI DUP1 PUSH4 0xE7572230 EQ PUSH2 0x68F JUMPI DUP1 PUSH4 0xF2FDE38B EQ PUSH2 0x6CC JUMPI PUSH2 0x1FB JUMP JUMPDEST DUP1 PUSH4 0x9CE625F7 EQ PUSH2 0x5AC JUMPI DUP1 PUSH4 0xB6B55F25 EQ PUSH2 0x5E9 JUMPI DUP1 PUSH4 0xC5EBEAEC EQ PUSH2 0x612 JUMPI PUSH2 0x1FB JUMP JUMPDEST DUP1 PUSH4 0x8456CB59 GT PUSH2 0xC6 JUMPI DUP1 PUSH4 0x8456CB59 EQ PUSH2 0x514 JUMPI DUP1 PUSH4 0x8DA5CB5B EQ PUSH2 0x52B JUMPI DUP1 PUSH4 0x96F159BA EQ PUSH2 0x556 JUMPI DUP1 PUSH4 0x9B09DD62 EQ PUSH2 0x595 JUMPI PUSH2 0x1FB JUMP JUMPDEST DUP1 PUSH4 0x7B510FE8 EQ PUSH2 0x468 JUMPI DUP1 PUSH4 0x7C3A00FD EQ PUSH2 0x4AC JUMPI DUP1 PUSH4 0x82FEE08F EQ PUSH2 0x4D7 JUMPI PUSH2 0x1FB JUMP JUMPDEST DUP1 PUSH4 0x55C81369 GT PUSH2 0x159 JUMPI DUP1 PUSH4 0x5E5C06E2 GT PUSH2 0x133 JUMPI DUP1 PUSH4 0x5E5C06E2 EQ PUSH2 0x3A8 JUMPI DUP1 PUSH4 0x631FA8A4 EQ PUSH2 0x3E9 JUMPI DUP1 PUSH4 0x67C9B017 EQ PUSH2 0x426 JUMPI DUP1 PUSH4 0x715018A6 EQ PUSH2 0x451 JUMPI PUSH2 0x1FB JUMP JUMPDEST DUP1 PUSH4 0x55C81369 EQ PUSH2 0x315 JUMPI DUP1 PUSH4 0x5C975ABB EQ PUSH2 0x352 JUMPI DUP1 PUSH4 0x5DCC9391 EQ PUSH2 0x37D JUMPI PUSH2 0x1FB JUMP JUMPDEST DUP1 PUSH4 0x371FD8E6 GT PUSH2 0x195 JUMPI DUP1 PUSH4 0x371FD8E6 EQ PUSH2 0x293 JUMPI DUP1 PUSH4 0x3A2C08A7 EQ PUSH2 0x2BC JUMPI DUP1 PUSH4 0x3F4BA83A EQ PUSH2 0x2D3 JUMPI DUP1 PUSH4 0x4B57B0BE EQ PUSH2 0x2EA JUMPI PUSH2 0x1FB JUMP JUMPDEST DUP1 PUSH4 0x11EAC855 EQ PUSH2 0x200 JUMPI DUP1 PUSH4 0x2AA5270E EQ PUSH2 0x22B JUMPI DUP1 PUSH4 0x2E1A7D4D EQ PUSH2 0x26A JUMPI PUSH2 0x1FB JUMP JUMPDEST CALLDATASIZE PUSH2 0x1FB JUMPI PUSH1 0x40 MLOAD PUSH32 0x8C379A000000000000000000000000000000000000000000000000000000000 DUP2 MSTORE PUSH1 0x4 ADD PUSH2 0x1F2 SWAP1 PUSH2 0x2C7D JUMP JUMPDEST PUSH1 0x40 MLOAD DUP1 SWAP2 SUB SWAP1 REVERT JUMPDEST PUSH1 0x0 DUP1 REVERT JUMPDEST CALLVALUE DUP1 ISZERO PUSH2 0x20C JUMPI PUSH1 0x0 DUP1 REVERT JUMPDEST POP PUSH2 0x215 PUSH2 0x6F5 JUMP JUMPDEST PUSH1 0x40 MLOAD PUSH2 0x222 SWAP2 SWAP1 PUSH2 0x2D1C JUMP JUMPDEST PUSH1 0x40 MLOAD DUP1 SWAP2 SUB SWAP1 RETURN JUMPDEST CALLVALUE DUP1 ISZERO PUSH2 0x237 JUMPI PUSH1 0x0 DUP1 REVERT JUMPDEST POP PUSH2 0x252 PUSH1 0x4 DUP1 CALLDATASIZE SUB DUP2 ADD SWAP1 PUSH2 0x24D SWAP2 SWAP1 PUSH2 0x2D84 JUMP JUMPDEST PUSH2 0x71B JUMP JUMPDEST PUSH1 0x40 MLOAD PUSH2 0x261 SWAP4 SWAP3 SWAP2 SWAP1 PUSH2 0x2DCA JUMP JUMPDEST PUSH1 0x40 MLOAD DUP1 SWAP2 SUB SWAP1 RETURN JUMPDEST CALLVALUE DUP1 ISZERO PUSH2 0x276 JUMPI PUSH1 0x0 DUP1 REVERT JUMPDEST POP PUSH2 0x291 PUSH1 0x4 DUP1 CALLDATASIZE SUB DUP2 ADD SWAP1 PUSH2 0x28C SWAP2 SWAP1 PUSH2 0x2E2D JUMP JUMPDEST PUSH2 0x7FD JUMP JUMPDEST STOP JUMPDEST CALLVALUE DUP1 ISZERO PUSH2 0x29F JUMPI PUSH1 0x0 DUP1 REVERT JUMPDEST POP PUSH2 0x2BA PUSH1 0x4 DUP1 CALLDATASIZE SUB DUP2 ADD SWAP1 PUSH2 0x2B5 SWAP2 SWAP1 PUSH2 0x2E2D JUMP JUMPDEST PUSH2 0x9F2 JUMP JUMPDEST STOP JUMPDEST CALLVALUE DUP1 ISZERO PUSH2 0x2C8 JUMPI PUSH1 0x0 DUP1 REVERT JUMPDEST POP PUSH2 0x2D1 PUSH2 0xCDB JUMP JUMPDEST STOP JUMPDEST CALLVALUE DUP1 ISZERO PUSH2 0x2DF JUMPI PUSH1 0x0 DUP1 REVERT JUMPDEST POP PUSH2 0x2E8 PUSH2 0xE50 JUMP JUMPDEST STOP JUMPDEST CALLVALUE DUP1 ISZERO PUSH2 0x2F6 JUMPI PUSH1 0x0 DUP1 REVERT JUMPDEST POP PUSH2 0x2FF PUSH2 0xF07 JUMP JUMPDEST PUSH1 0x40 MLOAD PUSH2 0x30C SWAP2 SWAP1 PUSH2 0x2D1C JUMP JUMPDEST PUSH1 0x40 MLOAD DUP1 SWAP2 SUB SWAP1 RETURN JUMPDEST CALLVALUE DUP1 ISZERO PUSH2 0x321 JUMPI PUSH1 0x0 DUP1 REVERT JUMPDEST POP PUSH2 0x33C PUSH1 0x4 DUP1 CALLDATASIZE SUB DUP2 ADD SWAP1 PUSH2 0x337 SWAP2 SWAP1 PUSH2 0x2D84 JUMP JUMPDEST PUSH2 0xF2D JUMP JUMPDEST PUSH1 0x40 MLOAD PUSH2 0x349 SWAP2 SWAP1 PUSH2 0x2E5A JUMP JUMPDEST PUSH1 0x40 MLOAD DUP1 SWAP2 SUB SWAP1 RETURN JUMPDEST CALLVALUE DUP1 ISZERO PUSH2 0x35E JUMPI PUSH1 0x0 DUP1 REVERT JUMPDEST POP PUSH2 0x367 PUSH2 0x1181 JUMP JUMPDEST PUSH1 0x40 MLOAD PUSH2 0x374 SWAP2 SWAP1 PUSH2 0x2E90 JUMP JUMPDEST PUSH1 0x40 MLOAD DUP1 SWAP2 SUB SWAP1 RETURN JUMPDEST CALLVALUE DUP1 ISZERO PUSH2 0x389 JUMPI PUSH1 0x0 DUP1 REVERT JUMPDEST POP PUSH2 0x392 PUSH2 0x1198 JUMP JUMPDEST PUSH1 0x40 MLOAD PUSH2 0x39F SWAP2 SWAP1 PUSH2 0x2E5A JUMP JUMPDEST PUSH1 0x40 MLOAD DUP1 SWAP2 SUB SWAP1 RETURN JUMPDEST CALLVALUE DUP1 ISZERO PUSH2 0x3B4 JUMPI PUSH1 0x0 DUP1 REVERT JUMPDEST POP PUSH2 0x3CF PUSH1 0x4 DUP1 CALLDATASIZE SUB DUP2 ADD SWAP1 PUSH2 0x3CA SWAP2 SWAP1 PUSH2 0x2D84 JUMP JUMPDEST PUSH2 0x11A0 JUMP JUMPDEST PUSH1 0x40 MLOAD PUSH2 0x3E0 SWAP6 SWAP5 SWAP4 SWAP3 SWAP2 SWAP1 PUSH2 0x2EAB JUMP JUMPDEST PUSH1 0x40 MLOAD DUP1 SWAP2 SUB SWAP1 RETURN JUMPDEST CALLVALUE DUP1 ISZERO PUSH2 0x3F5 JUMPI PUSH1 0x0 DUP1 REVERT JUMPDEST POP PUSH2 0x410 PUSH1 0x4 DUP1 CALLDATASIZE SUB DUP2 ADD SWAP1 PUSH2 0x40B SWAP2 SWAP1 PUSH2 0x2EFE JUMP JUMPDEST PUSH2 0x11E3 JUMP JUMPDEST PUSH1 0x40 MLOAD PUSH2 0x41D SWAP2 SWAP1 PUSH2 0x2E5A JUMP JUMPDEST PUSH1 0x40 MLOAD DUP1 SWAP2 SUB SWAP1 RETURN JUMPDEST CALLVALUE DUP1 ISZERO PUSH2 0x432 JUMPI PUSH1 0x0 DUP1 REVERT JUMPDEST POP PUSH2 0x43B PUSH2 0x1297 JUMP JUMPDEST PUSH1 0x40 MLOAD PUSH2 0x448 SWAP2 SWAP1 PUSH2 0x2E5A JUMP JUMPDEST PUSH1 0x40 MLOAD DUP1 SWAP2 SUB SWAP1 RETURN JUMPDEST CALLVALUE DUP1 ISZERO PUSH2 0x45D JUMPI PUSH1 0x0 DUP1 REVERT JUMPDEST POP PUSH2 0x466 PUSH2 0x12B1 JUMP JUMPDEST STOP JUMPDEST CALLVALUE DUP1 ISZERO PUSH2 0x474 JUMPI PUSH1 0x0 DUP1 REVERT JUMPDEST POP PUSH2 0x48F PUSH1 0x4 DUP1 CALLDATASIZE SUB DUP2 ADD SWAP1 PUSH2 0x48A SWAP2 SWAP1 PUSH2 0x2D84 JUMP JUMPDEST PUSH2 0x12C5 JUMP JUMPDEST PUSH1 0x40 MLOAD PUSH2 0x4A3 SWAP9 SWAP8 SWAP7 SWAP6 SWAP5 SWAP4 SWAP3 SWAP2 SWAP1 PUSH2 0x2F3E JUMP JUMPDEST PUSH1 0x40 MLOAD DUP1 SWAP2 SUB SWAP1 RETURN JUMPDEST CALLVALUE DUP1 ISZERO PUSH2 0x4B8 JUMPI PUSH1 0x0 DUP1 REVERT JUMPDEST POP PUSH2 0x4C1 PUSH2 0x13CE JUMP JUMPDEST PUSH1 0x40 MLOAD PUSH2 0x4CE SWAP2 SWAP1 PUSH2 0x2E5A JUMP JUMPDEST PUSH1 0x40 MLOAD DUP1 SWAP2 SUB SWAP1 RETURN JUMPDEST CALLVALUE DUP1 ISZERO PUSH2 0x4E3 JUMPI PUSH1 0x0 DUP1 REVERT JUMPDEST POP PUSH2 0x4FE PUSH1 0x4 DUP1 CALLDATASIZE SUB DUP2 ADD SWAP1 PUSH2 0x4F9 SWAP2 SWAP1 PUSH2 0x2E2D JUMP JUMPDEST PUSH2 0x13D4 JUMP JUMPDEST PUSH1 0x40 MLOAD PUSH2 0x50B SWAP2 SWAP1 PUSH2 0x2E5A JUMP JUMPDEST PUSH1 0x40 MLOAD DUP1 SWAP2 SUB SWAP1 RETURN JUMPDEST CALLVALUE DUP1 ISZERO PUSH2 0x520 JUMPI PUSH1 0x0 DUP1 REVERT JUMPDEST POP PUSH2 0x529 PUSH2 0x1421 JUMP JUMPDEST STOP JUMPDEST CALLVALUE DUP1 ISZERO PUSH2 0x537 JUMPI PUSH1 0x0 DUP1 REVERT JUMPDEST POP PUSH2 0x540 PUSH2 0x14D9 JUMP JUMPDEST PUSH1 0x40 MLOAD PUSH2 0x54D SWAP2 SWAP1 PUSH2 0x2FCB JUMP JUMPDEST PUSH1 0x40 MLOAD DUP1 SWAP2 SUB SWAP1 RETURN JUMPDEST CALLVALUE DUP1 ISZERO PUSH2 0x562 JUMPI PUSH1 0x0 DUP1 REVERT JUMPDEST POP PUSH2 0x57D PUSH1 0x4 DUP1 CALLDATASIZE SUB DUP2 ADD SWAP1 PUSH2 0x578 SWAP2 SWAP1 PUSH2 0x2D84 JUMP JUMPDEST PUSH2 0x1503 JUMP JUMPDEST PUSH1 0x40 MLOAD PUSH2 0x58C SWAP4 SWAP3 SWAP2 SWAP1 PUSH2 0x2DCA JUMP JUMPDEST PUSH1 0x40 MLOAD DUP1 SWAP2 SUB SWAP1 RETURN JUMPDEST CALLVALUE DUP1 ISZERO PUSH2 0x5A1 JUMPI PUSH1 0x0 DUP1 REVERT JUMPDEST POP PUSH2 0x5AA PUSH2 0x152D JUMP JUMPDEST STOP JUMPDEST CALLVALUE DUP1 ISZERO PUSH2 0x5B8 JUMPI PUSH1 0x0 DUP1 REVERT JUMPDEST POP PUSH2 0x5D3 PUSH1 0x4 DUP1 CALLDATASIZE SUB DUP2 ADD SWAP1 PUSH2 0x5CE SWAP2 SWAP1 PUSH2 0x2D84 JUMP JUMPDEST PUSH2 0x16A2 JUMP JUMPDEST PUSH1 0x40 MLOAD PUSH2 0x5E0 SWAP2 SWAP1 PUSH2 0x2E5A JUMP JUMPDEST PUSH1 0x40 MLOAD DUP1 SWAP2 SUB SWAP1 RETURN JUMPDEST CALLVALUE DUP1 ISZERO PUSH2 0x5F5 JUMPI PUSH1 0x0 DUP1 REVERT JUMPDEST POP PUSH2 0x610 PUSH1 0x4 DUP1 CALLDATASIZE SUB DUP2 ADD SWAP1 PUSH2 0x60B SWAP2 SWAP1 PUSH2 0x2E2D JUMP JUMPDEST PUSH2 0x174C JUMP JUMPDEST STOP JUMPDEST CALLVALUE DUP1 ISZERO PUSH2 0x61E JUMPI PUSH1 0x0 DUP1 REVERT JUMPDEST POP PUSH2 0x639 PUSH1 0x4 DUP1 CALLDATASIZE SUB DUP2 ADD SWAP1 PUSH2 0x634 SWAP2 SWAP1 PUSH2 0x2E2D JUMP JUMPDEST PUSH2 0x18F2 JUMP JUMPDEST STOP JUMPDEST CALLVALUE DUP1 ISZERO PUSH2 0x647 JUMPI PUSH1 0x0 DUP1 REVERT JUMPDEST POP PUSH2 0x650 PUSH2 0x201A JUMP JUMPDEST PUSH1 0x40 MLOAD PUSH2 0x65D SWAP2 SWAP1 PUSH2 0x2E5A JUMP JUMPDEST PUSH1 0x40 MLOAD DUP1 SWAP2 SUB SWAP1 RETURN JUMPDEST CALLVALUE DUP1 ISZERO PUSH2 0x672 JUMPI PUSH1 0x0 DUP1 REVERT JUMPDEST POP PUSH2 0x68D PUSH1 0x4 DUP1 CALLDATASIZE SUB DUP2 ADD SWAP1 PUSH2 0x688 SWAP2 SWAP1 PUSH2 0x2E2D JUMP JUMPDEST PUSH2 0x2034 JUMP JUMPDEST STOP JUMPDEST CALLVALUE DUP1 ISZERO PUSH2 0x69B JUMPI PUSH1 0x0 DUP1 REVERT JUMPDEST POP PUSH2 0x6B6 PUSH1 0x4 DUP1 CALLDATASIZE SUB DUP2 ADD SWAP1 PUSH2 0x6B1 SWAP2 SWAP1 PUSH2 0x2E2D JUMP JUMPDEST PUSH2 0x221E JUMP JUMPDEST PUSH1 0x40 MLOAD PUSH2 0x6C3 SWAP2 SWAP1 PUSH2 0x304A JUMP JUMPDEST PUSH1 0x40 MLOAD DUP1 SWAP2 SUB SWAP1 RETURN JUMPDEST CALLVALUE DUP1 ISZERO PUSH2 0x6D8 JUMPI PUSH1 0x0 DUP1 REVERT JUMPDEST POP PUSH2 0x6F3 PUSH1 0x4 DUP1 CALLDATASIZE SUB DUP2 ADD SWAP1 PUSH2 0x6EE SWAP2 SWAP1 PUSH2 0x2D84 JUMP JUMPDEST PUSH2 0x22C9 JUMP JUMPDEST STOP JUMPDEST PUSH1 0x2 PUSH1 0x0 SWAP1 SLOAD SWAP1 PUSH2 0x100 EXP SWAP1 DIV PUSH20 0xFFFFFFFFFFFFFFFFFFFFFFFFFFFFFFFFFFFFFFFF AND DUP2 JUMP JUMPDEST PUSH1 0x0 DUP1 PUSH1 0x0 DUP1 PUSH1 0x6 PUSH1 0x0 DUP7 PUSH20 0xFFFFFFFFFFFFFFFFFFFFFFFFFFFFFFFFFFFFFFFF AND PUSH20 0xFFFFFFFFFFFFFFFFFFFFFFFFFFFFFFFFFFFFFFFF AND DUP2 MSTORE PUSH1 0x20 ADD SWAP1 DUP2 MSTORE PUSH1 0x20 ADD PUSH1 0x0 KECCAK256 PUSH1 0x40 MLOAD DUP1 PUSH1 0x60 ADD PUSH1 0x40 MSTORE SWAP1 DUP2 PUSH1 0x0 DUP3 ADD SLOAD DUP2 MSTORE PUSH1 0x20 ADD PUSH1 0x1 DUP3 ADD SLOAD DUP2 MSTORE PUSH1 0x20 ADD PUSH1 0x2 DUP3 ADD SLOAD DUP2 MSTORE POP POP SWAP1 POP PUSH1 0x0 DUP2 PUSH1 0x20 ADD MLOAD TIMESTAMP PUSH2 0x79D SWAP2 SWAP1 PUSH2 0x3094 JUMP JUMPDEST SWAP1 POP PUSH1 0x0 PUSH8 0xDE0B6B3A7640000 DUP3 PUSH1 0x5 SLOAD DUP6 PUSH1 0x0 ADD MLOAD PUSH2 0x7BD SWAP2 SWAP1 PUSH2 0x30C8 JUMP JUMPDEST PUSH2 0x7C7 SWAP2 SWAP1 PUSH2 0x30C8 JUMP JUMPDEST PUSH2 0x7D1 SWAP2 SWAP1 PUSH2 0x3139 JUMP JUMPDEST SWAP1 POP DUP3 PUSH1 0x20 ADD MLOAD DUP4 PUSH1 0x0 ADD MLOAD DUP3 DUP6 PUSH1 0x40 ADD MLOAD PUSH2 0x7ED SWAP2 SWAP1 PUSH2 0x316A JUMP JUMPDEST SWAP6 POP SWAP6 POP SWAP6 POP POP POP POP SWAP2 SWAP4 SWAP1 SWAP3 POP JUMP JUMPDEST PUSH1 0xA PUSH1 0x0 SWAP1 SLOAD SWAP1 PUSH2 0x100 EXP SWAP1 DIV PUSH1 0xFF AND ISZERO PUSH2 0x84D JUMPI PUSH1 0x40 MLOAD PUSH32 0x8C379A000000000000000000000000000000000000000000000000000000000 DUP2 MSTORE PUSH1 0x4 ADD PUSH2 0x844 SWAP1 PUSH2 0x31EA JUMP JUMPDEST PUSH1 0x40 MLOAD DUP1 SWAP2 SUB SWAP1 REVERT JUMPDEST PUSH2 0x855 PUSH2 0x2370 JUMP JUMPDEST PUSH1 0x0 PUSH1 0x9 PUSH1 0x0 CALLER PUSH20 0xFFFFFFFFFFFFFFFFFFFFFFFFFFFFFFFFFFFFFFFF AND PUSH20 0xFFFFFFFFFFFFFFFFFFFFFFFFFFFFFFFFFFFFFFFF AND DUP2 MSTORE PUSH1 0x20 ADD SWAP1 DUP2 MSTORE PUSH1 0x20 ADD PUSH1 0x0 KECCAK256 SWAP1 POP PUSH1 0x0 DUP2 PUSH1 0x1 ADD SLOAD EQ PUSH2 0x8DF JUMPI PUSH1 0x40 MLOAD PUSH32 0x8C379A000000000000000000000000000000000000000000000000000000000 DUP2 MSTORE PUSH1 0x4 ADD PUSH2 0x8D6 SWAP1 PUSH2 0x327C JUMP JUMPDEST PUSH1 0x40 MLOAD DUP1 SWAP2 SUB SWAP1 REVERT JUMPDEST DUP2 DUP2 PUSH1 0x0 ADD SLOAD LT ISZERO PUSH2 0x926 JUMPI PUSH1 0x40 MLOAD PUSH32 0x8C379A000000000000000000000000000000000000000000000000000000000 DUP2 MSTORE PUSH1 0x4 ADD PUSH2 0x91D SWAP1 PUSH2 0x32E8 JUMP JUMPDEST PUSH1 0x40 MLOAD DUP1 SWAP2 SUB SWAP1 REVERT JUMPDEST DUP2 DUP2 PUSH1 0x0 ADD PUSH1 0x0 DUP3 DUP3 SLOAD PUSH2 0x93A SWAP2 SWAP1 PUSH2 0x3094 JUMP JUMPDEST SWAP3 POP POP DUP2 SWAP1 SSTORE POP PUSH2 0x98E CALLER DUP4 PUSH1 0x3 PUSH1 0x0 SWAP1 SLOAD SWAP1 PUSH2 0x100 EXP SWAP1 DIV PUSH20 0xFFFFFFFFFFFFFFFFFFFFFFFFFFFFFFFFFFFFFFFF AND PUSH20 0xFFFFFFFFFFFFFFFFFFFFFFFFFFFFFFFFFFFFFFFF AND PUSH2 0x23B6 SWAP1 SWAP3 SWAP2 SWAP1 PUSH4 0xFFFFFFFF AND JUMP JUMPDEST PUSH2 0x997 CALLER PUSH2 0xF2D JUMP JUMPDEST POP CALLER PUSH20 0xFFFFFFFFFFFFFFFFFFFFFFFFFFFFFFFFFFFFFFFF AND PUSH32 0xC30FCFBCAAC9E0DEFFA719714EAA82396FF506A0D0D0EEBE170830177288715D DUP4 PUSH1 0x40 MLOAD PUSH2 0x9DE SWAP2 SWAP1 PUSH2 0x2E5A JUMP JUMPDEST PUSH1 0x40 MLOAD DUP1 SWAP2 SUB SWAP1 LOG2 POP PUSH2 0x9EF PUSH2 0x2435 JUMP JUMPDEST POP JUMP JUMPDEST PUSH1 0xA PUSH1 0x0 SWAP1 SLOAD SWAP1 PUSH2 0x100 EXP SWAP1 DIV PUSH1 0xFF AND ISZERO PUSH2 0xA42 JUMPI PUSH1 0x40 MLOAD PUSH32 0x8C379A000000000000000000000000000000000000000000000000000000000 DUP2 MSTORE PUSH1 0x4 ADD PUSH2 0xA39 SWAP1 PUSH2 0x31EA JUMP JUMPDEST PUSH1 0x40 MLOAD DUP1 SWAP2 SUB SWAP1 REVERT JUMPDEST PUSH2 0xA4A PUSH2 0x2370 JUMP JUMPDEST PUSH1 0x0 PUSH1 0x9 PUSH1 0x0 CALLER PUSH20 0xFFFFFFFFFFFFFFFFFFFFFFFFFFFFFFFFFFFFFFFF AND PUSH20 0xFFFFFFFFFFFFFFFFFFFFFFFFFFFFFFFFFFFFFFFF AND DUP2 MSTORE PUSH1 0x20 ADD SWAP1 DUP2 MSTORE PUSH1 0x20 ADD PUSH1 0x0 KECCAK256 SWAP1 POP PUSH1 0x0 PUSH1 0x6 PUSH1 0x0 CALLER PUSH20 0xFFFFFFFFFFFFFFFFFFFFFFFFFFFFFFFFFFFFFFFF AND PUSH20 0xFFFFFFFFFFFFFFFFFFFFFFFFFFFFFFFFFFFFFFFF AND DUP2 MSTORE PUSH1 0x20 ADD SWAP1 DUP2 MSTORE PUSH1 0x20 ADD PUSH1 0x0 KECCAK256 SWAP1 POP PUSH1 0x0 DUP4 GT PUSH2 0xB13 JUMPI PUSH1 0x40 MLOAD PUSH32 0x8C379A000000000000000000000000000000000000000000000000000000000 DUP2 MSTORE PUSH1 0x4 ADD PUSH2 0xB0A SWAP1 PUSH2 0x337A JUMP JUMPDEST PUSH1 0x40 MLOAD DUP1 SWAP2 SUB SWAP1 REVERT JUMPDEST DUP3 DUP3 PUSH1 0x1 ADD SLOAD LT ISZERO PUSH2 0xB5A JUMPI PUSH1 0x40 MLOAD PUSH32 0x8C379A000000000000000000000000000000000000000000000000000000000 DUP2 MSTORE PUSH1 0x4 ADD PUSH2 0xB51 SWAP1 PUSH2 0x33E6 JUMP JUMPDEST PUSH1 0x40 MLOAD DUP1 SWAP2 SUB SWAP1 REVERT JUMPDEST PUSH1 0x0 PUSH2 0xB67 DUP5 PUSH1 0x6 PUSH2 0x243F JUMP JUMPDEST SWAP1 POP PUSH2 0xBB8 CALLER ADDRESS DUP7 PUSH1 0x2 PUSH1 0x0 SWAP1 SLOAD SWAP1 PUSH2 0x100 EXP SWAP1 DIV PUSH20 0xFFFFFFFFFFFFFFFFFFFFFFFFFFFFFFFFFFFFFFFF AND PUSH20 0xFFFFFFFFFFFFFFFFFFFFFFFFFFFFFFFFFFFFFFFF AND PUSH2 0x246D SWAP1 SWAP4 SWAP3 SWAP2 SWAP1 PUSH4 0xFFFFFFFF AND JUMP JUMPDEST DUP4 DUP4 PUSH1 0x1 ADD PUSH1 0x0 DUP3 DUP3 SLOAD PUSH2 0xBCC SWAP2 SWAP1 PUSH2 0x3094 JUMP JUMPDEST SWAP3 POP POP DUP2 SWAP1 SSTORE POP PUSH1 0x0 PUSH2 0xBDE DUP4 PUSH2 0x24EF JUMP JUMPDEST SWAP1 POP DUP1 DUP4 PUSH1 0x2 ADD PUSH1 0x0 DUP3 DUP3 SLOAD PUSH2 0xBF4 SWAP2 SWAP1 PUSH2 0x316A JUMP JUMPDEST SWAP3 POP POP DUP2 SWAP1 SSTORE POP DUP3 PUSH1 0x2 ADD SLOAD DUP3 LT PUSH2 0xC4F JUMPI PUSH1 0x0 DUP4 PUSH1 0x2 ADD SLOAD DUP4 PUSH2 0xC18 SWAP2 SWAP1 PUSH2 0x3094 JUMP JUMPDEST SWAP1 POP PUSH2 0xC25 DUP2 PUSH1 0x6 PUSH2 0x255C JUMP JUMPDEST DUP5 PUSH1 0x0 ADD PUSH1 0x0 DUP3 DUP3 SLOAD PUSH2 0xC38 SWAP2 SWAP1 PUSH2 0x3094 JUMP JUMPDEST SWAP3 POP POP DUP2 SWAP1 SSTORE POP PUSH1 0x0 DUP5 PUSH1 0x2 ADD DUP2 SWAP1 SSTORE POP POP PUSH2 0xC6B JUMP JUMPDEST DUP2 DUP4 PUSH1 0x2 ADD PUSH1 0x0 DUP3 DUP3 SLOAD PUSH2 0xC63 SWAP2 SWAP1 PUSH2 0x3094 JUMP JUMPDEST SWAP3 POP POP DUP2 SWAP1 SSTORE POP JUMPDEST TIMESTAMP DUP4 PUSH1 0x1 ADD DUP2 SWAP1 SSTORE POP PUSH2 0xC7D CALLER PUSH2 0xF2D JUMP JUMPDEST POP CALLER PUSH20 0xFFFFFFFFFFFFFFFFFFFFFFFFFFFFFFFFFFFFFFFF AND PUSH32 0x8B40A19342574242EFCF69E217BF200F74BBCE53A499C9498B1D8414779360D2 DUP7 PUSH1 0x40 MLOAD PUSH2 0xCC4 SWAP2 SWAP1 PUSH2 0x2E5A JUMP JUMPDEST PUSH1 0x40 MLOAD DUP1 SWAP2 SUB SWAP1 LOG2 POP POP POP POP PUSH2 0xCD8 PUSH2 0x2435 JUMP JUMPDEST POP JUMP JUMPDEST PUSH1 0xA PUSH1 0x0 SWAP1 SLOAD SWAP1 PUSH2 0x100 EXP SWAP1 DIV PUSH1 0xFF AND ISZERO PUSH2 0xD2B JUMPI PUSH1 0x40 MLOAD PUSH32 0x8C379A000000000000000000000000000000000000000000000000000000000 DUP2 MSTORE PUSH1 0x4 ADD PUSH2 0xD22 SWAP1 PUSH2 0x31EA JUMP JUMPDEST PUSH1 0x40 MLOAD DUP1 SWAP2 SUB SWAP1 REVERT JUMPDEST PUSH1 0x0 PUSH1 0x9 PUSH1 0x0 CALLER PUSH20 0xFFFFFFFFFFFFFFFFFFFFFFFFFFFFFFFFFFFFFFFF AND PUSH20 0xFFFFFFFFFFFFFFFFFFFFFFFFFFFFFFFFFFFFFFFF AND DUP2 MSTORE PUSH1 0x20 ADD SWAP1 DUP2 MSTORE PUSH1 0x20 ADD PUSH1 0x0 KECCAK256 PUSH1 0x1 ADD SLOAD EQ PUSH2 0xDB0 JUMPI PUSH1 0x40 MLOAD PUSH32 0x8C379A000000000000000000000000000000000000000000000000000000000 DUP2 MSTORE PUSH1 0x4 ADD PUSH2 0xDA7 SWAP1 PUSH2 0x3478 JUMP JUMPDEST PUSH1 0x40 MLOAD DUP1 SWAP2 SUB SWAP1 REVERT JUMPDEST PUSH1 0x0 PUSH1 0x9 PUSH1 0x0 CALLER PUSH20 0xFFFFFFFFFFFFFFFFFFFFFFFFFFFFFFFFFFFFFFFF AND PUSH20 0xFFFFFFFFFFFFFFFFFFFFFFFFFFFFFFFFFFFFFFFF AND DUP2 MSTORE PUSH1 0x20 ADD SWAP1 DUP2 MSTORE PUSH1 0x20 ADD PUSH1 0x0 KECCAK256 PUSH1 0x3 ADD PUSH1 0x0 PUSH2 0x100 EXP DUP2 SLOAD DUP2 PUSH1 0xFF MUL NOT AND SWAP1 DUP4 ISZERO ISZERO MUL OR SWAP1 SSTORE POP CALLER PUSH20 0xFFFFFFFFFFFFFFFFFFFFFFFFFFFFFFFFFFFFFFFF AND PUSH32 0x192895F9A14975CE177E9612FD4F4459E31169D79CB650596BCCE0622BD70A92 PUSH1 0x40 MLOAD PUSH1 0x40 MLOAD DUP1 SWAP2 SUB SWAP1 LOG2 JUMP JUMPDEST PUSH2 0xE58 PUSH2 0x258A JUMP JUMPDEST PUSH1 0xA PUSH1 0x0 SWAP1 SLOAD SWAP1 PUSH2 0x100 EXP SWAP1 DIV PUSH1 0xFF AND PUSH2 0xEA7 JUMPI PUSH1 0x40 MLOAD PUSH32 0x8C379A000000000000000000000000000000000000000000000000000000000 DUP2 MSTORE PUSH1 0x4 ADD PUSH2 0xE9E SWAP1 PUSH2 0x34E4 JUMP JUMPDEST PUSH1 0x40 MLOAD DUP1 SWAP2 SUB SWAP1 REVERT JUMPDEST PUSH1 0x0 PUSH1 0xA PUSH1 0x0 PUSH2 0x100 EXP DUP2 SLOAD DUP2 PUSH1 0xFF MUL NOT AND SWAP1 DUP4 ISZERO ISZERO MUL OR SWAP1 SSTORE POP CALLER PUSH20 0xFFFFFFFFFFFFFFFFFFFFFFFFFFFFFFFFFFFFFFFF AND PUSH32 0x5DB9EE0A495BF2E6FF9C91A7834C1BA4FDD244A5E8AA4E537BD38AEAE4B073AA PUSH1 0x40 MLOAD PUSH1 0x40 MLOAD DUP1 SWAP2 SUB SWAP1 LOG2 JUMP JUMPDEST PUSH1 0x3 PUSH1 0x0 SWAP1 SLOAD SWAP1 PUSH2 0x100 EXP SWAP1 DIV PUSH20 0xFFFFFFFFFFFFFFFFFFFFFFFFFFFFFFFFFFFFFFFF AND DUP2 JUMP JUMPDEST PUSH1 0x0 DUP1 PUSH1 0x9 PUSH1 0x0 DUP5 PUSH20 0xFFFFFFFFFFFFFFFFFFFFFFFFFFFFFFFFFFFFFFFF AND PUSH20 0xFFFFFFFFFFFFFFFFFFFFFFFFFFFFFFFFFFFFFFFF AND DUP2 MSTORE PUSH1 0x20 ADD SWAP1 DUP2 MSTORE PUSH1 0x20 ADD PUSH1 0x0 KECCAK256 SWAP1 POP PUSH1 0x0 PUSH8 0xDE0B6B3A7640000 PUSH2 0xF84 PUSH2 0x1297 JUMP JUMPDEST DUP4 PUSH1 0x0 ADD SLOAD PUSH2 0xF93 SWAP2 SWAP1 PUSH2 0x30C8 JUMP JUMPDEST PUSH2 0xF9D SWAP2 SWAP1 PUSH2 0x3139 JUMP JUMPDEST SWAP1 POP PUSH1 0x0 PUSH1 0x2 DUP3 PUSH2 0xFAE SWAP2 SWAP1 PUSH2 0x3139 JUMP JUMPDEST SWAP1 POP PUSH1 0x0 PUSH2 0xFC1 DUP5 PUSH1 0x1 ADD SLOAD PUSH1 0x6 PUSH2 0x243F JUMP JUMPDEST SWAP1 POP DUP1 DUP3 GT PUSH2 0xFD7 JUMPI PUSH1 0x0 SWAP5 POP POP POP POP POP PUSH2 0x117C JUMP JUMPDEST DUP1 DUP3 PUSH2 0xFE3 SWAP2 SWAP1 PUSH2 0x3094 JUMP JUMPDEST DUP5 PUSH1 0x4 ADD DUP2 SWAP1 SSTORE POP PUSH2 0x1029 PUSH1 0x40 MLOAD DUP1 PUSH1 0x40 ADD PUSH1 0x40 MSTORE DUP1 PUSH1 0x15 DUP2 MSTORE PUSH1 0x20 ADD PUSH32 0x496E2063616C63756C6174654D6178426F72726F770000000000000000000000 DUP2 MSTORE POP PUSH2 0x2611 JUMP JUMPDEST PUSH2 0x106C PUSH1 0x40 MLOAD DUP1 PUSH1 0x40 ADD PUSH1 0x40 MSTORE DUP1 PUSH1 0x18 DUP2 MSTORE PUSH1 0x20 ADD PUSH32 0x6163636F756E742E636F6C6C61746572616C416D6F756E740000000000000000 DUP2 MSTORE POP DUP6 PUSH1 0x0 ADD SLOAD PUSH2 0x26AA JUMP JUMPDEST PUSH2 0x10AF PUSH1 0x40 MLOAD DUP1 PUSH1 0x40 ADD PUSH1 0x40 MSTORE DUP1 PUSH1 0x12 DUP2 MSTORE PUSH1 0x20 ADD PUSH32 0x6163636F756E742E64656274416D6F756E740000000000000000000000000000 DUP2 MSTORE POP DUP6 PUSH1 0x1 ADD SLOAD PUSH2 0x26AA JUMP JUMPDEST PUSH2 0x10EE PUSH1 0x40 MLOAD DUP1 PUSH1 0x40 ADD PUSH1 0x40 MSTORE DUP1 PUSH1 0xF DUP2 MSTORE PUSH1 0x20 ADD PUSH32 0x636F6C6C61746572616C56616C75650000000000000000000000000000000000 DUP2 MSTORE POP DUP5 PUSH2 0x26AA JUMP JUMPDEST PUSH2 0x112D PUSH1 0x40 MLOAD DUP1 PUSH1 0x40 ADD PUSH1 0x40 MSTORE DUP1 PUSH1 0xD DUP2 MSTORE PUSH1 0x20 ADD PUSH32 0x6D6178426F72726F7761626C6500000000000000000000000000000000000000 DUP2 MSTORE POP DUP4 PUSH2 0x26AA JUMP JUMPDEST PUSH2 0x1170 PUSH1 0x40 MLOAD DUP1 PUSH1 0x40 ADD PUSH1 0x40 MSTORE DUP1 PUSH1 0x11 DUP2 MSTORE PUSH1 0x20 ADD PUSH32 0x6163636F756E742E6D6178426F72726F77000000000000000000000000000000 DUP2 MSTORE POP DUP6 PUSH1 0x4 ADD SLOAD PUSH2 0x26AA JUMP JUMPDEST DUP4 PUSH1 0x4 ADD SLOAD SWAP5 POP POP POP POP POP JUMPDEST SWAP2 SWAP1 POP JUMP JUMPDEST PUSH1 0x0 PUSH1 0xA PUSH1 0x0 SWAP1 SLOAD SWAP1 PUSH2 0x100 EXP SWAP1 DIV PUSH1 0xFF AND SWAP1 POP SWAP1 JUMP JUMPDEST PUSH4 0x1E13380 DUP2 JUMP JUMPDEST PUSH1 0x9 PUSH1 0x20 MSTORE DUP1 PUSH1 0x0 MSTORE PUSH1 0x40 PUSH1 0x0 KECCAK256 PUSH1 0x0 SWAP2 POP SWAP1 POP DUP1 PUSH1 0x0 ADD SLOAD SWAP1 DUP1 PUSH1 0x1 ADD SLOAD SWAP1 DUP1 PUSH1 0x2 ADD SLOAD SWAP1 DUP1 PUSH1 0x3 ADD PUSH1 0x0 SWAP1 SLOAD SWAP1 PUSH2 0x100 EXP SWAP1 DIV PUSH1 0xFF AND SWAP1 DUP1 PUSH1 0x4 ADD SLOAD SWAP1 POP DUP6 JUMP JUMPDEST PUSH1 0x0 DUP1 PUSH1 0x9 PUSH1 0x0 DUP6 PUSH20 0xFFFFFFFFFFFFFFFFFFFFFFFFFFFFFFFFFFFFFFFF AND PUSH20 0xFFFFFFFFFFFFFFFFFFFFFFFFFFFFFFFFFFFFFFFF AND DUP2 MSTORE PUSH1 0x20 ADD SWAP1 DUP2 MSTORE PUSH1 0x20 ADD PUSH1 0x0 KECCAK256 SWAP1 POP PUSH1 0x0 PUSH2 0x1236 DUP3 PUSH1 0x0 ADD SLOAD PUSH2 0x13D4 JUMP JUMPDEST SWAP1 POP PUSH1 0x0 DUP5 DUP4 PUSH1 0x1 ADD SLOAD PUSH2 0x124A SWAP2 SWAP1 PUSH2 0x316A JUMP JUMPDEST SWAP1 POP PUSH1 0x0 DUP2 SUB PUSH2 0x127F JUMPI PUSH32 0xFFFFFFFFFFFFFFFFFFFFFFFFFFFFFFFFFFFFFFFFFFFFFFFFFFFFFFFFFFFFFFFF SWAP4 POP POP POP POP PUSH2 0x1291 JUMP JUMPDEST DUP1 DUP3 PUSH2 0x128B SWAP2 SWAP1 PUSH2 0x3139 JUMP JUMPDEST SWAP4 POP POP POP POP JUMPDEST SWAP3 SWAP2 POP POP JUMP JUMPDEST PUSH1 0x0 DUP1 PUSH2 0x12A4 PUSH1 0x2E PUSH2 0x221E JUMP JUMPDEST PUSH1 0x60 ADD MLOAD SWAP1 POP DUP1 SWAP2 POP POP SWAP1 JUMP JUMPDEST PUSH2 0x12B9 PUSH2 0x258A JUMP JUMPDEST PUSH2 0x12C3 PUSH1 0x0 PUSH2 0x2746 JUMP JUMPDEST JUMP JUMPDEST PUSH1 0x0 DUP1 PUSH1 0x0 DUP1 PUSH1 0x0 DUP1 PUSH1 0x0 DUP1 PUSH1 0x0 PUSH1 0x9 PUSH1 0x0 DUP12 PUSH20 0xFFFFFFFFFFFFFFFFFFFFFFFFFFFFFFFFFFFFFFFF AND PUSH20 0xFFFFFFFFFFFFFFFFFFFFFFFFFFFFFFFFFFFFFFFF AND DUP2 MSTORE PUSH1 0x20 ADD SWAP1 DUP2 MSTORE PUSH1 0x20 ADD PUSH1 0x0 KECCAK256 SWAP1 POP DUP1 PUSH1 0x0 ADD SLOAD SWAP9 POP DUP1 PUSH1 0x1 ADD SLOAD SWAP8 POP DUP1 PUSH1 0x3 ADD PUSH1 0x0 SWAP1 SLOAD SWAP1 PUSH2 0x100 EXP SWAP1 DIV PUSH1 0xFF AND SWAP7 POP PUSH2 0x133E PUSH2 0x1297 JUMP JUMPDEST SWAP6 POP PUSH2 0x1349 CALLER PUSH2 0x16A2 JUMP JUMPDEST SWAP4 POP PUSH2 0x138A PUSH1 0x40 MLOAD DUP1 PUSH1 0x40 ADD PUSH1 0x40 MSTORE DUP1 PUSH1 0x14 DUP2 MSTORE PUSH1 0x20 ADD PUSH32 0x2D2D2D2D2D2D2D206865616C7468466163746F72000000000000000000000000 DUP2 MSTORE POP DUP6 PUSH2 0x26AA JUMP JUMPDEST PUSH8 0xDE0B6B3A7640000 PUSH2 0x139B PUSH2 0x1297 JUMP JUMPDEST DUP3 PUSH1 0x0 ADD SLOAD PUSH2 0x13AA SWAP2 SWAP1 PUSH2 0x30C8 JUMP JUMPDEST PUSH2 0x13B4 SWAP2 SWAP1 PUSH2 0x3139 JUMP JUMPDEST SWAP5 POP DUP1 PUSH1 0x4 ADD SLOAD SWAP3 POP PUSH1 0x4 SLOAD SWAP2 POP POP SWAP2 SWAP4 SWAP6 SWAP8 POP SWAP2 SWAP4 SWAP6 SWAP8 JUMP JUMPDEST PUSH1 0x4 SLOAD DUP2 JUMP JUMPDEST PUSH1 0x0 DUP1 PUSH2 0x13DF PUSH2 0x1297 JUMP JUMPDEST SWAP1 POP PUSH1 0x0 PUSH8 0xDE0B6B3A7640000 DUP3 PUSH2 0x13F7 SWAP2 SWAP1 PUSH2 0x3139 JUMP JUMPDEST PUSH8 0xDE0B6B3A7640000 DUP6 PUSH2 0x140B SWAP2 SWAP1 PUSH2 0x3139 JUMP JUMPDEST PUSH2 0x1415 SWAP2 SWAP1 PUSH2 0x30C8 JUMP JUMPDEST SWAP1 POP DUP1 SWAP3 POP POP POP SWAP2 SWAP1 POP JUMP JUMPDEST PUSH2 0x1429 PUSH2 0x258A JUMP JUMPDEST PUSH1 0xA PUSH1 0x0 SWAP1 SLOAD SWAP1 PUSH2 0x100 EXP SWAP1 DIV PUSH1 0xFF AND ISZERO PUSH2 0x1479 JUMPI PUSH1 0x40 MLOAD PUSH32 0x8C379A000000000000000000000000000000000000000000000000000000000 DUP2 MSTORE PUSH1 0x4 ADD PUSH2 0x1470 SWAP1 PUSH2 0x31EA JUMP JUMPDEST PUSH1 0x40 MLOAD DUP1 SWAP2 SUB SWAP1 REVERT JUMPDEST PUSH1 0x1 PUSH1 0xA PUSH1 0x0 PUSH2 0x100 EXP DUP2 SLOAD DUP2 PUSH1 0xFF MUL NOT AND SWAP1 DUP4 ISZERO ISZERO MUL OR SWAP1 SSTORE POP CALLER PUSH20 0xFFFFFFFFFFFFFFFFFFFFFFFFFFFFFFFFFFFFFFFF AND PUSH32 0x62E78CEA01BEE320CD4E420270B5EA74000D11B0C9F74754EBDBFC544B05A258 PUSH1 0x40 MLOAD PUSH1 0x40 MLOAD DUP1 SWAP2 SUB SWAP1 LOG2 JUMP JUMPDEST PUSH1 0x0 PUSH1 0x1 PUSH1 0x0 SWAP1 SLOAD SWAP1 PUSH2 0x100 EXP SWAP1 DIV PUSH20 0xFFFFFFFFFFFFFFFFFFFFFFFFFFFFFFFFFFFFFFFF AND SWAP1 POP SWAP1 JUMP JUMPDEST PUSH1 0x6 PUSH1 0x20 MSTORE DUP1 PUSH1 0x0 MSTORE PUSH1 0x40 PUSH1 0x0 KECCAK256 PUSH1 0x0 SWAP2 POP SWAP1 POP DUP1 PUSH1 0x0 ADD SLOAD SWAP1 DUP1 PUSH1 0x1 ADD SLOAD SWAP1 DUP1 PUSH1 0x2 ADD SLOAD SWAP1 POP DUP4 JUMP JUMPDEST PUSH1 0xA PUSH1 0x0 SWAP1 SLOAD SWAP1 PUSH2 0x100 EXP SWAP1 DIV PUSH1 0xFF AND ISZERO PUSH2 0x157D JUMPI PUSH1 0x40 MLOAD PUSH32 0x8C379A000000000000000000000000000000000000000000000000000000000 DUP2 MSTORE PUSH1 0x4 ADD PUSH2 0x1574 SWAP1 PUSH2 0x31EA JUMP JUMPDEST PUSH1 0x40 MLOAD DUP1 SWAP2 SUB SWAP1 REVERT JUMPDEST PUSH1 0x0 PUSH1 0x9 PUSH1 0x0 CALLER PUSH20 0xFFFFFFFFFFFFFFFFFFFFFFFFFFFFFFFFFFFFFFFF AND PUSH20 0xFFFFFFFFFFFFFFFFFFFFFFFFFFFFFFFFFFFFFFFF AND DUP2 MSTORE PUSH1 0x20 ADD SWAP1 DUP2 MSTORE PUSH1 0x20 ADD PUSH1 0x0 KECCAK256 PUSH1 0x0 ADD SLOAD GT PUSH2 0x1602 JUMPI PUSH1 0x40 MLOAD PUSH32 0x8C379A000000000000000000000000000000000000000000000000000000000 DUP2 MSTORE PUSH1 0x4 ADD PUSH2 0x15F9 SWAP1 PUSH2 0x3550 JUMP JUMPDEST PUSH1 0x40 MLOAD DUP1 SWAP2 SUB SWAP1 REVERT JUMPDEST PUSH1 0x1 PUSH1 0x9 PUSH1 0x0 CALLER PUSH20 0xFFFFFFFFFFFFFFFFFFFFFFFFFFFFFFFFFFFFFFFF AND PUSH20 0xFFFFFFFFFFFFFFFFFFFFFFFFFFFFFFFFFFFFFFFF AND DUP2 MSTORE PUSH1 0x20 ADD SWAP1 DUP2 MSTORE PUSH1 0x20 ADD PUSH1 0x0 KECCAK256 PUSH1 0x3 ADD PUSH1 0x0 PUSH2 0x100 EXP DUP2 SLOAD DUP2 PUSH1 0xFF MUL NOT AND SWAP1 DUP4 ISZERO ISZERO MUL OR SWAP1 SSTORE POP CALLER PUSH20 0xFFFFFFFFFFFFFFFFFFFFFFFFFFFFFFFFFFFFFFFF AND PUSH32 0x689FA3F4FD14B3753D33C934F2648D75824D79933D875ED4AE8FEB3E8622AEA0 PUSH1 0x40 MLOAD PUSH1 0x40 MLOAD DUP1 SWAP2 SUB SWAP1 LOG2 JUMP JUMPDEST PUSH1 0x0 DUP1 PUSH1 0x9 PUSH1 0x0 DUP5 PUSH20 0xFFFFFFFFFFFFFFFFFFFFFFFFFFFFFFFFFFFFFFFF AND PUSH20 0xFFFFFFFFFFFFFFFFFFFFFFFFFFFFFFFFFFFFFFFF AND DUP2 MSTORE PUSH1 0x20 ADD SWAP1 DUP2 MSTORE PUSH1 0x20 ADD PUSH1 0x0 KECCAK256 SWAP1 POP PUSH1 0x0 DUP2 PUSH1 0x1 ADD SLOAD SUB PUSH2 0x171B JUMPI PUSH32 0xFFFFFFFFFFFFFFFFFFFFFFFFFFFFFFFFFFFFFFFFFFFFFFFFFFFFFFFFFFFFFFFF SWAP2 POP POP PUSH2 0x1747 JUMP JUMPDEST PUSH1 0x0 DUP2 PUSH1 0x4 ADD SLOAD SWAP1 POP PUSH2 0x1733 DUP3 PUSH1 0x1 ADD SLOAD PUSH1 0x6 PUSH2 0x243F JUMP JUMPDEST DUP3 PUSH1 0x4 ADD SLOAD PUSH2 0x1742 SWAP2 SWAP1 PUSH2 0x3139 JUMP JUMPDEST SWAP3 POP POP POP JUMPDEST SWAP2 SWAP1 POP JUMP JUMPDEST PUSH1 0xA PUSH1 0x0 SWAP1 SLOAD SWAP1 PUSH2 0x100 EXP SWAP1 DIV PUSH1 0xFF AND ISZERO PUSH2 0x179C JUMPI PUSH1 0x40 MLOAD PUSH32 0x8C379A000000000000000000000000000000000000000000000000000000000 DUP2 MSTORE PUSH1 0x4 ADD PUSH2 0x1793 SWAP1 PUSH2 0x31EA JUMP JUMPDEST PUSH1 0x40 MLOAD DUP1 SWAP2 SUB SWAP1 REVERT JUMPDEST PUSH2 0x17A4 PUSH2 0x2370 JUMP JUMPDEST PUSH1 0x0 DUP2 GT PUSH2 0x17E7 JUMPI PUSH1 0x40 MLOAD PUSH32 0x8C379A000000000000000000000000000000000000000000000000000000000 DUP2 MSTORE PUSH1 0x4 ADD PUSH2 0x17DE SWAP1 PUSH2 0x35E2 JUMP JUMPDEST PUSH1 0x40 MLOAD DUP1 SWAP2 SUB SWAP1 REVERT JUMPDEST PUSH2 0x1836 CALLER ADDRESS DUP4 PUSH1 0x3 PUSH1 0x0 SWAP1 SLOAD SWAP1 PUSH2 0x100 EXP SWAP1 DIV PUSH20 0xFFFFFFFFFFFFFFFFFFFFFFFFFFFFFFFFFFFFFFFF AND PUSH20 0xFFFFFFFFFFFFFFFFFFFFFFFFFFFFFFFFFFFFFFFF AND PUSH2 0x246D SWAP1 SWAP4 SWAP3 SWAP2 SWAP1 PUSH4 0xFFFFFFFF AND JUMP JUMPDEST DUP1 PUSH1 0x9 PUSH1 0x0 CALLER PUSH20 0xFFFFFFFFFFFFFFFFFFFFFFFFFFFFFFFFFFFFFFFF AND PUSH20 0xFFFFFFFFFFFFFFFFFFFFFFFFFFFFFFFFFFFFFFFF AND DUP2 MSTORE PUSH1 0x20 ADD SWAP1 DUP2 MSTORE PUSH1 0x20 ADD PUSH1 0x0 KECCAK256 PUSH1 0x0 ADD PUSH1 0x0 DUP3 DUP3 SLOAD PUSH2 0x1888 SWAP2 SWAP1 PUSH2 0x316A JUMP JUMPDEST SWAP3 POP POP DUP2 SWAP1 SSTORE POP PUSH2 0x1898 CALLER PUSH2 0xF2D JUMP JUMPDEST POP CALLER PUSH20 0xFFFFFFFFFFFFFFFFFFFFFFFFFFFFFFFFFFFFFFFF AND PUSH32 0xD7243F6F8212D5188FD054141CF6EA89CFC0D91FACB8C3AFE2F88A1358480142 DUP3 PUSH1 0x40 MLOAD PUSH2 0x18DF SWAP2 SWAP1 PUSH2 0x2E5A JUMP JUMPDEST PUSH1 0x40 MLOAD DUP1 SWAP2 SUB SWAP1 LOG2 PUSH2 0x18EF PUSH2 0x2435 JUMP JUMPDEST POP JUMP JUMPDEST PUSH1 0xA PUSH1 0x0 SWAP1 SLOAD SWAP1 PUSH2 0x100 EXP SWAP1 DIV PUSH1 0xFF AND ISZERO PUSH2 0x1942 JUMPI PUSH1 0x40 MLOAD PUSH32 0x8C379A000000000000000000000000000000000000000000000000000000000 DUP2 MSTORE PUSH1 0x4 ADD PUSH2 0x1939 SWAP1 PUSH2 0x31EA JUMP JUMPDEST PUSH1 0x40 MLOAD DUP1 SWAP2 SUB SWAP1 REVERT JUMPDEST PUSH2 0x194A PUSH2 0x2370 JUMP JUMPDEST PUSH1 0x0 PUSH1 0x9 PUSH1 0x0 CALLER PUSH20 0xFFFFFFFFFFFFFFFFFFFFFFFFFFFFFFFFFFFFFFFF AND PUSH20 0xFFFFFFFFFFFFFFFFFFFFFFFFFFFFFFFFFFFFFFFF AND DUP2 MSTORE PUSH1 0x20 ADD SWAP1 DUP2 MSTORE PUSH1 0x20 ADD PUSH1 0x0 KECCAK256 SWAP1 POP PUSH1 0x0 PUSH1 0x6 PUSH1 0x0 CALLER PUSH20 0xFFFFFFFFFFFFFFFFFFFFFFFFFFFFFFFFFFFFFFFF AND PUSH20 0xFFFFFFFFFFFFFFFFFFFFFFFFFFFFFFFFFFFFFFFF AND DUP2 MSTORE PUSH1 0x20 ADD SWAP1 DUP2 MSTORE PUSH1 0x20 ADD PUSH1 0x0 KECCAK256 SWAP1 POP DUP2 PUSH1 0x3 ADD PUSH1 0x0 SWAP1 SLOAD SWAP1 PUSH2 0x100 EXP SWAP1 DIV PUSH1 0xFF AND PUSH2 0x1A21 JUMPI PUSH1 0x40 MLOAD PUSH32 0x8C379A000000000000000000000000000000000000000000000000000000000 DUP2 MSTORE PUSH1 0x4 ADD PUSH2 0x1A18 SWAP1 PUSH2 0x364E JUMP JUMPDEST PUSH1 0x40 MLOAD DUP1 SWAP2 SUB SWAP1 REVERT JUMPDEST PUSH1 0x0 DUP3 PUSH1 0x0 ADD SLOAD GT PUSH2 0x1A68 JUMPI PUSH1 0x40 MLOAD PUSH32 0x8C379A000000000000000000000000000000000000000000000000000000000 DUP2 MSTORE PUSH1 0x4 ADD PUSH2 0x1A5F SWAP1 PUSH2 0x32E8 JUMP JUMPDEST PUSH1 0x40 MLOAD DUP1 SWAP2 SUB SWAP1 REVERT JUMPDEST PUSH1 0x0 PUSH2 0x1A73 CALLER PUSH2 0xF2D JUMP JUMPDEST SWAP1 POP PUSH1 0x0 PUSH2 0x1A82 DUP6 PUSH1 0x6 PUSH2 0x243F JUMP JUMPDEST SWAP1 POP DUP2 DUP2 GT ISZERO PUSH2 0x1AC7 JUMPI PUSH1 0x40 MLOAD PUSH32 0x8C379A000000000000000000000000000000000000000000000000000000000 DUP2 MSTORE PUSH1 0x4 ADD PUSH2 0x1ABE SWAP1 PUSH2 0x36E0 JUMP JUMPDEST PUSH1 0x40 MLOAD DUP1 SWAP2 SUB SWAP1 REVERT JUMPDEST DUP5 PUSH1 0x2 PUSH1 0x0 SWAP1 SLOAD SWAP1 PUSH2 0x100 EXP SWAP1 DIV PUSH20 0xFFFFFFFFFFFFFFFFFFFFFFFFFFFFFFFFFFFFFFFF AND PUSH20 0xFFFFFFFFFFFFFFFFFFFFFFFFFFFFFFFFFFFFFFFF AND PUSH4 0x70A08231 ADDRESS PUSH1 0x40 MLOAD DUP3 PUSH4 0xFFFFFFFF AND PUSH1 0xE0 SHL DUP2 MSTORE PUSH1 0x4 ADD PUSH2 0x1B23 SWAP2 SWAP1 PUSH2 0x2FCB JUMP JUMPDEST PUSH1 0x20 PUSH1 0x40 MLOAD DUP1 DUP4 SUB DUP2 DUP7 GAS STATICCALL ISZERO DUP1 ISZERO PUSH2 0x1B40 JUMPI RETURNDATASIZE PUSH1 0x0 DUP1 RETURNDATACOPY RETURNDATASIZE PUSH1 0x0 REVERT JUMPDEST POP POP POP POP PUSH1 0x40 MLOAD RETURNDATASIZE PUSH1 0x1F NOT PUSH1 0x1F DUP3 ADD AND DUP3 ADD DUP1 PUSH1 0x40 MSTORE POP DUP2 ADD SWAP1 PUSH2 0x1B64 SWAP2 SWAP1 PUSH2 0x3715 JUMP JUMPDEST LT ISZERO PUSH2 0x1BA5 JUMPI PUSH1 0x40 MLOAD PUSH32 0x8C379A000000000000000000000000000000000000000000000000000000000 DUP2 MSTORE PUSH1 0x4 ADD PUSH2 0x1B9C SWAP1 PUSH2 0x378E JUMP JUMPDEST PUSH1 0x40 MLOAD DUP1 SWAP2 SUB SWAP1 REVERT JUMPDEST PUSH1 0x2 PUSH1 0x0 SWAP1 SLOAD SWAP1 PUSH2 0x100 EXP SWAP1 DIV PUSH20 0xFFFFFFFFFFFFFFFFFFFFFFFFFFFFFFFFFFFFFFFF AND PUSH20 0xFFFFFFFFFFFFFFFFFFFFFFFFFFFFFFFFFFFFFFFF AND PUSH4 0xA9059CBB CALLER DUP8 PUSH1 0x40 MLOAD DUP4 PUSH4 0xFFFFFFFF AND PUSH1 0xE0 SHL DUP2 MSTORE PUSH1 0x4 ADD PUSH2 0x1C02 SWAP3 SWAP2 SWAP1 PUSH2 0x37AE JUMP JUMPDEST PUSH1 0x20 PUSH1 0x40 MLOAD DUP1 DUP4 SUB DUP2 PUSH1 0x0 DUP8 GAS CALL ISZERO DUP1 ISZERO PUSH2 0x1C21 JUMPI RETURNDATASIZE PUSH1 0x0 DUP1 RETURNDATACOPY RETURNDATASIZE PUSH1 0x0 REVERT JUMPDEST POP POP POP POP PUSH1 0x40 MLOAD RETURNDATASIZE PUSH1 0x1F NOT PUSH1 0x1F DUP3 ADD AND DUP3 ADD DUP1 PUSH1 0x40 MSTORE POP DUP2 ADD SWAP1 PUSH2 0x1C45 SWAP2 SWAP1 PUSH2 0x3803 JUMP JUMPDEST PUSH2 0x1C84 JUMPI PUSH1 0x40 MLOAD PUSH32 0x8C379A000000000000000000000000000000000000000000000000000000000 DUP2 MSTORE PUSH1 0x4 ADD PUSH2 0x1C7B SWAP1 PUSH2 0x387C JUMP JUMPDEST PUSH1 0x40 MLOAD DUP1 SWAP2 SUB SWAP1 REVERT JUMPDEST PUSH2 0x1D2F PUSH1 0x40 MLOAD DUP1 PUSH1 0x40 ADD PUSH1 0x40 MSTORE DUP1 PUSH1 0x17 DUP2 MSTORE PUSH1 0x20 ADD PUSH32 0x696E204C656E64696E672E736F6C20626F72726F77200A000000000000000000 DUP2 MSTORE POP PUSH1 0x40 MLOAD DUP1 PUSH1 0x40 ADD PUSH1 0x40 MSTORE DUP1 PUSH1 0x6 DUP2 MSTORE PUSH1 0x20 ADD PUSH32 0x616D6F756E740000000000000000000000000000000000000000000000000000 DUP2 MSTORE POP DUP8 PUSH1 0x40 MLOAD DUP1 PUSH1 0x40 ADD PUSH1 0x40 MSTORE DUP1 PUSH1 0x1 DUP2 MSTORE PUSH1 0x20 ADD PUSH32 0xA00000000000000000000000000000000000000000000000000000000000000 DUP2 MSTORE POP PUSH2 0x280C JUMP JUMPDEST PUSH2 0x1E3F PUSH1 0x40 MLOAD DUP1 PUSH1 0x40 ADD PUSH1 0x40 MSTORE DUP1 PUSH1 0x13 DUP2 MSTORE PUSH1 0x20 ADD PUSH32 0x75736463546F6B656E2E62616C616E63654F6600000000000000000000000000 DUP2 MSTORE POP PUSH1 0x2 PUSH1 0x0 SWAP1 SLOAD SWAP1 PUSH2 0x100 EXP SWAP1 DIV PUSH20 0xFFFFFFFFFFFFFFFFFFFFFFFFFFFFFFFFFFFFFFFF AND PUSH20 0xFFFFFFFFFFFFFFFFFFFFFFFFFFFFFFFFFFFFFFFF AND PUSH4 0x70A08231 ADDRESS PUSH1 0x40 MLOAD DUP3 PUSH4 0xFFFFFFFF AND PUSH1 0xE0 SHL DUP2 MSTORE PUSH1 0x4 ADD PUSH2 0x1DC3 SWAP2 SWAP1 PUSH2 0x2FCB JUMP JUMPDEST PUSH1 0x20 PUSH1 0x40 MLOAD DUP1 DUP4 SUB DUP2 DUP7 GAS STATICCALL ISZERO DUP1 ISZERO PUSH2 0x1DE0 JUMPI RETURNDATASIZE PUSH1 0x0 DUP1 RETURNDATACOPY RETURNDATASIZE PUSH1 0x0 REVERT JUMPDEST POP POP POP POP PUSH1 0x40 MLOAD RETURNDATASIZE PUSH1 0x1F NOT PUSH1 0x1F DUP3 ADD AND DUP3 ADD DUP1 PUSH1 0x40 MSTORE POP DUP2 ADD SWAP1 PUSH2 0x1E04 SWAP2 SWAP1 PUSH2 0x3715 JUMP JUMPDEST PUSH1 0x40 MLOAD DUP1 PUSH1 0x40 ADD PUSH1 0x40 MSTORE DUP1 PUSH1 0x1 DUP2 MSTORE PUSH1 0x20 ADD PUSH32 0xA00000000000000000000000000000000000000000000000000000000000000 DUP2 MSTORE POP PUSH2 0x28AE JUMP JUMPDEST PUSH2 0x1E7E PUSH1 0x40 MLOAD DUP1 PUSH1 0x40 ADD PUSH1 0x40 MSTORE DUP1 PUSH1 0x9 DUP2 MSTORE PUSH1 0x20 ADD PUSH32 0x6D6178426F72726F770000000000000000000000000000000000000000000000 DUP2 MSTORE POP DUP4 PUSH2 0x26AA JUMP JUMPDEST PUSH2 0x1EBD PUSH1 0x40 MLOAD DUP1 PUSH1 0x40 ADD PUSH1 0x40 MSTORE DUP1 PUSH1 0x12 DUP2 MSTORE PUSH1 0x20 ADD PUSH32 0x616D6F756E74496E3138446563696D616C730000000000000000000000000000 DUP2 MSTORE POP DUP3 PUSH2 0x26AA JUMP JUMPDEST PUSH2 0x1F00 PUSH1 0x40 MLOAD DUP1 PUSH1 0x40 ADD PUSH1 0x40 MSTORE DUP1 PUSH1 0x18 DUP2 MSTORE PUSH1 0x20 ADD PUSH32 0x6163636F756E742E636F6C6C61746572616C416D6F756E740000000000000000 DUP2 MSTORE POP DUP6 PUSH1 0x0 ADD SLOAD PUSH2 0x26AA JUMP JUMPDEST DUP5 DUP5 PUSH1 0x1 ADD PUSH1 0x0 DUP3 DUP3 SLOAD PUSH2 0x1F14 SWAP2 SWAP1 PUSH2 0x316A JUMP JUMPDEST SWAP3 POP POP DUP2 SWAP1 SSTORE POP PUSH1 0x0 DUP4 PUSH1 0x0 ADD SLOAD GT ISZERO PUSH2 0x1F88 JUMPI PUSH1 0x0 DUP4 PUSH1 0x1 ADD SLOAD TIMESTAMP PUSH2 0x1F3A SWAP2 SWAP1 PUSH2 0x3094 JUMP JUMPDEST SWAP1 POP PUSH8 0xDE0B6B3A7640000 DUP2 PUSH1 0x5 SLOAD DUP7 PUSH1 0x0 ADD SLOAD PUSH2 0x1F58 SWAP2 SWAP1 PUSH2 0x30C8 JUMP JUMPDEST PUSH2 0x1F62 SWAP2 SWAP1 PUSH2 0x30C8 JUMP JUMPDEST PUSH2 0x1F6C SWAP2 SWAP1 PUSH2 0x3139 JUMP JUMPDEST DUP5 PUSH1 0x2 ADD PUSH1 0x0 DUP3 DUP3 SLOAD PUSH2 0x1F7F SWAP2 SWAP1 PUSH2 0x316A JUMP JUMPDEST SWAP3 POP POP DUP2 SWAP1 SSTORE POP POP JUMPDEST DUP5 DUP4 PUSH1 0x0 ADD PUSH1 0x0 DUP3 DUP3 SLOAD PUSH2 0x1F9C SWAP2 SWAP1 PUSH2 0x316A JUMP JUMPDEST SWAP3 POP POP DUP2 SWAP1 SSTORE POP TIMESTAMP DUP4 PUSH1 0x1 ADD DUP2 SWAP1 SSTORE POP PUSH2 0x1FB5 CALLER PUSH2 0xF2D JUMP JUMPDEST DUP5 PUSH1 0x4 ADD DUP2 SWAP1 SSTORE POP CALLER PUSH20 0xFFFFFFFFFFFFFFFFFFFFFFFFFFFFFFFFFFFFFFFF AND PUSH32 0x21C99C97FFD3B7E5F4AD64EAA03C732751AC124471129A7AA5EE0295AFE9B461 DUP7 PUSH1 0x40 MLOAD PUSH2 0x2003 SWAP2 SWAP1 PUSH2 0x2E5A JUMP JUMPDEST PUSH1 0x40 MLOAD DUP1 SWAP2 SUB SWAP1 LOG2 POP POP POP POP PUSH2 0x2017 PUSH2 0x2435 JUMP JUMPDEST POP JUMP JUMPDEST PUSH1 0x0 DUP1 PUSH2 0x2027 PUSH1 0x59 PUSH2 0x221E JUMP JUMPDEST PUSH1 0x60 ADD MLOAD SWAP1 POP DUP1 SWAP2 POP POP SWAP1 JUMP JUMPDEST PUSH2 0x203C PUSH2 0x258A JUMP JUMPDEST PUSH1 0xA PUSH1 0x0 SWAP1 SLOAD SWAP1 PUSH2 0x100 EXP SWAP1 DIV PUSH1 0xFF AND ISZERO PUSH2 0x208C JUMPI PUSH1 0x40 MLOAD PUSH32 0x8C379A000000000000000000000000000000000000000000000000000000000 DUP2 MSTORE PUSH1 0x4 ADD PUSH2 0x2083 SWAP1 PUSH2 0x31EA JUMP JUMPDEST PUSH1 0x40 MLOAD DUP1 SWAP2 SUB SWAP1 REVERT JUMPDEST PUSH2 0x2094 PUSH2 0x2370 JUMP JUMPDEST DUP1 PUSH1 0x2 PUSH1 0x0 SWAP1 SLOAD SWAP1 PUSH2 0x100 EXP SWAP1 DIV PUSH20 0xFFFFFFFFFFFFFFFFFFFFFFFFFFFFFFFFFFFFFFFF AND PUSH20 0xFFFFFFFFFFFFFFFFFFFFFFFFFFFFFFFFFFFFFFFF AND PUSH4 0x70A08231 ADDRESS PUSH1 0x40 MLOAD DUP3 PUSH4 0xFFFFFFFF AND PUSH1 0xE0 SHL DUP2 MSTORE PUSH1 0x4 ADD PUSH2 0x20F0 SWAP2 SWAP1 PUSH2 0x2FCB JUMP JUMPDEST PUSH1 0x20 PUSH1 0x40 MLOAD DUP1 DUP4 SUB DUP2 DUP7 GAS STATICCALL ISZERO DUP1 ISZERO PUSH2 0x210D JUMPI RETURNDATASIZE PUSH1 0x0 DUP1 RETURNDATACOPY RETURNDATASIZE PUSH1 0x0 REVERT JUMPDEST POP POP POP POP PUSH1 0x40 MLOAD RETURNDATASIZE PUSH1 0x1F NOT PUSH1 0x1F DUP3 ADD AND DUP3 ADD DUP1 PUSH1 0x40 MSTORE POP DUP2 ADD SWAP1 PUSH2 0x2131 SWAP2 SWAP1 PUSH2 0x3715 JUMP JUMPDEST LT ISZERO PUSH2 0x2172 JUMPI PUSH1 0x40 MLOAD PUSH32 0x8C379A000000000000000000000000000000000000000000000000000000000 DUP2 MSTORE PUSH1 0x4 ADD PUSH2 0x2169 SWAP1 PUSH2 0x390E JUMP JUMPDEST PUSH1 0x40 MLOAD DUP1 SWAP2 SUB SWAP1 REVERT JUMPDEST PUSH1 0x2 PUSH1 0x0 SWAP1 SLOAD SWAP1 PUSH2 0x100 EXP SWAP1 DIV PUSH20 0xFFFFFFFFFFFFFFFFFFFFFFFFFFFFFFFFFFFFFFFF AND PUSH20 0xFFFFFFFFFFFFFFFFFFFFFFFFFFFFFFFFFFFFFFFF AND PUSH4 0xA9059CBB CALLER DUP4 PUSH1 0x40 MLOAD DUP4 PUSH4 0xFFFFFFFF AND PUSH1 0xE0 SHL DUP2 MSTORE PUSH1 0x4 ADD PUSH2 0x21CF SWAP3 SWAP2 SWAP1 PUSH2 0x37AE JUMP JUMPDEST PUSH1 0x20 PUSH1 0x40 MLOAD DUP1 DUP4 SUB DUP2 PUSH1 0x0 DUP8 GAS CALL ISZERO DUP1 ISZERO PUSH2 0x21EE JUMPI RETURNDATASIZE PUSH1 0x0 DUP1 RETURNDATACOPY RETURNDATASIZE PUSH1 0x0 REVERT JUMPDEST POP POP POP POP PUSH1 0x40 MLOAD RETURNDATASIZE PUSH1 0x1F NOT PUSH1 0x1F DUP3 ADD AND DUP3 ADD DUP1 PUSH1 0x40 MSTORE POP DUP2 ADD SWAP1 PUSH2 0x2212 SWAP2 SWAP1 PUSH2 0x3803 JUMP JUMPDEST POP PUSH2 0x221B PUSH2 0x2435 JUMP JUMPDEST POP JUMP JUMPDEST PUSH2 0x2226 PUSH2 0x2BD2 JUMP JUMPDEST PUSH1 0x7 PUSH1 0x0 SWAP1 SLOAD SWAP1 PUSH2 0x100 EXP SWAP1 DIV PUSH20 0xFFFFFFFFFFFFFFFFFFFFFFFFFFFFFFFFFFFFFFFF AND PUSH20 0xFFFFFFFFFFFFFFFFFFFFFFFFFFFFFFFFFFFFFFFF AND PUSH4 0x89B94EA2 DUP4 PUSH1 0x40 MLOAD DUP3 PUSH4 0xFFFFFFFF AND PUSH1 0xE0 SHL DUP2 MSTORE PUSH1 0x4 ADD PUSH2 0x2281 SWAP2 SWAP1 PUSH2 0x2E5A JUMP JUMPDEST PUSH1 0x80 PUSH1 0x40 MLOAD DUP1 DUP4 SUB DUP2 DUP7 GAS STATICCALL ISZERO DUP1 ISZERO PUSH2 0x229E JUMPI RETURNDATASIZE PUSH1 0x0 DUP1 RETURNDATACOPY RETURNDATASIZE PUSH1 0x0 REVERT JUMPDEST POP POP POP POP PUSH1 0x40 MLOAD RETURNDATASIZE PUSH1 0x1F NOT PUSH1 0x1F DUP3 ADD AND DUP3 ADD DUP1 PUSH1 0x40 MSTORE POP DUP2 ADD SWAP1 PUSH2 0x22C2 SWAP2 SWAP1 PUSH2 0x3A37 JUMP JUMPDEST SWAP1 POP SWAP2 SWAP1 POP JUMP JUMPDEST PUSH2 0x22D1 PUSH2 0x258A JUMP JUMPDEST PUSH1 0x0 PUSH20 0xFFFFFFFFFFFFFFFFFFFFFFFFFFFFFFFFFFFFFFFF AND DUP2 PUSH20 0xFFFFFFFFFFFFFFFFFFFFFFFFFFFFFFFFFFFFFFFF AND SUB PUSH2 0x2343 JUMPI PUSH1 0x0 PUSH1 0x40 MLOAD PUSH32 0x1E4FBDF700000000000000000000000000000000000000000000000000000000 DUP2 MSTORE PUSH1 0x4 ADD PUSH2 0x233A SWAP2 SWAP1 PUSH2 0x2FCB JUMP JUMPDEST PUSH1 0x40 MLOAD DUP1 SWAP2 SUB SWAP1 REVERT JUMPDEST PUSH2 0x234C DUP2 PUSH2 0x2746 JUMP JUMPDEST POP JUMP JUMPDEST PUSH1 0x0 PUSH11 0x636F6E736F6C652E6C6F67 SWAP1 POP PUSH1 0x0 DUP1 DUP4 MLOAD PUSH1 0x20 DUP6 ADD DUP5 GAS STATICCALL POP POP POP JUMP JUMPDEST PUSH1 0x2 PUSH1 0x0 SLOAD SUB PUSH2 0x23AC JUMPI PUSH1 0x40 MLOAD PUSH32 0x3EE5AEB500000000000000000000000000000000000000000000000000000000 DUP2 MSTORE PUSH1 0x4 ADD PUSH1 0x40 MLOAD DUP1 SWAP2 SUB SWAP1 REVERT JUMPDEST PUSH1 0x2 PUSH1 0x0 DUP2 SWAP1 SSTORE POP JUMP JUMPDEST PUSH2 0x2430 DUP4 DUP5 PUSH20 0xFFFFFFFFFFFFFFFFFFFFFFFFFFFFFFFFFFFFFFFF AND PUSH4 0xA9059CBB DUP6 DUP6 PUSH1 0x40 MLOAD PUSH1 0x24 ADD PUSH2 0x23E9 SWAP3 SWAP2 SWAP1 PUSH2 0x37AE JUMP JUMPDEST PUSH1 0x40 MLOAD PUSH1 0x20 DUP2 DUP4 SUB SUB DUP2 MSTORE SWAP1 PUSH1 0x40 MSTORE SWAP2 POP PUSH1 0xE0 SHL PUSH1 0x20 DUP3 ADD DUP1 MLOAD PUSH28 0xFFFFFFFFFFFFFFFFFFFFFFFFFFFFFFFFFFFFFFFFFFFFFFFFFFFFFFFF DUP4 DUP2 DUP4 AND OR DUP4 MSTORE POP POP POP POP PUSH2 0x294D JUMP JUMPDEST POP POP POP JUMP JUMPDEST PUSH1 0x1 PUSH1 0x0 DUP2 SWAP1 SSTORE POP JUMP JUMPDEST PUSH1 0x0 DUP2 PUSH1 0x12 PUSH2 0x244E SWAP2 SWAP1 PUSH2 0x3A71 JUMP JUMPDEST PUSH1 0xA PUSH2 0x245A SWAP2 SWAP1 PUSH2 0x3BD9 JUMP JUMPDEST DUP4 PUSH2 0x2465 SWAP2 SWAP1 PUSH2 0x30C8 JUMP JUMPDEST SWAP1 POP SWAP3 SWAP2 POP POP JUMP JUMPDEST PUSH2 0x24E9 DUP5 DUP6 PUSH20 0xFFFFFFFFFFFFFFFFFFFFFFFFFFFFFFFFFFFFFFFF AND PUSH4 0x23B872DD DUP7 DUP7 DUP7 PUSH1 0x40 MLOAD PUSH1 0x24 ADD PUSH2 0x24A2 SWAP4 SWAP3 SWAP2 SWAP1 PUSH2 0x3C24 JUMP JUMPDEST PUSH1 0x40 MLOAD PUSH1 0x20 DUP2 DUP4 SUB SUB DUP2 MSTORE SWAP1 PUSH1 0x40 MSTORE SWAP2 POP PUSH1 0xE0 SHL PUSH1 0x20 DUP3 ADD DUP1 MLOAD PUSH28 0xFFFFFFFFFFFFFFFFFFFFFFFFFFFFFFFFFFFFFFFFFFFFFFFFFFFFFFFF DUP4 DUP2 DUP4 AND OR DUP4 MSTORE POP POP POP POP PUSH2 0x294D JUMP JUMPDEST POP POP POP POP JUMP JUMPDEST PUSH1 0x0 DUP1 PUSH2 0x2501 DUP4 PUSH1 0x0 ADD SLOAD PUSH1 0x6 PUSH2 0x243F JUMP JUMPDEST SWAP1 POP PUSH1 0x0 DUP4 PUSH1 0x1 ADD SLOAD TIMESTAMP PUSH2 0x2515 SWAP2 SWAP1 PUSH2 0x3094 JUMP JUMPDEST SWAP1 POP PUSH1 0x0 PUSH8 0xDE0B6B3A7640000 DUP3 PUSH1 0x5 SLOAD DUP6 PUSH2 0x2531 SWAP2 SWAP1 PUSH2 0x30C8 JUMP JUMPDEST PUSH2 0x253B SWAP2 SWAP1 PUSH2 0x30C8 JUMP JUMPDEST PUSH2 0x2545 SWAP2 SWAP1 PUSH2 0x3139 JUMP JUMPDEST SWAP1 POP PUSH2 0x2552 DUP2 PUSH1 0x6 PUSH2 0x255C JUMP JUMPDEST SWAP4 POP POP POP POP SWAP2 SWAP1 POP JUMP JUMPDEST PUSH1 0x0 DUP2 PUSH1 0x12 PUSH2 0x256B SWAP2 SWAP1 PUSH2 0x3A71 JUMP JUMPDEST PUSH1 0xA PUSH2 0x2577 SWAP2 SWAP1 PUSH2 0x3BD9 JUMP JUMPDEST DUP4 PUSH2 0x2582 SWAP2 SWAP1 PUSH2 0x3139 JUMP JUMPDEST SWAP1 POP SWAP3 SWAP2 POP POP JUMP JUMPDEST PUSH2 0x2592 PUSH2 0x29E4 JUMP JUMPDEST PUSH20 0xFFFFFFFFFFFFFFFFFFFFFFFFFFFFFFFFFFFFFFFF AND PUSH2 0x25B0 PUSH2 0x14D9 JUMP JUMPDEST PUSH20 0xFFFFFFFFFFFFFFFFFFFFFFFFFFFFFFFFFFFFFFFF AND EQ PUSH2 0x260F JUMPI PUSH2 0x25D3 PUSH2 0x29E4 JUMP JUMPDEST PUSH1 0x40 MLOAD PUSH32 0x118CDAA700000000000000000000000000000000000000000000000000000000 DUP2 MSTORE PUSH1 0x4 ADD PUSH2 0x2606 SWAP2 SWAP1 PUSH2 0x2FCB JUMP JUMPDEST PUSH1 0x40 MLOAD DUP1 SWAP2 SUB SWAP1 REVERT JUMPDEST JUMP JUMPDEST PUSH2 0x26A7 DUP2 PUSH1 0x40 MLOAD PUSH1 0x24 ADD PUSH2 0x2625 SWAP2 SWAP1 PUSH2 0x3CC9 JUMP JUMPDEST PUSH1 0x40 MLOAD PUSH1 0x20 DUP2 DUP4 SUB SUB DUP2 MSTORE SWAP1 PUSH1 0x40 MSTORE PUSH32 0x41304FAC00000000000000000000000000000000000000000000000000000000 PUSH28 0xFFFFFFFFFFFFFFFFFFFFFFFFFFFFFFFFFFFFFFFFFFFFFFFFFFFFFFFF NOT AND PUSH1 0x20 DUP3 ADD DUP1 MLOAD PUSH28 0xFFFFFFFFFFFFFFFFFFFFFFFFFFFFFFFFFFFFFFFFFFFFFFFFFFFFFFFF DUP4 DUP2 DUP4 AND OR DUP4 MSTORE POP POP POP POP PUSH2 0x29EC JUMP JUMPDEST POP JUMP JUMPDEST PUSH2 0x2742 DUP3 DUP3 PUSH1 0x40 MLOAD PUSH1 0x24 ADD PUSH2 0x26C0 SWAP3 SWAP2 SWAP1 PUSH2 0x3CEB JUMP JUMPDEST PUSH1 0x40 MLOAD PUSH1 0x20 DUP2 DUP4 SUB SUB DUP2 MSTORE SWAP1 PUSH1 0x40 MSTORE PUSH32 0xB60E72CC00000000000000000000000000000000000000000000000000000000 PUSH28 0xFFFFFFFFFFFFFFFFFFFFFFFFFFFFFFFFFFFFFFFFFFFFFFFFFFFFFFFF NOT AND PUSH1 0x20 DUP3 ADD DUP1 MLOAD PUSH28 0xFFFFFFFFFFFFFFFFFFFFFFFFFFFFFFFFFFFFFFFFFFFFFFFFFFFFFFFF DUP4 DUP2 DUP4 AND OR DUP4 MSTORE POP POP POP POP PUSH2 0x29EC JUMP JUMPDEST POP POP JUMP JUMPDEST PUSH1 0x0 PUSH1 0x1 PUSH1 0x0 SWAP1 SLOAD SWAP1 PUSH2 0x100 EXP SWAP1 DIV PUSH20 0xFFFFFFFFFFFFFFFFFFFFFFFFFFFFFFFFFFFFFFFF AND SWAP1 POP DUP2 PUSH1 0x1 PUSH1 0x0 PUSH2 0x100 EXP DUP2 SLOAD DUP2 PUSH20 0xFFFFFFFFFFFFFFFFFFFFFFFFFFFFFFFFFFFFFFFF MUL NOT AND SWAP1 DUP4 PUSH20 0xFFFFFFFFFFFFFFFFFFFFFFFFFFFFFFFFFFFFFFFF AND MUL OR SWAP1 SSTORE POP DUP2 PUSH20 0xFFFFFFFFFFFFFFFFFFFFFFFFFFFFFFFFFFFFFFFF AND DUP2 PUSH20 0xFFFFFFFFFFFFFFFFFFFFFFFFFFFFFFFFFFFFFFFF AND PUSH32 0x8BE0079C531659141344CD1FD0A4F28419497F9722A3DAAFE3B4186F6B6457E0 PUSH1 0x40 MLOAD PUSH1 0x40 MLOAD DUP1 SWAP2 SUB SWAP1 LOG3 POP POP JUMP JUMPDEST PUSH2 0x28A8 DUP5 DUP5 DUP5 DUP5 PUSH1 0x40 MLOAD PUSH1 0x24 ADD PUSH2 0x2826 SWAP5 SWAP4 SWAP3 SWAP2 SWAP1 PUSH2 0x3D1B JUMP JUMPDEST PUSH1 0x40 MLOAD PUSH1 0x20 DUP2 DUP4 SUB SUB DUP2 MSTORE SWAP1 PUSH1 0x40 MSTORE PUSH32 0x5D1A971A00000000000000000000000000000000000000000000000000000000 PUSH28 0xFFFFFFFFFFFFFFFFFFFFFFFFFFFFFFFFFFFFFFFFFFFFFFFFFFFFFFFF NOT AND PUSH1 0x20 DUP3 ADD DUP1 MLOAD PUSH28 0xFFFFFFFFFFFFFFFFFFFFFFFFFFFFFFFFFFFFFFFFFFFFFFFFFFFFFFFF DUP4 DUP2 DUP4 AND OR DUP4 MSTORE POP POP POP POP PUSH2 0x29EC JUMP JUMPDEST POP POP POP POP JUMP JUMPDEST PUSH2 0x2948 DUP4 DUP4 DUP4 PUSH1 0x40 MLOAD PUSH1 0x24 ADD PUSH2 0x28C6 SWAP4 SWAP3 SWAP2 SWAP1 PUSH2 0x3D75 JUMP JUMPDEST PUSH1 0x40 MLOAD PUSH1 0x20 DUP2 DUP4 SUB SUB DUP2 MSTORE SWAP1 PUSH1 0x40 MSTORE PUSH32 0x5970E08900000000000000000000000000000000000000000000000000000000 PUSH28 0xFFFFFFFFFFFFFFFFFFFFFFFFFFFFFFFFFFFFFFFFFFFFFFFFFFFFFFFF NOT AND PUSH1 0x20 DUP3 ADD DUP1 MLOAD PUSH28 0xFFFFFFFFFFFFFFFFFFFFFFFFFFFFFFFFFFFFFFFFFFFFFFFFFFFFFFFF DUP4 DUP2 DUP4 AND OR DUP4 MSTORE POP POP POP POP PUSH2 0x29EC JUMP JUMPDEST POP POP POP JUMP JUMPDEST PUSH1 0x0 PUSH2 0x2978 DUP3 DUP5 PUSH20 0xFFFFFFFFFFFFFFFFFFFFFFFFFFFFFFFFFFFFFFFF AND PUSH2 0x2A06 SWAP1 SWAP2 SWAP1 PUSH4 0xFFFFFFFF AND JUMP JUMPDEST SWAP1 POP PUSH1 0x0 DUP2 MLOAD EQ ISZERO DUP1 ISZERO PUSH2 0x299D JUMPI POP DUP1 DUP1 PUSH1 0x20 ADD SWAP1 MLOAD DUP2 ADD SWAP1 PUSH2 0x299B SWAP2 SWAP1 PUSH2 0x3803 JUMP JUMPDEST ISZERO JUMPDEST ISZERO PUSH2 0x29DF JUMPI DUP3 PUSH1 0x40 MLOAD PUSH32 0x5274AFE700000000000000000000000000000000000000000000000000000000 DUP2 MSTORE PUSH1 0x4 ADD PUSH2 0x29D6 SWAP2 SWAP1 PUSH2 0x2FCB JUMP JUMPDEST PUSH1 0x40 MLOAD DUP1 SWAP2 SUB SWAP1 REVERT JUMPDEST POP POP POP JUMP JUMPDEST PUSH1 0x0 CALLER SWAP1 POP SWAP1 JUMP JUMPDEST PUSH2 0x2A03 DUP2 PUSH2 0x29FB PUSH2 0x234F PUSH2 0x2A1C JUMP JUMPDEST PUSH4 0xFFFFFFFF AND JUMP JUMPDEST POP JUMP JUMPDEST PUSH1 0x60 PUSH2 0x2A14 DUP4 DUP4 PUSH1 0x0 PUSH2 0x2A27 JUMP JUMPDEST SWAP1 POP SWAP3 SWAP2 POP POP JUMP JUMPDEST PUSH2 0x2BC8 DUP2 SWAP1 POP SWAP2 SWAP1 POP JUMP JUMPDEST PUSH1 0x60 DUP2 SELFBALANCE LT ISZERO PUSH2 0x2A6E JUMPI ADDRESS PUSH1 0x40 MLOAD PUSH32 0xCD78605900000000000000000000000000000000000000000000000000000000 DUP2 MSTORE PUSH1 0x4 ADD PUSH2 0x2A65 SWAP2 SWAP1 PUSH2 0x2FCB JUMP JUMPDEST PUSH1 0x40 MLOAD DUP1 SWAP2 SUB SWAP1 REVERT JUMPDEST PUSH1 0x0 DUP1 DUP6 PUSH20 0xFFFFFFFFFFFFFFFFFFFFFFFFFFFFFFFFFFFFFFFF AND DUP5 DUP7 PUSH1 0x40 MLOAD PUSH2 0x2A97 SWAP2 SWAP1 PUSH2 0x3E01 JUMP JUMPDEST PUSH1 0x0 PUSH1 0x40 MLOAD DUP1 DUP4 SUB DUP2 DUP6 DUP8 GAS CALL SWAP3 POP POP POP RETURNDATASIZE DUP1 PUSH1 0x0 DUP2 EQ PUSH2 0x2AD4 JUMPI PUSH1 0x40 MLOAD SWAP2 POP PUSH1 0x1F NOT PUSH1 0x3F RETURNDATASIZE ADD AND DUP3 ADD PUSH1 0x40 MSTORE RETURNDATASIZE DUP3 MSTORE RETURNDATASIZE PUSH1 0x0 PUSH1 0x20 DUP5 ADD RETURNDATACOPY PUSH2 0x2AD9 JUMP JUMPDEST PUSH1 0x60 SWAP2 POP JUMPDEST POP SWAP2 POP SWAP2 POP PUSH2 0x2AE9 DUP7 DUP4 DUP4 PUSH2 0x2AF4 JUMP JUMPDEST SWAP3 POP POP POP SWAP4 SWAP3 POP POP POP JUMP JUMPDEST PUSH1 0x60 DUP3 PUSH2 0x2B09 JUMPI PUSH2 0x2B04 DUP3 PUSH2 0x2B83 JUMP JUMPDEST PUSH2 0x2B7B JUMP JUMPDEST PUSH1 0x0 DUP3 MLOAD EQ DUP1 ISZERO PUSH2 0x2B31 JUMPI POP PUSH1 0x0 DUP5 PUSH20 0xFFFFFFFFFFFFFFFFFFFFFFFFFFFFFFFFFFFFFFFF AND EXTCODESIZE EQ JUMPDEST ISZERO PUSH2 0x2B73 JUMPI DUP4 PUSH1 0x40 MLOAD PUSH32 0x9996B31500000000000000000000000000000000000000000000000000000000 DUP2 MSTORE PUSH1 0x4 ADD PUSH2 0x2B6A SWAP2 SWAP1 PUSH2 0x2FCB JUMP JUMPDEST PUSH1 0x40 MLOAD DUP1 SWAP2 SUB SWAP1 REVERT JUMPDEST DUP2 SWAP1 POP PUSH2 0x2B7C JUMP JUMPDEST JUMPDEST SWAP4 SWAP3 POP POP POP JUMP JUMPDEST PUSH1 0x0 DUP2 MLOAD GT ISZERO PUSH2 0x2B96 JUMPI DUP1 MLOAD DUP1 DUP3 PUSH1 0x20 ADD REVERT JUMPDEST PUSH1 0x40 MLOAD PUSH32 0x1425EA4200000000000000000000000000000000000000000000000000000000 DUP2 MSTORE PUSH1 0x4 ADD PUSH1 0x40 MLOAD DUP1 SWAP2 SUB SWAP1 REVERT JUMPDEST PUSH2 0x2BD0 PUSH2 0x3E18 JUMP JUMPDEST JUMP JUMPDEST PUSH1 0x40 MLOAD DUP1 PUSH1 0x80 ADD PUSH1 0x40 MSTORE DUP1 PUSH1 0x0 DUP2 MSTORE PUSH1 0x20 ADD PUSH1 0x0 DUP2 MSTORE PUSH1 0x20 ADD PUSH1 0x0 DUP2 MSTORE PUSH1 0x20 ADD PUSH1 0x0 DUP2 MSTORE POP SWAP1 JUMP JUMPDEST PUSH1 0x0 DUP3 DUP3 MSTORE PUSH1 0x20 DUP3 ADD SWAP1 POP SWAP3 SWAP2 POP POP JUMP JUMPDEST PUSH32 0x44697265637420455448206465706F73697473206E6F7420616C6C6F7765642E PUSH1 0x0 DUP3 ADD MSTORE PUSH32 0x20557365206465706F7369742066756E6374696F6E2E00000000000000000000 PUSH1 0x20 DUP3 ADD MSTORE POP JUMP JUMPDEST PUSH1 0x0 PUSH2 0x2C67 PUSH1 0x36 DUP4 PUSH2 0x2BFA JUMP JUMPDEST SWAP2 POP PUSH2 0x2C72 DUP3 PUSH2 0x2C0B JUMP JUMPDEST PUSH1 0x40 DUP3 ADD SWAP1 POP SWAP2 SWAP1 POP JUMP JUMPDEST PUSH1 0x0 PUSH1 0x20 DUP3 ADD SWAP1 POP DUP2 DUP2 SUB PUSH1 0x0 DUP4 ADD MSTORE PUSH2 0x2C96 DUP2 PUSH2 0x2C5A JUMP JUMPDEST SWAP1 POP SWAP2 SWAP1 POP JUMP JUMPDEST PUSH1 0x0 PUSH20 0xFFFFFFFFFFFFFFFFFFFFFFFFFFFFFFFFFFFFFFFF DUP3 AND SWAP1 POP SWAP2 SWAP1 POP JUMP JUMPDEST PUSH1 0x0 DUP2 SWAP1 POP SWAP2 SWAP1 POP JUMP JUMPDEST PUSH1 0x0 PUSH2 0x2CE2 PUSH2 0x2CDD PUSH2 0x2CD8 DUP5 PUSH2 0x2C9D JUMP JUMPDEST PUSH2 0x2CBD JUMP JUMPDEST PUSH2 0x2C9D JUMP JUMPDEST SWAP1 POP SWAP2 SWAP1 POP JUMP JUMPDEST PUSH1 0x0 PUSH2 0x2CF4 DUP3 PUSH2 0x2CC7 JUMP JUMPDEST SWAP1 POP SWAP2 SWAP1 POP JUMP JUMPDEST PUSH1 0x0 PUSH2 0x2D06 DUP3 PUSH2 0x2CE9 JUMP JUMPDEST SWAP1 POP SWAP2 SWAP1 POP JUMP JUMPDEST PUSH2 0x2D16 DUP2 PUSH2 0x2CFB JUMP JUMPDEST DUP3 MSTORE POP POP JUMP JUMPDEST PUSH1 0x0 PUSH1 0x20 DUP3 ADD SWAP1 POP PUSH2 0x2D31 PUSH1 0x0 DUP4 ADD DUP5 PUSH2 0x2D0D JUMP JUMPDEST SWAP3 SWAP2 POP POP JUMP JUMPDEST PUSH1 0x0 PUSH1 0x40 MLOAD SWAP1 POP SWAP1 JUMP JUMPDEST PUSH1 0x0 DUP1 REVERT JUMPDEST PUSH1 0x0 PUSH2 0x2D51 DUP3 PUSH2 0x2C9D JUMP JUMPDEST SWAP1 POP SWAP2 SWAP1 POP JUMP JUMPDEST PUSH2 0x2D61 DUP2 PUSH2 0x2D46 JUMP JUMPDEST DUP2 EQ PUSH2 0x2D6C JUMPI PUSH1 0x0 DUP1 REVERT JUMPDEST POP JUMP JUMPDEST PUSH1 0x0 DUP2 CALLDATALOAD SWAP1 POP PUSH2 0x2D7E DUP2 PUSH2 0x2D58 JUMP JUMPDEST SWAP3 SWAP2 POP POP JUMP JUMPDEST PUSH1 0x0 PUSH1 0x20 DUP3 DUP5 SUB SLT ISZERO PUSH2 0x2D9A JUMPI PUSH2 0x2D99 PUSH2 0x2D41 JUMP JUMPDEST JUMPDEST PUSH1 0x0 PUSH2 0x2DA8 DUP5 DUP3 DUP6 ADD PUSH2 0x2D6F JUMP JUMPDEST SWAP2 POP POP SWAP3 SWAP2 POP POP JUMP JUMPDEST PUSH1 0x0 DUP2 SWAP1 POP SWAP2 SWAP1 POP JUMP JUMPDEST PUSH2 0x2DC4 DUP2 PUSH2 0x2DB1 JUMP JUMPDEST DUP3 MSTORE POP POP JUMP JUMPDEST PUSH1 0x0 PUSH1 0x60 DUP3 ADD SWAP1 POP PUSH2 0x2DDF PUSH1 0x0 DUP4 ADD DUP7 PUSH2 0x2DBB JUMP JUMPDEST PUSH2 0x2DEC PUSH1 0x20 DUP4 ADD DUP6 PUSH2 0x2DBB JUMP JUMPDEST PUSH2 0x2DF9 PUSH1 0x40 DUP4 ADD DUP5 PUSH2 0x2DBB JUMP JUMPDEST SWAP5 SWAP4 POP POP POP POP JUMP JUMPDEST PUSH2 0x2E0A DUP2 PUSH2 0x2DB1 JUMP JUMPDEST DUP2 EQ PUSH2 0x2E15 JUMPI PUSH1 0x0 DUP1 REVERT JUMPDEST POP JUMP JUMPDEST PUSH1 0x0 DUP2 CALLDATALOAD SWAP1 POP PUSH2 0x2E27 DUP2 PUSH2 0x2E01 JUMP JUMPDEST SWAP3 SWAP2 POP POP JUMP JUMPDEST PUSH1 0x0 PUSH1 0x20 DUP3 DUP5 SUB SLT ISZERO PUSH2 0x2E43 JUMPI PUSH2 0x2E42 PUSH2 0x2D41 JUMP JUMPDEST JUMPDEST PUSH1 0x0 PUSH2 0x2E51 DUP5 DUP3 DUP6 ADD PUSH2 0x2E18 JUMP JUMPDEST SWAP2 POP POP SWAP3 SWAP2 POP POP JUMP JUMPDEST PUSH1 0x0 PUSH1 0x20 DUP3 ADD SWAP1 POP PUSH2 0x2E6F PUSH1 0x0 DUP4 ADD DUP5 PUSH2 0x2DBB JUMP JUMPDEST SWAP3 SWAP2 POP POP JUMP JUMPDEST PUSH1 0x0 DUP2 ISZERO ISZERO SWAP1 POP SWAP2 SWAP1 POP JUMP JUMPDEST PUSH2 0x2E8A DUP2 PUSH2 0x2E75 JUMP JUMPDEST DUP3 MSTORE POP POP JUMP JUMPDEST PUSH1 0x0 PUSH1 0x20 DUP3 ADD SWAP1 POP PUSH2 0x2EA5 PUSH1 0x0 DUP4 ADD DUP5 PUSH2 0x2E81 JUMP JUMPDEST SWAP3 SWAP2 POP POP JUMP JUMPDEST PUSH1 0x0 PUSH1 0xA0 DUP3 ADD SWAP1 POP PUSH2 0x2EC0 PUSH1 0x0 DUP4 ADD DUP9 PUSH2 0x2DBB JUMP JUMPDEST PUSH2 0x2ECD PUSH1 0x20 DUP4 ADD DUP8 PUSH2 0x2DBB JUMP JUMPDEST PUSH2 0x2EDA PUSH1 0x40 DUP4 ADD DUP7 PUSH2 0x2DBB JUMP JUMPDEST PUSH2 0x2EE7 PUSH1 0x60 DUP4 ADD DUP6 PUSH2 0x2E81 JUMP JUMPDEST PUSH2 0x2EF4 PUSH1 0x80 DUP4 ADD DUP5 PUSH2 0x2DBB JUMP JUMPDEST SWAP7 SWAP6 POP POP POP POP POP POP JUMP JUMPDEST PUSH1 0x0 DUP1 PUSH1 0x40 DUP4 DUP6 SUB SLT ISZERO PUSH2 0x2F15 JUMPI PUSH2 0x2F14 PUSH2 0x2D41 JUMP JUMPDEST JUMPDEST PUSH1 0x0 PUSH2 0x2F23 DUP6 DUP3 DUP7 ADD PUSH2 0x2D6F JUMP JUMPDEST SWAP3 POP POP PUSH1 0x20 PUSH2 0x2F34 DUP6 DUP3 DUP7 ADD PUSH2 0x2E18 JUMP JUMPDEST SWAP2 POP POP SWAP3 POP SWAP3 SWAP1 POP JUMP JUMPDEST PUSH1 0x0 PUSH2 0x100 DUP3 ADD SWAP1 POP PUSH2 0x2F54 PUSH1 0x0 DUP4 ADD DUP12 PUSH2 0x2DBB JUMP JUMPDEST PUSH2 0x2F61 PUSH1 0x20 DUP4 ADD DUP11 PUSH2 0x2DBB JUMP JUMPDEST PUSH2 0x2F6E PUSH1 0x40 DUP4 ADD DUP10 PUSH2 0x2E81 JUMP JUMPDEST PUSH2 0x2F7B PUSH1 0x60 DUP4 ADD DUP9 PUSH2 0x2DBB JUMP JUMPDEST PUSH2 0x2F88 PUSH1 0x80 DUP4 ADD DUP8 PUSH2 0x2DBB JUMP JUMPDEST PUSH2 0x2F95 PUSH1 0xA0 DUP4 ADD DUP7 PUSH2 0x2DBB JUMP JUMPDEST PUSH2 0x2FA2 PUSH1 0xC0 DUP4 ADD DUP6 PUSH2 0x2DBB JUMP JUMPDEST PUSH2 0x2FAF PUSH1 0xE0 DUP4 ADD DUP5 PUSH2 0x2DBB JUMP JUMPDEST SWAP10 SWAP9 POP POP POP POP POP POP POP POP POP JUMP JUMPDEST PUSH2 0x2FC5 DUP2 PUSH2 0x2D46 JUMP JUMPDEST DUP3 MSTORE POP POP JUMP JUMPDEST PUSH1 0x0 PUSH1 0x20 DUP3 ADD SWAP1 POP PUSH2 0x2FE0 PUSH1 0x0 DUP4 ADD DUP5 PUSH2 0x2FBC JUMP JUMPDEST SWAP3 SWAP2 POP POP JUMP JUMPDEST PUSH2 0x2FEF DUP2 PUSH2 0x2DB1 JUMP JUMPDEST DUP3 MSTORE POP POP JUMP JUMPDEST PUSH1 0x80 DUP3 ADD PUSH1 0x0 DUP3 ADD MLOAD PUSH2 0x300B PUSH1 0x0 DUP6 ADD DUP3 PUSH2 0x2FE6 JUMP JUMPDEST POP PUSH1 0x20 DUP3 ADD MLOAD PUSH2 0x301E PUSH1 0x20 DUP6 ADD DUP3 PUSH2 0x2FE6 JUMP JUMPDEST POP PUSH1 0x40 DUP3 ADD MLOAD PUSH2 0x3031 PUSH1 0x40 DUP6 ADD DUP3 PUSH2 0x2FE6 JUMP JUMPDEST POP PUSH1 0x60 DUP3 ADD MLOAD PUSH2 0x3044 PUSH1 0x60 DUP6 ADD DUP3 PUSH2 0x2FE6 JUMP JUMPDEST POP POP POP POP JUMP JUMPDEST PUSH1 0x0 PUSH1 0x80 DUP3 ADD SWAP1 POP PUSH2 0x305F PUSH1 0x0 DUP4 ADD DUP5 PUSH2 0x2FF5 JUMP JUMPDEST SWAP3 SWAP2 POP POP JUMP JUMPDEST PUSH32 0x4E487B7100000000000000000000000000000000000000000000000000000000 PUSH1 0x0 MSTORE PUSH1 0x11 PUSH1 0x4 MSTORE PUSH1 0x24 PUSH1 0x0 REVERT JUMPDEST PUSH1 0x0 PUSH2 0x309F DUP3 PUSH2 0x2DB1 JUMP JUMPDEST SWAP2 POP PUSH2 0x30AA DUP4 PUSH2 0x2DB1 JUMP JUMPDEST SWAP3 POP DUP3 DUP3 SUB SWAP1 POP DUP2 DUP2 GT ISZERO PUSH2 0x30C2 JUMPI PUSH2 0x30C1 PUSH2 0x3065 JUMP JUMPDEST JUMPDEST SWAP3 SWAP2 POP POP JUMP JUMPDEST PUSH1 0x0 PUSH2 0x30D3 DUP3 PUSH2 0x2DB1 JUMP JUMPDEST SWAP2 POP PUSH2 0x30DE DUP4 PUSH2 0x2DB1 JUMP JUMPDEST SWAP3 POP DUP3 DUP3 MUL PUSH2 0x30EC DUP2 PUSH2 0x2DB1 JUMP JUMPDEST SWAP2 POP DUP3 DUP3 DIV DUP5 EQ DUP4 ISZERO OR PUSH2 0x3103 JUMPI PUSH2 0x3102 PUSH2 0x3065 JUMP JUMPDEST JUMPDEST POP SWAP3 SWAP2 POP POP JUMP JUMPDEST PUSH32 0x4E487B7100000000000000000000000000000000000000000000000000000000 PUSH1 0x0 MSTORE PUSH1 0x12 PUSH1 0x4 MSTORE PUSH1 0x24 PUSH1 0x0 REVERT JUMPDEST PUSH1 0x0 PUSH2 0x3144 DUP3 PUSH2 0x2DB1 JUMP JUMPDEST SWAP2 POP PUSH2 0x314F DUP4 PUSH2 0x2DB1 JUMP JUMPDEST SWAP3 POP DUP3 PUSH2 0x315F JUMPI PUSH2 0x315E PUSH2 0x310A JUMP JUMPDEST JUMPDEST DUP3 DUP3 DIV SWAP1 POP SWAP3 SWAP2 POP POP JUMP JUMPDEST PUSH1 0x0 PUSH2 0x3175 DUP3 PUSH2 0x2DB1 JUMP JUMPDEST SWAP2 POP PUSH2 0x3180 DUP4 PUSH2 0x2DB1 JUMP JUMPDEST SWAP3 POP DUP3 DUP3 ADD SWAP1 POP DUP1 DUP3 GT ISZERO PUSH2 0x3198 JUMPI PUSH2 0x3197 PUSH2 0x3065 JUMP JUMPDEST JUMPDEST SWAP3 SWAP2 POP POP JUMP JUMPDEST PUSH32 0x436F6E7472616374206973207061757365640000000000000000000000000000 PUSH1 0x0 DUP3 ADD MSTORE POP JUMP JUMPDEST PUSH1 0x0 PUSH2 0x31D4 PUSH1 0x12 DUP4 PUSH2 0x2BFA JUMP JUMPDEST SWAP2 POP PUSH2 0x31DF DUP3 PUSH2 0x319E JUMP JUMPDEST PUSH1 0x20 DUP3 ADD SWAP1 POP SWAP2 SWAP1 POP JUMP JUMPDEST PUSH1 0x0 PUSH1 0x20 DUP3 ADD SWAP1 POP DUP2 DUP2 SUB PUSH1 0x0 DUP4 ADD MSTORE PUSH2 0x3203 DUP2 PUSH2 0x31C7 JUMP JUMPDEST SWAP1 POP SWAP2 SWAP1 POP JUMP JUMPDEST PUSH32 0x43616E6E6F742077697468647261772077697468206F75747374616E64696E67 PUSH1 0x0 DUP3 ADD MSTORE PUSH32 0x2064656274000000000000000000000000000000000000000000000000000000 PUSH1 0x20 DUP3 ADD MSTORE POP JUMP JUMPDEST PUSH1 0x0 PUSH2 0x3266 PUSH1 0x25 DUP4 PUSH2 0x2BFA JUMP JUMPDEST SWAP2 POP PUSH2 0x3271 DUP3 PUSH2 0x320A JUMP JUMPDEST PUSH1 0x40 DUP3 ADD SWAP1 POP SWAP2 SWAP1 POP JUMP JUMPDEST PUSH1 0x0 PUSH1 0x20 DUP3 ADD SWAP1 POP DUP2 DUP2 SUB PUSH1 0x0 DUP4 ADD MSTORE PUSH2 0x3295 DUP2 PUSH2 0x3259 JUMP JUMPDEST SWAP1 POP SWAP2 SWAP1 POP JUMP JUMPDEST PUSH32 0x496E73756666696369656E7420636F6C6C61746572616C000000000000000000 PUSH1 0x0 DUP3 ADD MSTORE POP JUMP JUMPDEST PUSH1 0x0 PUSH2 0x32D2 PUSH1 0x17 DUP4 PUSH2 0x2BFA JUMP JUMPDEST SWAP2 POP PUSH2 0x32DD DUP3 PUSH2 0x329C JUMP JUMPDEST PUSH1 0x20 DUP3 ADD SWAP1 POP SWAP2 SWAP1 POP JUMP JUMPDEST PUSH1 0x0 PUSH1 0x20 DUP3 ADD SWAP1 POP DUP2 DUP2 SUB PUSH1 0x0 DUP4 ADD MSTORE PUSH2 0x3301 DUP2 PUSH2 0x32C5 JUMP JUMPDEST SWAP1 POP SWAP2 SWAP1 POP JUMP JUMPDEST PUSH32 0x526570617920616D6F756E74206D757374206265206772656174657220746861 PUSH1 0x0 DUP3 ADD MSTORE PUSH32 0x6E20300000000000000000000000000000000000000000000000000000000000 PUSH1 0x20 DUP3 ADD MSTORE POP JUMP JUMPDEST PUSH1 0x0 PUSH2 0x3364 PUSH1 0x23 DUP4 PUSH2 0x2BFA JUMP JUMPDEST SWAP2 POP PUSH2 0x336F DUP3 PUSH2 0x3308 JUMP JUMPDEST PUSH1 0x40 DUP3 ADD SWAP1 POP SWAP2 SWAP1 POP JUMP JUMPDEST PUSH1 0x0 PUSH1 0x20 DUP3 ADD SWAP1 POP DUP2 DUP2 SUB PUSH1 0x0 DUP4 ADD MSTORE PUSH2 0x3393 DUP2 PUSH2 0x3357 JUMP JUMPDEST SWAP1 POP SWAP2 SWAP1 POP JUMP JUMPDEST PUSH32 0x526570617920616D6F756E742065786365656473206465627400000000000000 PUSH1 0x0 DUP3 ADD MSTORE POP JUMP JUMPDEST PUSH1 0x0 PUSH2 0x33D0 PUSH1 0x19 DUP4 PUSH2 0x2BFA JUMP JUMPDEST SWAP2 POP PUSH2 0x33DB DUP3 PUSH2 0x339A JUMP JUMPDEST PUSH1 0x20 DUP3 ADD SWAP1 POP SWAP2 SWAP1 POP JUMP JUMPDEST PUSH1 0x0 PUSH1 0x20 DUP3 ADD SWAP1 POP DUP2 DUP2 SUB PUSH1 0x0 DUP4 ADD MSTORE PUSH2 0x33FF DUP2 PUSH2 0x33C3 JUMP JUMPDEST SWAP1 POP SWAP2 SWAP1 POP JUMP JUMPDEST PUSH32 0x43616E6E6F742064697361626C6520436F6C6C61746572616C2077697468206F PUSH1 0x0 DUP3 ADD MSTORE PUSH32 0x75747374616E64696E6720646562740000000000000000000000000000000000 PUSH1 0x20 DUP3 ADD MSTORE POP JUMP JUMPDEST PUSH1 0x0 PUSH2 0x3462 PUSH1 0x2F DUP4 PUSH2 0x2BFA JUMP JUMPDEST SWAP2 POP PUSH2 0x346D DUP3 PUSH2 0x3406 JUMP JUMPDEST PUSH1 0x40 DUP3 ADD SWAP1 POP SWAP2 SWAP1 POP JUMP JUMPDEST PUSH1 0x0 PUSH1 0x20 DUP3 ADD SWAP1 POP DUP2 DUP2 SUB PUSH1 0x0 DUP4 ADD MSTORE PUSH2 0x3491 DUP2 PUSH2 0x3455 JUMP JUMPDEST SWAP1 POP SWAP2 SWAP1 POP JUMP JUMPDEST PUSH32 0x436F6E7472616374206973206E6F742070617573656400000000000000000000 PUSH1 0x0 DUP3 ADD MSTORE POP JUMP JUMPDEST PUSH1 0x0 PUSH2 0x34CE PUSH1 0x16 DUP4 PUSH2 0x2BFA JUMP JUMPDEST SWAP2 POP PUSH2 0x34D9 DUP3 PUSH2 0x3498 JUMP JUMPDEST PUSH1 0x20 DUP3 ADD SWAP1 POP SWAP2 SWAP1 POP JUMP JUMPDEST PUSH1 0x0 PUSH1 0x20 DUP3 ADD SWAP1 POP DUP2 DUP2 SUB PUSH1 0x0 DUP4 ADD MSTORE PUSH2 0x34FD DUP2 PUSH2 0x34C1 JUMP JUMPDEST SWAP1 POP SWAP2 SWAP1 POP JUMP JUMPDEST PUSH32 0x4E6F20636F6C6C61746572616C206465706F7369746564000000000000000000 PUSH1 0x0 DUP3 ADD MSTORE POP JUMP JUMPDEST PUSH1 0x0 PUSH2 0x353A PUSH1 0x17 DUP4 PUSH2 0x2BFA JUMP JUMPDEST SWAP2 POP PUSH2 0x3545 DUP3 PUSH2 0x3504 JUMP JUMPDEST PUSH1 0x20 DUP3 ADD SWAP1 POP SWAP2 SWAP1 POP JUMP JUMPDEST PUSH1 0x0 PUSH1 0x20 DUP3 ADD SWAP1 POP DUP2 DUP2 SUB PUSH1 0x0 DUP4 ADD MSTORE PUSH2 0x3569 DUP2 PUSH2 0x352D JUMP JUMPDEST SWAP1 POP SWAP2 SWAP1 POP JUMP JUMPDEST PUSH32 0x54686520436F6C6C61746572616C20616D6F756E74206D757374206265206772 PUSH1 0x0 DUP3 ADD MSTORE PUSH32 0x6561746572207468616E20302E00000000000000000000000000000000000000 PUSH1 0x20 DUP3 ADD MSTORE POP JUMP JUMPDEST PUSH1 0x0 PUSH2 0x35CC PUSH1 0x2D DUP4 PUSH2 0x2BFA JUMP JUMPDEST SWAP2 POP PUSH2 0x35D7 DUP3 PUSH2 0x3570 JUMP JUMPDEST PUSH1 0x40 DUP3 ADD SWAP1 POP SWAP2 SWAP1 POP JUMP JUMPDEST PUSH1 0x0 PUSH1 0x20 DUP3 ADD SWAP1 POP DUP2 DUP2 SUB PUSH1 0x0 DUP4 ADD MSTORE PUSH2 0x35FB DUP2 PUSH2 0x35BF JUMP JUMPDEST SWAP1 POP SWAP2 SWAP1 POP JUMP JUMPDEST PUSH32 0x436F6C6C61746572616C206973206E6F742020656E61626C6564000000000000 PUSH1 0x0 DUP3 ADD MSTORE POP JUMP JUMPDEST PUSH1 0x0 PUSH2 0x3638 PUSH1 0x1A DUP4 PUSH2 0x2BFA JUMP JUMPDEST SWAP2 POP PUSH2 0x3643 DUP3 PUSH2 0x3602 JUMP JUMPDEST PUSH1 0x20 DUP3 ADD SWAP1 POP SWAP2 SWAP1 POP JUMP JUMPDEST PUSH1 0x0 PUSH1 0x20 DUP3 ADD SWAP1 POP DUP2 DUP2 SUB PUSH1 0x0 DUP4 ADD MSTORE PUSH2 0x3667 DUP2 PUSH2 0x362B JUMP JUMPDEST SWAP1 POP SWAP2 SWAP1 POP JUMP JUMPDEST PUSH32 0x426F72726F7720616D6F756E742065786365656473206D6178696D756D20616C PUSH1 0x0 DUP3 ADD MSTORE PUSH32 0x6C6F776564000000000000000000000000000000000000000000000000000000 PUSH1 0x20 DUP3 ADD MSTORE POP JUMP JUMPDEST PUSH1 0x0 PUSH2 0x36CA PUSH1 0x25 DUP4 PUSH2 0x2BFA JUMP JUMPDEST SWAP2 POP PUSH2 0x36D5 DUP3 PUSH2 0x366E JUMP JUMPDEST PUSH1 0x40 DUP3 ADD SWAP1 POP SWAP2 SWAP1 POP JUMP JUMPDEST PUSH1 0x0 PUSH1 0x20 DUP3 ADD SWAP1 POP DUP2 DUP2 SUB PUSH1 0x0 DUP4 ADD MSTORE PUSH2 0x36F9 DUP2 PUSH2 0x36BD JUMP JUMPDEST SWAP1 POP SWAP2 SWAP1 POP JUMP JUMPDEST PUSH1 0x0 DUP2 MLOAD SWAP1 POP PUSH2 0x370F DUP2 PUSH2 0x2E01 JUMP JUMPDEST SWAP3 SWAP2 POP POP JUMP JUMPDEST PUSH1 0x0 PUSH1 0x20 DUP3 DUP5 SUB SLT ISZERO PUSH2 0x372B JUMPI PUSH2 0x372A PUSH2 0x2D41 JUMP JUMPDEST JUMPDEST PUSH1 0x0 PUSH2 0x3739 DUP5 DUP3 DUP6 ADD PUSH2 0x3700 JUMP JUMPDEST SWAP2 POP POP SWAP3 SWAP2 POP POP JUMP JUMPDEST PUSH32 0x496E73756666696369656E742055534443206C69717569646974790000000000 PUSH1 0x0 DUP3 ADD MSTORE POP JUMP JUMPDEST PUSH1 0x0 PUSH2 0x3778 PUSH1 0x1B DUP4 PUSH2 0x2BFA JUMP JUMPDEST SWAP2 POP PUSH2 0x3783 DUP3 PUSH2 0x3742 JUMP JUMPDEST PUSH1 0x20 DUP3 ADD SWAP1 POP SWAP2 SWAP1 POP JUMP JUMPDEST PUSH1 0x0 PUSH1 0x20 DUP3 ADD SWAP1 POP DUP2 DUP2 SUB PUSH1 0x0 DUP4 ADD MSTORE PUSH2 0x37A7 DUP2 PUSH2 0x376B JUMP JUMPDEST SWAP1 POP SWAP2 SWAP1 POP JUMP JUMPDEST PUSH1 0x0 PUSH1 0x40 DUP3 ADD SWAP1 POP PUSH2 0x37C3 PUSH1 0x0 DUP4 ADD DUP6 PUSH2 0x2FBC JUMP JUMPDEST PUSH2 0x37D0 PUSH1 0x20 DUP4 ADD DUP5 PUSH2 0x2DBB JUMP JUMPDEST SWAP4 SWAP3 POP POP POP JUMP JUMPDEST PUSH2 0x37E0 DUP2 PUSH2 0x2E75 JUMP JUMPDEST DUP2 EQ PUSH2 0x37EB JUMPI PUSH1 0x0 DUP1 REVERT JUMPDEST POP JUMP JUMPDEST PUSH1 0x0 DUP2 MLOAD SWAP1 POP PUSH2 0x37FD DUP2 PUSH2 0x37D7 JUMP JUMPDEST SWAP3 SWAP2 POP POP JUMP JUMPDEST PUSH1 0x0 PUSH1 0x20 DUP3 DUP5 SUB SLT ISZERO PUSH2 0x3819 JUMPI PUSH2 0x3818 PUSH2 0x2D41 JUMP JUMPDEST JUMPDEST PUSH1 0x0 PUSH2 0x3827 DUP5 DUP3 DUP6 ADD PUSH2 0x37EE JUMP JUMPDEST SWAP2 POP POP SWAP3 SWAP2 POP POP JUMP JUMPDEST PUSH32 0x55534443207472616E73666572206661696C6564000000000000000000000000 PUSH1 0x0 DUP3 ADD MSTORE POP JUMP JUMPDEST PUSH1 0x0 PUSH2 0x3866 PUSH1 0x14 DUP4 PUSH2 0x2BFA JUMP JUMPDEST SWAP2 POP PUSH2 0x3871 DUP3 PUSH2 0x3830 JUMP JUMPDEST PUSH1 0x20 DUP3 ADD SWAP1 POP SWAP2 SWAP1 POP JUMP JUMPDEST PUSH1 0x0 PUSH1 0x20 DUP3 ADD SWAP1 POP DUP2 DUP2 SUB PUSH1 0x0 DUP4 ADD MSTORE PUSH2 0x3895 DUP2 PUSH2 0x3859 JUMP JUMPDEST SWAP1 POP SWAP2 SWAP1 POP JUMP JUMPDEST PUSH32 0x496E73756666696369656E7420555344432062616C616E636520696E20636F6E PUSH1 0x0 DUP3 ADD MSTORE PUSH32 0x7472616374000000000000000000000000000000000000000000000000000000 PUSH1 0x20 DUP3 ADD MSTORE POP JUMP JUMPDEST PUSH1 0x0 PUSH2 0x38F8 PUSH1 0x25 DUP4 PUSH2 0x2BFA JUMP JUMPDEST SWAP2 POP PUSH2 0x3903 DUP3 PUSH2 0x389C JUMP JUMPDEST PUSH1 0x40 DUP3 ADD SWAP1 POP SWAP2 SWAP1 POP JUMP JUMPDEST PUSH1 0x0 PUSH1 0x20 DUP3 ADD SWAP1 POP DUP2 DUP2 SUB PUSH1 0x0 DUP4 ADD MSTORE PUSH2 0x3927 DUP2 PUSH2 0x38EB JUMP JUMPDEST SWAP1 POP SWAP2 SWAP1 POP JUMP JUMPDEST PUSH1 0x0 DUP1 REVERT JUMPDEST PUSH1 0x0 PUSH1 0x1F NOT PUSH1 0x1F DUP4 ADD AND SWAP1 POP SWAP2 SWAP1 POP JUMP JUMPDEST PUSH32 0x4E487B7100000000000000000000000000000000000000000000000000000000 PUSH1 0x0 MSTORE PUSH1 0x41 PUSH1 0x4 MSTORE PUSH1 0x24 PUSH1 0x0 REVERT JUMPDEST PUSH2 0x397C DUP3 PUSH2 0x3933 JUMP JUMPDEST DUP2 ADD DUP2 DUP2 LT PUSH8 0xFFFFFFFFFFFFFFFF DUP3 GT OR ISZERO PUSH2 0x399B JUMPI PUSH2 0x399A PUSH2 0x3944 JUMP JUMPDEST JUMPDEST DUP1 PUSH1 0x40 MSTORE POP POP POP JUMP JUMPDEST PUSH1 0x0 PUSH2 0x39AE PUSH2 0x2D37 JUMP JUMPDEST SWAP1 POP PUSH2 0x39BA DUP3 DUP3 PUSH2 0x3973 JUMP JUMPDEST SWAP2 SWAP1 POP JUMP JUMPDEST PUSH1 0x0 PUSH1 0x80 DUP3 DUP5 SUB SLT ISZERO PUSH2 0x39D5 JUMPI PUSH2 0x39D4 PUSH2 0x392E JUMP JUMPDEST JUMPDEST PUSH2 0x39DF PUSH1 0x80 PUSH2 0x39A4 JUMP JUMPDEST SWAP1 POP PUSH1 0x0 PUSH2 0x39EF DUP5 DUP3 DUP6 ADD PUSH2 0x3700 JUMP JUMPDEST PUSH1 0x0 DUP4 ADD MSTORE POP PUSH1 0x20 PUSH2 0x3A03 DUP5 DUP3 DUP6 ADD PUSH2 0x3700 JUMP JUMPDEST PUSH1 0x20 DUP4 ADD MSTORE POP PUSH1 0x40 PUSH2 0x3A17 DUP5 DUP3 DUP6 ADD PUSH2 0x3700 JUMP JUMPDEST PUSH1 0x40 DUP4 ADD MSTORE POP PUSH1 0x60 PUSH2 0x3A2B DUP5 DUP3 DUP6 ADD PUSH2 0x3700 JUMP JUMPDEST PUSH1 0x60 DUP4 ADD MSTORE POP SWAP3 SWAP2 POP POP JUMP JUMPDEST PUSH1 0x0 PUSH1 0x80 DUP3 DUP5 SUB SLT ISZERO PUSH2 0x3A4D JUMPI PUSH2 0x3A4C PUSH2 0x2D41 JUMP JUMPDEST JUMPDEST PUSH1 0x0 PUSH2 0x3A5B DUP5 DUP3 DUP6 ADD PUSH2 0x39BF JUMP JUMPDEST SWAP2 POP POP SWAP3 SWAP2 POP POP JUMP JUMPDEST PUSH1 0x0 PUSH1 0xFF DUP3 AND SWAP1 POP SWAP2 SWAP1 POP JUMP JUMPDEST PUSH1 0x0 PUSH2 0x3A7C DUP3 PUSH2 0x3A64 JUMP JUMPDEST SWAP2 POP PUSH2 0x3A87 DUP4 PUSH2 0x3A64 JUMP JUMPDEST SWAP3 POP DUP3 DUP3 SUB SWAP1 POP PUSH1 0xFF DUP2 GT ISZERO PUSH2 0x3AA0 JUMPI PUSH2 0x3A9F PUSH2 0x3065 JUMP JUMPDEST JUMPDEST SWAP3 SWAP2 POP POP JUMP JUMPDEST PUSH1 0x0 DUP2 PUSH1 0x1 SHR SWAP1 POP SWAP2 SWAP1 POP JUMP JUMPDEST PUSH1 0x0 DUP1 DUP3 SWAP2 POP DUP4 SWAP1 POP JUMPDEST PUSH1 0x1 DUP6 GT ISZERO PUSH2 0x3AFD JUMPI DUP1 DUP7 DIV DUP2 GT ISZERO PUSH2 0x3AD9 JUMPI PUSH2 0x3AD8 PUSH2 0x3065 JUMP JUMPDEST JUMPDEST PUSH1 0x1 DUP6 AND ISZERO PUSH2 0x3AE8 JUMPI DUP1 DUP3 MUL SWAP2 POP JUMPDEST DUP1 DUP2 MUL SWAP1 POP PUSH2 0x3AF6 DUP6 PUSH2 0x3AA6 JUMP JUMPDEST SWAP5 POP PUSH2 0x3ABD JUMP JUMPDEST SWAP5 POP SWAP5 SWAP3 POP POP POP JUMP JUMPDEST PUSH1 0x0 DUP3 PUSH2 0x3B16 JUMPI PUSH1 0x1 SWAP1 POP PUSH2 0x3BD2 JUMP JUMPDEST DUP2 PUSH2 0x3B24 JUMPI PUSH1 0x0 SWAP1 POP PUSH2 0x3BD2 JUMP JUMPDEST DUP2 PUSH1 0x1 DUP2 EQ PUSH2 0x3B3A JUMPI PUSH1 0x2 DUP2 EQ PUSH2 0x3B44 JUMPI PUSH2 0x3B73 JUMP JUMPDEST PUSH1 0x1 SWAP2 POP POP PUSH2 0x3BD2 JUMP JUMPDEST PUSH1 0xFF DUP5 GT ISZERO PUSH2 0x3B56 JUMPI PUSH2 0x3B55 PUSH2 0x3065 JUMP JUMPDEST JUMPDEST DUP4 PUSH1 0x2 EXP SWAP2 POP DUP5 DUP3 GT ISZERO PUSH2 0x3B6D JUMPI PUSH2 0x3B6C PUSH2 0x3065 JUMP JUMPDEST JUMPDEST POP PUSH2 0x3BD2 JUMP JUMPDEST POP PUSH1 0x20 DUP4 LT PUSH2 0x133 DUP4 LT AND PUSH1 0x4E DUP5 LT PUSH1 0xB DUP5 LT AND OR ISZERO PUSH2 0x3BA8 JUMPI DUP3 DUP3 EXP SWAP1 POP DUP4 DUP2 GT ISZERO PUSH2 0x3BA3 JUMPI PUSH2 0x3BA2 PUSH2 0x3065 JUMP JUMPDEST JUMPDEST PUSH2 0x3BD2 JUMP JUMPDEST PUSH2 0x3BB5 DUP5 DUP5 DUP5 PUSH1 0x1 PUSH2 0x3AB3 JUMP JUMPDEST SWAP3 POP SWAP1 POP DUP2 DUP5 DIV DUP2 GT ISZERO PUSH2 0x3BCC JUMPI PUSH2 0x3BCB PUSH2 0x3065 JUMP JUMPDEST JUMPDEST DUP2 DUP2 MUL SWAP1 POP JUMPDEST SWAP4 SWAP3 POP POP POP JUMP JUMPDEST PUSH1 0x0 PUSH2 0x3BE4 DUP3 PUSH2 0x2DB1 JUMP JUMPDEST SWAP2 POP PUSH2 0x3BEF DUP4 PUSH2 0x3A64 JUMP JUMPDEST SWAP3 POP PUSH2 0x3C1C PUSH32 0xFFFFFFFFFFFFFFFFFFFFFFFFFFFFFFFFFFFFFFFFFFFFFFFFFFFFFFFFFFFFFFFF DUP5 DUP5 PUSH2 0x3B06 JUMP JUMPDEST SWAP1 POP SWAP3 SWAP2 POP POP JUMP JUMPDEST PUSH1 0x0 PUSH1 0x60 DUP3 ADD SWAP1 POP PUSH2 0x3C39 PUSH1 0x0 DUP4 ADD DUP7 PUSH2 0x2FBC JUMP JUMPDEST PUSH2 0x3C46 PUSH1 0x20 DUP4 ADD DUP6 PUSH2 0x2FBC JUMP JUMPDEST PUSH2 0x3C53 PUSH1 0x40 DUP4 ADD DUP5 PUSH2 0x2DBB JUMP JUMPDEST SWAP5 SWAP4 POP POP POP POP JUMP JUMPDEST PUSH1 0x0 DUP2 MLOAD SWAP1 POP SWAP2 SWAP1 POP JUMP JUMPDEST PUSH1 0x0 JUMPDEST DUP4 DUP2 LT ISZERO PUSH2 0x3C84 JUMPI DUP1 DUP3 ADD MLOAD DUP2 DUP5 ADD MSTORE PUSH1 0x20 DUP2 ADD SWAP1 POP PUSH2 0x3C69 JUMP JUMPDEST PUSH1 0x0 DUP5 DUP5 ADD MSTORE POP POP POP POP JUMP JUMPDEST PUSH1 0x0 PUSH2 0x3C9B DUP3 PUSH2 0x3C5B JUMP JUMPDEST PUSH2 0x3CA5 DUP2 DUP6 PUSH2 0x2BFA JUMP JUMPDEST SWAP4 POP PUSH2 0x3CB5 DUP2 DUP6 PUSH1 0x20 DUP7 ADD PUSH2 0x3C66 JUMP JUMPDEST PUSH2 0x3CBE DUP2 PUSH2 0x3933 JUMP JUMPDEST DUP5 ADD SWAP2 POP POP SWAP3 SWAP2 POP POP JUMP JUMPDEST PUSH1 0x0 PUSH1 0x20 DUP3 ADD SWAP1 POP DUP2 DUP2 SUB PUSH1 0x0 DUP4 ADD MSTORE PUSH2 0x3CE3 DUP2 DUP5 PUSH2 0x3C90 JUMP JUMPDEST SWAP1 POP SWAP3 SWAP2 POP POP JUMP JUMPDEST PUSH1 0x0 PUSH1 0x40 DUP3 ADD SWAP1 POP DUP2 DUP2 SUB PUSH1 0x0 DUP4 ADD MSTORE PUSH2 0x3D05 DUP2 DUP6 PUSH2 0x3C90 JUMP JUMPDEST SWAP1 POP PUSH2 0x3D14 PUSH1 0x20 DUP4 ADD DUP5 PUSH2 0x2DBB JUMP JUMPDEST SWAP4 SWAP3 POP POP POP JUMP JUMPDEST PUSH1 0x0 PUSH1 0x80 DUP3 ADD SWAP1 POP DUP2 DUP2 SUB PUSH1 0x0 DUP4 ADD MSTORE PUSH2 0x3D35 DUP2 DUP8 PUSH2 0x3C90 JUMP JUMPDEST SWAP1 POP DUP2 DUP2 SUB PUSH1 0x20 DUP4 ADD MSTORE PUSH2 0x3D49 DUP2 DUP7 PUSH2 0x3C90 JUMP JUMPDEST SWAP1 POP PUSH2 0x3D58 PUSH1 0x40 DUP4 ADD DUP6 PUSH2 0x2DBB JUMP JUMPDEST DUP2 DUP2 SUB PUSH1 0x60 DUP4 ADD MSTORE PUSH2 0x3D6A DUP2 DUP5 PUSH2 0x3C90 JUMP JUMPDEST SWAP1 POP SWAP6 SWAP5 POP POP POP POP POP JUMP JUMPDEST PUSH1 0x0 PUSH1 0x60 DUP3 ADD SWAP1 POP DUP2 DUP2 SUB PUSH1 0x0 DUP4 ADD MSTORE PUSH2 0x3D8F DUP2 DUP7 PUSH2 0x3C90 JUMP JUMPDEST SWAP1 POP PUSH2 0x3D9E PUSH1 0x20 DUP4 ADD DUP6 PUSH2 0x2DBB JUMP JUMPDEST DUP2 DUP2 SUB PUSH1 0x40 DUP4 ADD MSTORE PUSH2 0x3DB0 DUP2 DUP5 PUSH2 0x3C90 JUMP JUMPDEST SWAP1 POP SWAP5 SWAP4 POP POP POP POP JUMP JUMPDEST PUSH1 0x0 DUP2 MLOAD SWAP1 POP SWAP2 SWAP1 POP JUMP JUMPDEST PUSH1 0x0 DUP2 SWAP1 POP SWAP3 SWAP2 POP POP JUMP JUMPDEST PUSH1 0x0 PUSH2 0x3DDB DUP3 PUSH2 0x3DBA JUMP JUMPDEST PUSH2 0x3DE5 DUP2 DUP6 PUSH2 0x3DC5 JUMP JUMPDEST SWAP4 POP PUSH2 0x3DF5 DUP2 DUP6 PUSH1 0x20 DUP7 ADD PUSH2 0x3C66 JUMP JUMPDEST DUP1 DUP5 ADD SWAP2 POP POP SWAP3 SWAP2 POP POP JUMP JUMPDEST PUSH1 0x0 PUSH2 0x3E0D DUP3 DUP5 PUSH2 0x3DD0 JUMP JUMPDEST SWAP2 POP DUP2 SWAP1 POP SWAP3 SWAP2 POP POP JUMP JUMPDEST PUSH32 0x4E487B7100000000000000000000000000000000000000000000000000000000 PUSH1 0x0 MSTORE PUSH1 0x51 PUSH1 0x4 MSTORE PUSH1 0x24 PUSH1 0x0 REVERT INVALID LOG2 PUSH5 0x6970667358 0x22 SLT KECCAK256 DUP15 DUP4 PREVRANDAO 0xC3 PUSH4 0x2A7E95FF SHL 0xCE 0xAB 0x4D 0xCA 0xEB MLOAD SUB PUSH22 0x79E6402C4CC594D412F89B6764B64736F6C63430008 XOR STOP CALLER "},"methodIdentifiers":{"SECONDS_IN_YEAR()":"5dcc9391","accounts(address)":"5e5c06e2","borrow(uint256)":"c5ebeaec","borrowings(address)":"96f159ba","calculateHealthFactor(address)":"9ce625f7","calculateMaxBorrow(address)":"55c81369","deposit(uint256)":"b6b55f25","disableCollateral()":"3a2c08a7","enableCollateral()":"9b09dd62","getAccountInfo(address)":"7b510fe8","getCollateralValue(uint256)":"82fee08f","getDebtInfo(address)":"2aa5270e","getEthPrice()":"67c9b017","getHealthFactor(address,uint256)":"631fa8a4","getPrice(uint256)":"e7572230","getUsdcUsdPrice()":"cdb4aef0","interestRate()":"7c3a00fd","owner()":"8da5cb5b","pause()":"8456cb59","paused()":"5c975abb","renounceOwnership()":"715018a6","repay(uint256)":"371fd8e6","transferOwnership(address)":"f2fde38b","unpause()":"3f4ba83a","usdcToken()":"11eac855","wethToken()":"4b57b0be","withdraw(uint256)":"2e1a7d4d","withdrawUSDC(uint256)":"db81f99b"}}}}}