{"contracts/PriceFeedMock.sol":{"PriceFeedMock":{"abi":[{"inputs":[{"internalType":"uint256","name":"pair_id_1","type":"uint256"},{"internalType":"uint256","name":"pair_id_2","type":"uint256"},{"internalType":"uint256","name":"operation","type":"uint256"}],"name":"getDerivedSvalue","outputs":[{"components":[{"internalType":"int256","name":"roundDifference","type":"int256"},{"internalType":"uint256","name":"derivedPrice","type":"uint256"},{"internalType":"uint256","name":"decimals","type":"uint256"}],"internalType":"struct ISupraSValueFeed.derivedData","name":"","type":"tuple"}],"stateMutability":"view","type":"function"},{"inputs":[{"internalType":"uint256","name":"_pairIndex","type":"uint256"}],"name":"getSvalue","outputs":[{"components":[{"internalType":"uint256","name":"round","type":"uint256"},{"internalType":"uint256","name":"decimals","type":"uint256"},{"internalType":"uint256","name":"time","type":"uint256"},{"internalType":"uint256","name":"price","type":"uint256"}],"internalType":"struct ISupraSValueFeed.priceFeed","name":"","type":"tuple"}],"stateMutability":"view","type":"function"},{"inputs":[{"internalType":"uint256[]","name":"_pairIndexes","type":"uint256[]"}],"name":"getSvalues","outputs":[{"components":[{"internalType":"uint256","name":"round","type":"uint256"},{"internalType":"uint256","name":"decimals","type":"uint256"},{"internalType":"uint256","name":"time","type":"uint256"},{"internalType":"uint256","name":"price","type":"uint256"}],"internalType":"struct ISupraSValueFeed.priceFeed[]","name":"","type":"tuple[]"}],"stateMutability":"view","type":"function"},{"inputs":[{"internalType":"uint256","name":"_tradingPair","type":"uint256"}],"name":"getTimestamp","outputs":[{"internalType":"uint256","name":"","type":"uint256"}],"stateMutability":"view","type":"function"}],"evm":{"bytecode":{"linkReferences":{},"object":"608060405234801561001057600080fd5b506107ff806100206000396000f3fe608060405234801561001057600080fd5b506004361061004c5760003560e01c806389b94ea214610051578063a767041c14610081578063b633620c146100b1578063f48bf177146100e1575b600080fd5b61006b60048036038101906100669190610333565b610111565b60405161007891906103c4565b60405180910390f35b61009b600480360381019061009691906103df565b61015f565b6040516100a8919061048d565b60405180910390f35b6100cb60048036038101906100c69190610333565b6101af565b6040516100d891906104b7565b60405180910390f35b6100fb60048036038101906100f6919061062b565b6101b9565b6040516101089190610778565b60405180910390f35b6101196102a0565b6101216102a0565b602e831461013757670de0b6b3a7640000610142565b688fa8233fb2c12800005b68ffffffffffffffffff1681606001818152505080915050919050565b6101676102c8565b61016f6102c8565b602e851461018557670de0b6b3a7640000610190565b688fa8233fb2c12800005b68ffffffffffffffffff16816020018181525050809150509392505050565b6000429050919050565b60606000825167ffffffffffffffff8111156101d8576101d76104e8565b5b60405190808252806020026020018201604052801561021157816020015b6101fe6102a0565b8152602001906001900390816101f65790505b50905060005b835181101561029657602e8482815181106102355761023461079a565b5b60200260200101511461025057670de0b6b3a764000061025b565b688fa8233fb2c12800005b68ffffffffffffffffff168282815181106102795761027861079a565b5b602002602001015160600181815250508080600101915050610217565b5080915050919050565b6040518060800160405280600081526020016000815260200160008152602001600081525090565b60405180606001604052806000815260200160008152602001600081525090565b6000604051905090565b600080fd5b600080fd5b6000819050919050565b610310816102fd565b811461031b57600080fd5b50565b60008135905061032d81610307565b92915050565b600060208284031215610349576103486102f3565b5b60006103578482850161031e565b91505092915050565b610369816102fd565b82525050565b6080820160008201516103856000850182610360565b5060208201516103986020850182610360565b5060408201516103ab6040850182610360565b5060608201516103be6060850182610360565b50505050565b60006080820190506103d9600083018461036f565b92915050565b6000806000606084860312156103f8576103f76102f3565b5b60006104068682870161031e565b93505060206104178682870161031e565b92505060406104288682870161031e565b9150509250925092565b6000819050919050565b61044581610432565b82525050565b606082016000820151610461600085018261043c565b5060208201516104746020850182610360565b5060408201516104876040850182610360565b50505050565b60006060820190506104a2600083018461044b565b92915050565b6104b1816102fd565b82525050565b60006020820190506104cc60008301846104a8565b92915050565b600080fd5b6000601f19601f8301169050919050565b7f4e487b7100000000000000000000000000000000000000000000000000000000600052604160045260246000fd5b610520826104d7565b810181811067ffffffffffffffff8211171561053f5761053e6104e8565b5b80604052505050565b60006105526102e9565b905061055e8282610517565b919050565b600067ffffffffffffffff82111561057e5761057d6104e8565b5b602082029050602081019050919050565b600080fd5b60006105a76105a284610563565b610548565b905080838252602082019050602084028301858111156105ca576105c961058f565b5b835b818110156105f357806105df888261031e565b8452602084019350506020810190506105cc565b5050509392505050565b600082601f830112610612576106116104d2565b5b8135610622848260208601610594565b91505092915050565b600060208284031215610641576106406102f3565b5b600082013567ffffffffffffffff81111561065f5761065e6102f8565b5b61066b848285016105fd565b91505092915050565b600081519050919050565b600082825260208201905092915050565b6000819050602082019050919050565b6080820160008201516106b66000850182610360565b5060208201516106c96020850182610360565b5060408201516106dc6040850182610360565b5060608201516106ef6060850182610360565b50505050565b600061070183836106a0565b60808301905092915050565b6000602082019050919050565b600061072582610674565b61072f818561067f565b935061073a83610690565b8060005b8381101561076b57815161075288826106f5565b975061075d8361070d565b92505060018101905061073e565b5085935050505092915050565b60006020820190508181036000830152610792818461071a565b905092915050565b7f4e487b7100000000000000000000000000000000000000000000000000000000600052603260045260246000fdfea2646970667358221220cf276b5f7590c2677ef86f9f95f1ec20c39e82ee7648a31cb02b0c1f2d90c76664736f6c63430008180033","opcodes":"PUSH1 0x80 PUSH1 0x40 MSTORE CALLVALUE DUP1 ISZERO PUSH2 0x10 JUMPI PUSH1 0x0 DUP1 REVERT JUMPDEST POP PUSH2 0x7FF DUP1 PUSH2 0x20 PUSH1 0x0 CODECOPY PUSH1 0x0 RETURN INVALID PUSH1 0x80 PUSH1 0x40 MSTORE CALLVALUE DUP1 ISZERO PUSH2 0x10 JUMPI PUSH1 0x0 DUP1 REVERT JUMPDEST POP PUSH1 0x4 CALLDATASIZE LT PUSH2 0x4C JUMPI PUSH1 0x0 CALLDATALOAD PUSH1 0xE0 SHR DUP1 PUSH4 0x89B94EA2 EQ PUSH2 0x51 JUMPI DUP1 PUSH4 0xA767041C EQ PUSH2 0x81 JUMPI DUP1 PUSH4 0xB633620C EQ PUSH2 0xB1 JUMPI DUP1 PUSH4 0xF48BF177 EQ PUSH2 0xE1 JUMPI JUMPDEST PUSH1 0x0 DUP1 REVERT JUMPDEST PUSH2 0x6B PUSH1 0x4 DUP1 CALLDATASIZE SUB DUP2 ADD SWAP1 PUSH2 0x66 SWAP2 SWAP1 PUSH2 0x333 JUMP JUMPDEST PUSH2 0x111 JUMP JUMPDEST PUSH1 0x40 MLOAD PUSH2 0x78 SWAP2 SWAP1 PUSH2 0x3C4 JUMP JUMPDEST PUSH1 0x40 MLOAD DUP1 SWAP2 SUB SWAP1 RETURN JUMPDEST PUSH2 0x9B PUSH1 0x4 DUP1 CALLDATASIZE SUB DUP2 ADD SWAP1 PUSH2 0x96 SWAP2 SWAP1 PUSH2 0x3DF JUMP JUMPDEST PUSH2 0x15F JUMP JUMPDEST PUSH1 0x40 MLOAD PUSH2 0xA8 SWAP2 SWAP1 PUSH2 0x48D JUMP JUMPDEST PUSH1 0x40 MLOAD DUP1 SWAP2 SUB SWAP1 RETURN JUMPDEST PUSH2 0xCB PUSH1 0x4 DUP1 CALLDATASIZE SUB DUP2 ADD SWAP1 PUSH2 0xC6 SWAP2 SWAP1 PUSH2 0x333 JUMP JUMPDEST PUSH2 0x1AF JUMP JUMPDEST PUSH1 0x40 MLOAD PUSH2 0xD8 SWAP2 SWAP1 PUSH2 0x4B7 JUMP JUMPDEST PUSH1 0x40 MLOAD DUP1 SWAP2 SUB SWAP1 RETURN JUMPDEST PUSH2 0xFB PUSH1 0x4 DUP1 CALLDATASIZE SUB DUP2 ADD SWAP1 PUSH2 0xF6 SWAP2 SWAP1 PUSH2 0x62B JUMP JUMPDEST PUSH2 0x1B9 JUMP JUMPDEST PUSH1 0x40 MLOAD PUSH2 0x108 SWAP2 SWAP1 PUSH2 0x778 JUMP JUMPDEST PUSH1 0x40 MLOAD DUP1 SWAP2 SUB SWAP1 RETURN JUMPDEST PUSH2 0x119 PUSH2 0x2A0 JUMP JUMPDEST PUSH2 0x121 PUSH2 0x2A0 JUMP JUMPDEST PUSH1 0x2E DUP4 EQ PUSH2 0x137 JUMPI PUSH8 0xDE0B6B3A7640000 PUSH2 0x142 JUMP JUMPDEST PUSH9 0x8FA8233FB2C1280000 JUMPDEST PUSH9 0xFFFFFFFFFFFFFFFFFF AND DUP2 PUSH1 0x60 ADD DUP2 DUP2 MSTORE POP POP DUP1 SWAP2 POP POP SWAP2 SWAP1 POP JUMP JUMPDEST PUSH2 0x167 PUSH2 0x2C8 JUMP JUMPDEST PUSH2 0x16F PUSH2 0x2C8 JUMP JUMPDEST PUSH1 0x2E DUP6 EQ PUSH2 0x185 JUMPI PUSH8 0xDE0B6B3A7640000 PUSH2 0x190 JUMP JUMPDEST PUSH9 0x8FA8233FB2C1280000 JUMPDEST PUSH9 0xFFFFFFFFFFFFFFFFFF AND DUP2 PUSH1 0x20 ADD DUP2 DUP2 MSTORE POP POP DUP1 SWAP2 POP POP SWAP4 SWAP3 POP POP POP JUMP JUMPDEST PUSH1 0x0 TIMESTAMP SWAP1 POP SWAP2 SWAP1 POP JUMP JUMPDEST PUSH1 0x60 PUSH1 0x0 DUP3 MLOAD PUSH8 0xFFFFFFFFFFFFFFFF DUP2 GT ISZERO PUSH2 0x1D8 JUMPI PUSH2 0x1D7 PUSH2 0x4E8 JUMP JUMPDEST JUMPDEST PUSH1 0x40 MLOAD SWAP1 DUP1 DUP3 MSTORE DUP1 PUSH1 0x20 MUL PUSH1 0x20 ADD DUP3 ADD PUSH1 0x40 MSTORE DUP1 ISZERO PUSH2 0x211 JUMPI DUP2 PUSH1 0x20 ADD JUMPDEST PUSH2 0x1FE PUSH2 0x2A0 JUMP JUMPDEST DUP2 MSTORE PUSH1 0x20 ADD SWAP1 PUSH1 0x1 SWAP1 SUB SWAP1 DUP2 PUSH2 0x1F6 JUMPI SWAP1 POP JUMPDEST POP SWAP1 POP PUSH1 0x0 JUMPDEST DUP4 MLOAD DUP2 LT ISZERO PUSH2 0x296 JUMPI PUSH1 0x2E DUP5 DUP3 DUP2 MLOAD DUP2 LT PUSH2 0x235 JUMPI PUSH2 0x234 PUSH2 0x79A JUMP JUMPDEST JUMPDEST PUSH1 0x20 MUL PUSH1 0x20 ADD ADD MLOAD EQ PUSH2 0x250 JUMPI PUSH8 0xDE0B6B3A7640000 PUSH2 0x25B JUMP JUMPDEST PUSH9 0x8FA8233FB2C1280000 JUMPDEST PUSH9 0xFFFFFFFFFFFFFFFFFF AND DUP3 DUP3 DUP2 MLOAD DUP2 LT PUSH2 0x279 JUMPI PUSH2 0x278 PUSH2 0x79A JUMP JUMPDEST JUMPDEST PUSH1 0x20 MUL PUSH1 0x20 ADD ADD MLOAD PUSH1 0x60 ADD DUP2 DUP2 MSTORE POP POP DUP1 DUP1 PUSH1 0x1 ADD SWAP2 POP POP PUSH2 0x217 JUMP JUMPDEST POP DUP1 SWAP2 POP POP SWAP2 SWAP1 POP JUMP JUMPDEST PUSH1 0x40 MLOAD DUP1 PUSH1 0x80 ADD PUSH1 0x40 MSTORE DUP1 PUSH1 0x0 DUP2 MSTORE PUSH1 0x20 ADD PUSH1 0x0 DUP2 MSTORE PUSH1 0x20 ADD PUSH1 0x0 DUP2 MSTORE PUSH1 0x20 ADD PUSH1 0x0 DUP2 MSTORE POP SWAP1 JUMP JUMPDEST PUSH1 0x40 MLOAD DUP1 PUSH1 0x60 ADD PUSH1 0x40 MSTORE DUP1 PUSH1 0x0 DUP2 MSTORE PUSH1 0x20 ADD PUSH1 0x0 DUP2 MSTORE PUSH1 0x20 ADD PUSH1 0x0 DUP2 MSTORE POP SWAP1 JUMP JUMPDEST PUSH1 0x0 PUSH1 0x40 MLOAD SWAP1 POP SWAP1 JUMP JUMPDEST PUSH1 0x0 DUP1 REVERT JUMPDEST PUSH1 0x0 DUP1 REVERT JUMPDEST PUSH1 0x0 DUP2 SWAP1 POP SWAP2 SWAP1 POP JUMP JUMPDEST PUSH2 0x310 DUP2 PUSH2 0x2FD JUMP JUMPDEST DUP2 EQ PUSH2 0x31B JUMPI PUSH1 0x0 DUP1 REVERT JUMPDEST POP JUMP JUMPDEST PUSH1 0x0 DUP2 CALLDATALOAD SWAP1 POP PUSH2 0x32D DUP2 PUSH2 0x307 JUMP JUMPDEST SWAP3 SWAP2 POP POP JUMP JUMPDEST PUSH1 0x0 PUSH1 0x20 DUP3 DUP5 SUB SLT ISZERO PUSH2 0x349 JUMPI PUSH2 0x348 PUSH2 0x2F3 JUMP JUMPDEST JUMPDEST PUSH1 0x0 PUSH2 0x357 DUP5 DUP3 DUP6 ADD PUSH2 0x31E JUMP JUMPDEST SWAP2 POP POP SWAP3 SWAP2 POP POP JUMP JUMPDEST PUSH2 0x369 DUP2 PUSH2 0x2FD JUMP JUMPDEST DUP3 MSTORE POP POP JUMP JUMPDEST PUSH1 0x80 DUP3 ADD PUSH1 0x0 DUP3 ADD MLOAD PUSH2 0x385 PUSH1 0x0 DUP6 ADD DUP3 PUSH2 0x360 JUMP JUMPDEST POP PUSH1 0x20 DUP3 ADD MLOAD PUSH2 0x398 PUSH1 0x20 DUP6 ADD DUP3 PUSH2 0x360 JUMP JUMPDEST POP PUSH1 0x40 DUP3 ADD MLOAD PUSH2 0x3AB PUSH1 0x40 DUP6 ADD DUP3 PUSH2 0x360 JUMP JUMPDEST POP PUSH1 0x60 DUP3 ADD MLOAD PUSH2 0x3BE PUSH1 0x60 DUP6 ADD DUP3 PUSH2 0x360 JUMP JUMPDEST POP POP POP POP JUMP JUMPDEST PUSH1 0x0 PUSH1 0x80 DUP3 ADD SWAP1 POP PUSH2 0x3D9 PUSH1 0x0 DUP4 ADD DUP5 PUSH2 0x36F JUMP JUMPDEST SWAP3 SWAP2 POP POP JUMP JUMPDEST PUSH1 0x0 DUP1 PUSH1 0x0 PUSH1 0x60 DUP5 DUP7 SUB SLT ISZERO PUSH2 0x3F8 JUMPI PUSH2 0x3F7 PUSH2 0x2F3 JUMP JUMPDEST JUMPDEST PUSH1 0x0 PUSH2 0x406 DUP7 DUP3 DUP8 ADD PUSH2 0x31E JUMP JUMPDEST SWAP4 POP POP PUSH1 0x20 PUSH2 0x417 DUP7 DUP3 DUP8 ADD PUSH2 0x31E JUMP JUMPDEST SWAP3 POP POP PUSH1 0x40 PUSH2 0x428 DUP7 DUP3 DUP8 ADD PUSH2 0x31E JUMP JUMPDEST SWAP2 POP POP SWAP3 POP SWAP3 POP SWAP3 JUMP JUMPDEST PUSH1 0x0 DUP2 SWAP1 POP SWAP2 SWAP1 POP JUMP JUMPDEST PUSH2 0x445 DUP2 PUSH2 0x432 JUMP JUMPDEST DUP3 MSTORE POP POP JUMP JUMPDEST PUSH1 0x60 DUP3 ADD PUSH1 0x0 DUP3 ADD MLOAD PUSH2 0x461 PUSH1 0x0 DUP6 ADD DUP3 PUSH2 0x43C JUMP JUMPDEST POP PUSH1 0x20 DUP3 ADD MLOAD PUSH2 0x474 PUSH1 0x20 DUP6 ADD DUP3 PUSH2 0x360 JUMP JUMPDEST POP PUSH1 0x40 DUP3 ADD MLOAD PUSH2 0x487 PUSH1 0x40 DUP6 ADD DUP3 PUSH2 0x360 JUMP JUMPDEST POP POP POP POP JUMP JUMPDEST PUSH1 0x0 PUSH1 0x60 DUP3 ADD SWAP1 POP PUSH2 0x4A2 PUSH1 0x0 DUP4 ADD DUP5 PUSH2 0x44B JUMP JUMPDEST SWAP3 SWAP2 POP POP JUMP JUMPDEST PUSH2 0x4B1 DUP2 PUSH2 0x2FD JUMP JUMPDEST DUP3 MSTORE POP POP JUMP JUMPDEST PUSH1 0x0 PUSH1 0x20 DUP3 ADD SWAP1 POP PUSH2 0x4CC PUSH1 0x0 DUP4 ADD DUP5 PUSH2 0x4A8 JUMP JUMPDEST SWAP3 SWAP2 POP POP JUMP JUMPDEST PUSH1 0x0 DUP1 REVERT JUMPDEST PUSH1 0x0 PUSH1 0x1F NOT PUSH1 0x1F DUP4 ADD AND SWAP1 POP SWAP2 SWAP1 POP JUMP JUMPDEST PUSH32 0x4E487B7100000000000000000000000000000000000000000000000000000000 PUSH1 0x0 MSTORE PUSH1 0x41 PUSH1 0x4 MSTORE PUSH1 0x24 PUSH1 0x0 REVERT JUMPDEST PUSH2 0x520 DUP3 PUSH2 0x4D7 JUMP JUMPDEST DUP2 ADD DUP2 DUP2 LT PUSH8 0xFFFFFFFFFFFFFFFF DUP3 GT OR ISZERO PUSH2 0x53F JUMPI PUSH2 0x53E PUSH2 0x4E8 JUMP JUMPDEST JUMPDEST DUP1 PUSH1 0x40 MSTORE POP POP POP JUMP JUMPDEST PUSH1 0x0 PUSH2 0x552 PUSH2 0x2E9 JUMP JUMPDEST SWAP1 POP PUSH2 0x55E DUP3 DUP3 PUSH2 0x517 JUMP JUMPDEST SWAP2 SWAP1 POP JUMP JUMPDEST PUSH1 0x0 PUSH8 0xFFFFFFFFFFFFFFFF DUP3 GT ISZERO PUSH2 0x57E JUMPI PUSH2 0x57D PUSH2 0x4E8 JUMP JUMPDEST JUMPDEST PUSH1 0x20 DUP3 MUL SWAP1 POP PUSH1 0x20 DUP2 ADD SWAP1 POP SWAP2 SWAP1 POP JUMP JUMPDEST PUSH1 0x0 DUP1 REVERT JUMPDEST PUSH1 0x0 PUSH2 0x5A7 PUSH2 0x5A2 DUP5 PUSH2 0x563 JUMP JUMPDEST PUSH2 0x548 JUMP JUMPDEST SWAP1 POP DUP1 DUP4 DUP3 MSTORE PUSH1 0x20 DUP3 ADD SWAP1 POP PUSH1 0x20 DUP5 MUL DUP4 ADD DUP6 DUP2 GT ISZERO PUSH2 0x5CA JUMPI PUSH2 0x5C9 PUSH2 0x58F JUMP JUMPDEST JUMPDEST DUP4 JUMPDEST DUP2 DUP2 LT ISZERO PUSH2 0x5F3 JUMPI DUP1 PUSH2 0x5DF DUP9 DUP3 PUSH2 0x31E JUMP JUMPDEST DUP5 MSTORE PUSH1 0x20 DUP5 ADD SWAP4 POP POP PUSH1 0x20 DUP2 ADD SWAP1 POP PUSH2 0x5CC JUMP JUMPDEST POP POP POP SWAP4 SWAP3 POP POP POP JUMP JUMPDEST PUSH1 0x0 DUP3 PUSH1 0x1F DUP4 ADD SLT PUSH2 0x612 JUMPI PUSH2 0x611 PUSH2 0x4D2 JUMP JUMPDEST JUMPDEST DUP2 CALLDATALOAD PUSH2 0x622 DUP5 DUP3 PUSH1 0x20 DUP7 ADD PUSH2 0x594 JUMP JUMPDEST SWAP2 POP POP SWAP3 SWAP2 POP POP JUMP JUMPDEST PUSH1 0x0 PUSH1 0x20 DUP3 DUP5 SUB SLT ISZERO PUSH2 0x641 JUMPI PUSH2 0x640 PUSH2 0x2F3 JUMP JUMPDEST JUMPDEST PUSH1 0x0 DUP3 ADD CALLDATALOAD PUSH8 0xFFFFFFFFFFFFFFFF DUP2 GT ISZERO PUSH2 0x65F JUMPI PUSH2 0x65E PUSH2 0x2F8 JUMP JUMPDEST JUMPDEST PUSH2 0x66B DUP5 DUP3 DUP6 ADD PUSH2 0x5FD JUMP JUMPDEST SWAP2 POP POP SWAP3 SWAP2 POP POP JUMP JUMPDEST PUSH1 0x0 DUP2 MLOAD SWAP1 POP SWAP2 SWAP1 POP JUMP JUMPDEST PUSH1 0x0 DUP3 DUP3 MSTORE PUSH1 0x20 DUP3 ADD SWAP1 POP SWAP3 SWAP2 POP POP JUMP JUMPDEST PUSH1 0x0 DUP2 SWAP1 POP PUSH1 0x20 DUP3 ADD SWAP1 POP SWAP2 SWAP1 POP JUMP JUMPDEST PUSH1 0x80 DUP3 ADD PUSH1 0x0 DUP3 ADD MLOAD PUSH2 0x6B6 PUSH1 0x0 DUP6 ADD DUP3 PUSH2 0x360 JUMP JUMPDEST POP PUSH1 0x20 DUP3 ADD MLOAD PUSH2 0x6C9 PUSH1 0x20 DUP6 ADD DUP3 PUSH2 0x360 JUMP JUMPDEST POP PUSH1 0x40 DUP3 ADD MLOAD PUSH2 0x6DC PUSH1 0x40 DUP6 ADD DUP3 PUSH2 0x360 JUMP JUMPDEST POP PUSH1 0x60 DUP3 ADD MLOAD PUSH2 0x6EF PUSH1 0x60 DUP6 ADD DUP3 PUSH2 0x360 JUMP JUMPDEST POP POP POP POP JUMP JUMPDEST PUSH1 0x0 PUSH2 0x701 DUP4 DUP4 PUSH2 0x6A0 JUMP JUMPDEST PUSH1 0x80 DUP4 ADD SWAP1 POP SWAP3 SWAP2 POP POP JUMP JUMPDEST PUSH1 0x0 PUSH1 0x20 DUP3 ADD SWAP1 POP SWAP2 SWAP1 POP JUMP JUMPDEST PUSH1 0x0 PUSH2 0x725 DUP3 PUSH2 0x674 JUMP JUMPDEST PUSH2 0x72F DUP2 DUP6 PUSH2 0x67F JUMP JUMPDEST SWAP4 POP PUSH2 0x73A DUP4 PUSH2 0x690 JUMP JUMPDEST DUP1 PUSH1 0x0 JUMPDEST DUP4 DUP2 LT ISZERO PUSH2 0x76B JUMPI DUP2 MLOAD PUSH2 0x752 DUP9 DUP3 PUSH2 0x6F5 JUMP JUMPDEST SWAP8 POP PUSH2 0x75D DUP4 PUSH2 0x70D JUMP JUMPDEST SWAP3 POP POP PUSH1 0x1 DUP2 ADD SWAP1 POP PUSH2 0x73E JUMP JUMPDEST POP DUP6 SWAP4 POP POP POP POP SWAP3 SWAP2 POP POP JUMP JUMPDEST PUSH1 0x0 PUSH1 0x20 DUP3 ADD SWAP1 POP DUP2 DUP2 SUB PUSH1 0x0 DUP4 ADD MSTORE PUSH2 0x792 DUP2 DUP5 PUSH2 0x71A JUMP JUMPDEST SWAP1 POP SWAP3 SWAP2 POP POP JUMP JUMPDEST PUSH32 0x4E487B7100000000000000000000000000000000000000000000000000000000 PUSH1 0x0 MSTORE PUSH1 0x32 PUSH1 0x4 MSTORE PUSH1 0x24 PUSH1 0x0 REVERT INVALID LOG2 PUSH5 0x6970667358 0x22 SLT KECCAK256 0xCF 0x27 PUSH12 0x5F7590C2677EF86F9F95F1EC KECCAK256 0xC3 SWAP15 DUP3 0xEE PUSH23 0x48A31CB02B0C1F2D90C76664736F6C6343000818003300 "},"methodIdentifiers":{"getDerivedSvalue(uint256,uint256,uint256)":"a767041c","getSvalue(uint256)":"89b94ea2","getSvalues(uint256[])":"f48bf177","getTimestamp(uint256)":"b633620c"}}}}}